:020000040800F2
:100000000080022015790008F1750008F9750008D4
:10001000017600080976000811760008000000004B
:100020000000000000000000000000003184010812
:10003000197600080000000081860108214C0108A3
:100040006579000865790008657900082976000857
:100050006579000865790008657900086579000808
:1000600065790008657900086579000865790008F8
:100070003D7600085176000865760008657900082D
:1000800065790008657900086579000865790008D8
:1000900065790008657900086579000865790008C8
:1000A00065790008657900086579000865790008B8
:1000B000657900086579000800000000657900088E
:1000C0006579000865790008657900086579000898
:1000D0006579000865790008657900087976000877
:1000E0008D76000851770008000000000000000035
:1000F0000000000000000000000000000000000000
:100100000000000065790008000000006579000823
:1001100065790008000000009D76000800000000DE
:10012000B176000865790008C5760008D976000820
:10013000657900086579000865790008000000000D
:10014000657900086579000865790008ED76000892
:1001500001770008157700082977000865790008FD
:1001600065790008657900083D7700080000000007
:100170000000000065790008000000000000000099
:1001800065790008657900086579000865790008D7
:040190006579000885
:1001A00010B5054C237833B9044B13B10448AFF3B1
:1001B00000800123237010BD080201200000000010
:1001C000EC1A020808B5034B1BB103490348AFF30F
:1001D000008008BD000000000C020120EC1A02089B
:1001E00010F8012B11F8013B012A28BF9A42F7D0E1
:1001F000D01A70470000000000000000000000005E
:1002000001F0FF01102A2BDB10F0070F08D010F8C7
:10021000013B013A8B422DD010F0070F42B3F6D1CB
:10022000F0B441EA012141EA014122F007047FF0E4
:1002300000070023F0E80256083C85EA010586EA3B
:10024000010685FA47F5A3FA87F586FA47F6A5FA77
:1002500087F68EB9EED1F0BC01F0FF0102F0070283
:1002600032B110F8013B013A83EA010313B1F8D12E
:100270000020704701387047002D06BF354603380F
:10028000073815F0010F07D1013015F4807F02BF48
:10029000013015F4C03F0130F0BC0138704700BF99
:1002A000034613F8012B002AFBD1181A01387047B6
:1002B00081F0004102E000BF83F0004330B54FEA17
:1002C00041044FEA430594EA050F08BF90EA020F84
:1002D0001FBF54EA000C55EA020C7FEA645C7FEA17
:1002E000655C00F0E2804FEA5454D4EB5555B8BF3A
:1002F0006D420CDD2C4480EA020281EA030382EAAB
:10030000000083EA010180EA020281EA0303362D3C
:1003100088BF30BD11F0004F4FEA01314FF4801C0F
:100320004CEA113102D0404261EB410113F0004F21
:100330004FEA03334CEA133302D0524263EB4303D8
:1003400094EA050F00F0A780A4F10104D5F1200E76
:100350000DDB02FA0EFC22FA05F2801841F10001D1
:1003600003FA0EF2801843FA05F359410EE0A5F1A5
:1003700020050EF1200E012A03FA0EFC28BF4CF0D6
:10038000020C43FA05F3C01851EBE37101F000458C
:1003900007D54FF0000EDCF1000C7EEB00006EEB99
:1003A0000101B1F5801F1BD3B1F5001F0CD3490823
:1003B0005FEA30004FEA3C0C04F101044FEA44527A
:1003C00012F5800F80F09A80BCF1004F08BF5FEA01
:1003D000500C50F1000041EB045141EA050130BDE1
:1003E0005FEA4C0C404141EB0101013C28BFB1F5F3
:1003F000801FE9D291F0000F04BF01460020B1FA3E
:1004000081F308BF2033A3F10B03B3F120020CDA10
:100410000C3208DD02F1140CC2F10C0201FA0CF0EE
:1004200021FA02F10CE002F11402D8BFC2F1200C53
:1004300001FA02F120FA0CFCDCBF41EA0C01904009
:10044000E41AA2BF01EB0451294330BD6FEA040452
:100450001F3C1CDA0C340EDC04F11404C4F120023D
:1004600020FA04F001FA02F340EA030021FA04F34F
:1004700045EA030130BDC4F10C04C4F1200220FAA6
:1004800002F001FA04F340EA0300294630BD21FAE4
:1004900004F0294630BD94F0000F83F4801306BFAA
:1004A00081F480110134013D4EE77FEA645C18BF9E
:1004B0007FEA655C29D094EA050F08BF90EA020F35
:1004C00005D054EA000C04BF1946104630BD91EA2D
:1004D000030F1EBF0021002030BD5FEA545C05D130
:1004E0004000494128BF41F0004130BD14F580046F
:1004F0003CBF01F5801130BD01F0004545F0FE41E3
:1005000041F470014FF0000030BD7FEA645C1ABF17
:10051000194610467FEA655C1CBF0B46024650EA4E
:10052000013406BF52EA033591EA030F41F400217A
:1005300030BD00BF90F0000F04BF0021704730B500
:100540004FF4806404F132044FF000054FF00001D5
:1005500050E700BF90F0000F04BF0021704730B596
:100560004FF4806404F1320410F0004548BF40426B
:100570004FF000013EE700BF42004FEAE2014FEAC0
:1005800031014FEA02701FBF12F07F4393F07F4F9B
:1005900081F06051704732F07F4208BF704793F09E
:1005A0007F4F04BF41F40021704730B54FF46074B1
:1005B00001F0004521F000411CE700BF50EA0102B4
:1005C00008BF704730B54FF000050AE050EA01025D
:1005D00008BF704730B511F0004502D5404261EBCD
:1005E00041014FF4806404F132045FEA915C3FF40E
:1005F000D8AE4FF003025FEADC0C18BF03325FEAAB
:10060000DC0C18BF033202EBDC02C2F1200300FA5B
:1006100003FC20FA02F001FA03FE40EA0E0021FA80
:1006200002F11444BDE600BF70B54FF0FF0C4CF46E
:10063000E06C1CEA11541DBF1CEA135594EA0C0F20
:1006400095EA0C0F00F0DEF82C4481EA030621EA5B
:100650004C5123EA4C5350EA013518BF52EA033596
:1006600041F4801143F4801338D0A0FB02CE4FF048
:100670000005E1FB02E506F00042E0FB03E54FF078
:100680000006E1FB03569CF0000F18BF4EF0010E70
:10069000A4F1FF04B6F5007F64F5407404D25FEA6C
:1006A0004E0E6D4146EB060642EAC62141EA55511F
:1006B0004FEAC52040EA5E504FEACE2EB4F1FD0C61
:1006C00088BFBCF5E06F1ED8BEF1004F08BF5FEADF
:1006D000500E50F1000041EB045170BD06F0004691
:1006E00046EA010140EA020081EA0301B4EB5C043E
:1006F000C2BFD4EB0C0541EA045170BD41F4801136
:100700004FF0000E013C00F3AB8014F1360FDEBF5A
:10071000002001F0004170BDC4F10004203C35DA36
:100720000C341BDC04F11404C4F1200500FA05F3B9
:1007300020FA04F001FA05F240EA020001F000425A
:1007400021F0004110EBD37021FA04F642EB0601D0
:100750005EEA430E08BF20EAD37070BDC4F10C04FA
:10076000C4F1200500FA04F320FA05F001FA04F2BE
:1007700040EA020001F0004110EBD37041F10001AA
:100780005EEA430E08BF20EAD37070BDC4F12005B5
:1007900000FA05F24EEA020E20FA04F301FA05F21D
:1007A00043EA020321FA04F001F0004121FA04F2C5
:1007B00020EA020000EBD3705EEA430E08BF20EA95
:1007C000D37070BD94F0000F0FD101F000464000CF
:1007D00041EB010111F4801F08BF013CF7D041EA51
:1007E000060195F0000F18BF704703F00046520055
:1007F00043EB030313F4801F08BF013DF7D043EA26
:100800000603704794EA0C0F0CEA135518BF95EADB
:100810000C0F0CD050EA410618BF52EA4306D1D162
:1008200081EA030101F000414FF0000070BD50EA81
:10083000410606BF1046194652EA430619D094EA0B
:100840000C0F02D150EA013613D195EA0C0F05D1F5
:1008500052EA03361CBF104619460AD181EA030149
:1008600001F0004141F0FE4141F470014FF0000001
:1008700070BD41F0FE4141F4780170BD70B54FF09C
:10088000FF0C4CF4E06C1CEA11541DBF1CEA13551C
:1008900094EA0C0F95EA0C0F00F0A7F8A4EB0504FE
:1008A00081EA030E52EA03354FEA013100F08880F5
:1008B0004FEA03334FF0805545EA131343EA1263BE
:1008C0004FEA022245EA111545EA10654FEA002673
:1008D0000EF000419D4208BF964244F1FD0404F52C
:1008E000407402D25B084FEA3202B61A65EB030588
:1008F0005B084FEA32024FF480104FF4002CB6EB45
:10090000020E75EB030E22BFB61A754640EA0C00C4
:100910005B084FEA3202B6EB020E75EB030E22BF04
:10092000B61A754640EA5C005B084FEA3202B6EB45
:10093000020E75EB030E22BFB61A754640EA9C0004
:100940005B084FEA3202B6EB020E75EB030E22BFD4
:10095000B61A754640EADC0055EA060E18D04FEA92
:10096000051545EA16754FEA06164FEAC30343EA32
:1009700052734FEAC2025FEA1C1CC0D111F4801FFF
:100980000BD141EA00014FF000004FF0004CB6E7F8
:1009900011F4801F04BF01430020B4F1FD0C88BF97
:1009A000BCF5E06F3FF6AFAEB5EB030C04BFB6EBA2
:1009B000020C5FEA500C50F1000041EB045170BD95
:1009C0000EF0004E4EEA113114EB5C04C2BFD4EBC2
:1009D0000C0541EA045170BD41F480114FF0000E46
:1009E000013C90E645EA060E8DE60CEA135594EAC2
:1009F0000C0F08BF95EA0C0F3FF43BAF94EA0C0FC5
:100A00000AD150EA01347FF434AF95EA0C0F7FF439
:100A100025AF104619462CE795EA0C0F06D152EA8D
:100A200003353FF4FDAE1046194622E750EA410671
:100A300018BF52EA43067FF4C5AE50EA41047FF482
:100A40000DAF52EA43057FF4EBAE12E74FF0FF3CE7
:100A500006E000BF4FF0010C02E000BF4FF0010CB8
:100A60004DF804CD4FEA410C7FEA6C5C4FEA430C31
:100A700018BF7FEA6C5C1BD001B050EA410C0CBF80
:100A800052EA430C91EA030F02BF90EA020F0020E2
:100A9000704710F1000F91EA030F58BF994208BF49
:100AA00090422CBFD8176FEAE37040F00100704706
:100AB0004FEA410C7FEA6C5C02D150EA013C07D15D
:100AC0004FEA430C7FEA6C5CD6D152EA033CD3D0A8
:100AD0005DF8040B704700BF8446104662468C46A2
:100AE0001946634600E000BF01B5FFF7B7FF0028D5
:100AF00048BF10F1000F01BD4DF808EDFFF7F4FFFE
:100B00000CBF012000205DF808FB00BF4DF808ED88
:100B1000FFF7EAFF34BF012000205DF808FB00BFAB
:100B20004DF808EDFFF7E0FF94BF012000205DF8CD
:100B300008FB00BF4DF808EDFFF7CEFF94BF012082
:100B400000205DF808FB00BF4DF808EDFFF7C4FF7B
:100B500034BF012000205DF808FB00BF4FEA410CC4
:100B60007FEA6C5C02D150EA013C0AD14FEA430CA7
:100B70007FEA6C5C02D152EA033C02D14FF00000E4
:100B800070474FF0010070474FEA410212F5001222
:100B900015D211D56FF47873B3EB625212D94FEAC4
:100BA000C12343F0004343EA505311F0004F23FAAE
:100BB00002F018BF404270474FF00000704750EA03
:100BC000013005D111F0004008BF6FF000407047C0
:100BD0004FF00000704700BF4A0011D212F500121A
:100BE00011D20DD56FF47873B3EB62520ED44FEA85
:100BF000C12343F0004343EA505323FA02F0704705
:100C00004FF00000704750EA013002D14FF0FF3042
:100C100070474FF0000070474FEA4102B2F1E043E5
:100C200024BFB3F5001CDCF1FE5C0DD901F0004CD3
:100C30004FEAC0024CEA5070B2F1004F40EB830023
:100C400008BF20F00100704711F0804F21D113F14F
:100C50003872BCBF01F00040704741F480114FEA88
:100C60005252C2F11802C2F1200C10FA0CF320FA11
:100C700002F018BF40F001004FEAC1234FEAD3232E
:100C800003FA0CFC40EA0C0023FA02F34FEA430398
:100C9000CCE77FEA625307D150EA01331EBF4FF021
:100CA000FE4040F44000704701F0004040F0FE403C
:100CB00040F40000704700BF7BB972B90029BEBF85
:100CC00000204FF0004106E008BF00281CBF6FF075
:100CD00000414FF0FF3000F009BAADF1080C6DE9AA
:100CE00004CE002909DB002B1ADB00F083F8DDF8C5
:100CF00004E0DDE9022304B07047404261EB4101AA
:100D0000002B1BDB00F076F8DDF804E0DDE90223C0
:100D100004B0404261EB4101524263EB4303704730
:100D2000524263EB430300F065F8DDF804E0DDE9CF
:100D3000022304B0404261EB41017047524263EB31
:100D4000430300F057F8DDF804E0DDE9022304B0C6
:100D5000524263EB4303704753B94AB9002908BFB5
:100D600000281CBF4FF0FF314FF0FF3000F0BEB93C
:100D7000ADF1080C6DE904CE00F03CF8DDF804E0BC
:100D8000DDE9022304B0704738B500220023044691
:100D90000D46FFF7BBFE28B920462946BDE838407E
:100DA00000F00AB8204605F1004100F005F8404285
:100DB00061EB410138BD00BFD0B50C4B00220646A7
:100DC0000F46FFF731FCFFF707FF0446FFF7B2FBC2
:100DD000074B0022FFF728FC02460B4630463946F7
:100DE000FFF76AFAFFF7F8FE2146D0BD0000F03D9C
:100DF0000000F0412DE9F047089D8E4604468846E4
:100E0000002B4AD18A42174662D9B2FA82F64EB115
:100E1000C6F1200301FA06F820FA03F3B74043EACB
:100E20000808B4404FEA174E1FFA87FCB8FBFEF1E2
:100E3000230C0EFB118843EA084301FB0CF29A4293
:100E400009D9FB1801F1FF3080F0EA809A4240F2A4
:100E5000E78002393B449A1AA3B2B2FBFEF00EFBC4
:100E6000102243EA024300FB0CFC9C4509D9FB1805
:100E700000F1FF3280F0D6809C4540F2D3803B44A5
:100E8000023840EA0140A3EB0C0300211DB1F340FE
:100E90000022C5E90032BDE8F0878B4205D90DB1CB
:100EA000C5E9000100210846F5E7B3FA83F10029FE
:100EB00046D1734502D3824200F20581841A6EEB5B
:100EC000030201209046002DE5D0C5E90048E2E785
:100ED000002A00F09080B2FA82F6002E40F0A48042
:100EE0008A1A030C4FEA174E80B2BCB20121B2FB42
:100EF000FEFC0EFB1C2243EA024304FB0CF29A4266
:100F000007D9FB180CF1FF3802D29A4200F2E080B8
:100F1000C4469B1AB3FBFEF20EFB123340EA0343B6
:100F200002FB04F49C4207D9FB1802F1FF3002D205
:100F30009C4200F2CA8002461B1B42EA0C40A5E715
:100F4000C1F120068B4022FA06F71F430EFA01F486
:100F500020FA06F32EFA06FE4FEA1749234300FA59
:100F600001F81FFA87FCBEFBF9F01C0C09FB10EE20
:100F700044EA0E4400FB0CFEA64502FA01F209D930
:100F80003C1900F1FF3A80F09C80A64540F2998020
:100F900002383C44A4EB0E041FFA83FEB4FBF9F3C1
:100FA00009FB13444EEA044403FB0CFCA44508D996
:100FB0003C1903F1FF3E80F08280A4457FD9023BBB
:100FC0003C4443EA0040A4EB0C04A0FB02EC644563
:100FD0007346E14662D35FD05DB1B8EB030264EBC8
:100FE000090404FA06F622FA01F31E43CC40C5E9CF
:100FF000006400214FE7B1FBF2FC010C41EA0E4115
:1010000080B240EA01423B4638463C46B846BE46BE
:101010002026B1FBF7F1A2EB080241EA0C4166E79A
:10102000014618E710462CE7C6F120022EFA02F31B
:10103000B740B14020FA02F24FEA174E0A43B3FB21
:10104000FEF8BCB20EFB1833110C41EA034108FB59
:1010500004F9B04089454FEA104380B23ED979186F
:1010600008F1FF3C01D289451FD8A1EB0901B1FB72
:10107000FEF909FB04F80EFB191192B242EA014293
:10108000424529D2BA1809F1FF31C4D24245C2D231
:10109000A9F102013A44BEE7F0459DD2BEEB02033E
:1010A0006CEB070C0138E14696E7A7EB09094944C8
:1010B000A8F1020CB1FBFEF909FB04F8DBE773466B
:1010C0007FE7504666E70846FDE63B44023A33E7D1
:1010D000ACF1020C3B441CE749469CE7A1EB09013B
:1010E000C446B1FBFEF909FB04F8C4E7704700BF32
:1010F00080B586B000AF786039604FF000037B6147
:101100001E4BFB6000233B6118E03B699B007A6843
:10111000134493ED007AD7ED037A67EE277AB0EEA9
:10112000670A20F00DFBB0EE407AD7ED057A77EE36
:10113000877AC7ED057A3B6901333B613B693A68C1
:101140009A42E2D83B6807EE903AF8EE677A97ED5C
:10115000057AC7EE276AB0EE660A00F013F8F0EEE3
:10116000407A9FED077A67EE877AB2EE047A67EEEF
:10117000877AB0EE670A1837BD4680BDE3C86B3E7C
:101180009B209A3E80B586B000AF87ED010AD7ED6F
:10119000017AF0EEE77A07F10C031846B0EE670A21
:1011A0001CF0F0FA87ED050A224B3B6197ED047ABB
:1011B000D7ED057A67EE277AC7ED047AD7ED047A82
:1011C0009FED1D7A77EEC77AC7ED047A97ED047A22
:1011D000D7ED057A67EE277AC7ED047AD7ED047A62
:1011E0009FED167A77EE877AC7ED047A97ED047A49
:1011F000D7ED057A67EE277AC7ED047AD7ED047A42
:101200009FED0F7A77EEC77AC7ED047AFB6807EE99
:10121000903AF8EEE77A97ED047A77EE277AC7ED01
:10122000047A3B6907EE903AB0EE670A1837BD467C
:1012300080BD00BFA8A19D3FF5CA8340FBB3C0405D
:10124000E09248402DE9704F82B0164604784FEA8C
:101250009308826802F1140E426808324FEA081BB4
:1012600006EB0810019003F003094FEA890A00E039
:1012700031465EED052A1EED043A1EED034A5EED91
:10128000023A5EED014A154652ED026A52ED015AEC
:10129000B8F1000F00F08E8001F1100006F110038C
:1012A000C44610ED047A50ED037A10ED025A50ED69
:1012B000011A22EE872A32EE262A23EE076A63EE0F
:1012C000826A36EE266A36EE256A62EEA76A36EE46
:1012D000266A24EE077A64EE826A37EE267A63EE97
:1012E000276A63EE865A76EEA56A37EE267A62EEB4
:1012F000856A37EE267A64EE277A64EE866A77EEA0
:10130000A67A63EE056A63EE875A76EEA56A77EEF3
:10131000A67A62EEA16A77EEA67A24EE055A64EE0A
:10132000876A35EE265A63EE216A63EEA75A76EE97
:10133000A56A75EE266A24EE215A64EEA75A75EE68
:10134000255A03ED042A03ED036A03ED027A43ED07
:10135000017A10301033BCF1010CA2D15944019B29
:10136000B9F1000F19D001EB0A00B1EC017A62EE7D
:10137000877A77EEA67A63EE076A23EEA76A76EE9F
:10138000866A76EEA56A24EE077A64EEA75A77EEAF
:10139000255AE3EC017A8842E7D145ED026A45ED32
:1013A000015A0EF1140E0832013C7FF461AF02B015
:1013B000BDE8708F3346D3E780B584B000AF00231B
:1013C000FB810023BB8100237B8100233B8122E042
:1013D0003B895902FB1D0122184601F0F5FCFB79FF
:1013E000FF2B05D0FB890133FB810023BB810FE07C
:1013F000FB89002B06D0BB890133BB81BB89032B42
:1014000006D90FE07B8901337B817B89642B08D867
:101410003B8901333B813B8941F6FE729342D7D928
:1014200000E000BFFB8918461037BD4680BD80B57F
:1014300082B000AF00237B710023FB800EE0FB88AD
:1014400059027B1D0122184601F0BEFC7B79FF2B5F
:1014500001D0FB8808E0FB880133FB80FB8841F664
:10146000FE729342EBD9002318460837BD4680BD73
:1014700080B489B000AF87ED030AC7ED020A0346C6
:10148000FB7197ED037ADFED246AC7EE267AFCEE56
:10149000E77A17EE903ABB61BB69642202FB03F363
:1014A00007EE903AF8EE677A97ED037A37EE677AAF
:1014B000D7ED026A9FED196AC6EE867A77EE277A33
:1014C000C7ED057A97ED057ADFED156AC7EE267A46
:1014D000C7ED047ABB6907EE903AF8EE677A97EDAC
:1014E000047A77EE277AC7ED077AFB79532B02D07F
:1014F000FB79572B05D1D7ED077AF1EE677AC7ED67
:10150000077AFB6907EE903AB0EE670A2437BD46CA
:101510005DF8047B704700BF0000C8420050C3471D
:101520000000704280B590B004AF7860814978685F
:101530001AF076FC38613B69002B00F08D800023A7
:10154000FB623B69BB6237E0BB6A1B782C2B30D156
:10155000FB6A0133FB62FB6A012B0BD1BB6A0133CF
:101560000A220021184619F09DFB03461A46724BC9
:101570009A611EE0FB6A062B0CD1BB6A01330A227A
:101580000021184619F08EFB0346DAB26A4B83F845
:1015900022200EE0FB6A072B0BD1BB6A01330A2223
:1015A0000021184619F07EFB0346DAB2624B83F83D
:1015B0002320BB6A0133BB62BB6A1B78002B02D0BD
:1015C000FB6A092BC0DD5C4B93F82230002B43D023
:1015D0005A4B03935A4B02935A4B01935A4B009325
:1015E0005A4B554A5A4938691AF04EFB524B1B6800
:1015F00007EE903AF8EE677A4F4B5B6807EE103AC9
:10160000B8EE477A4C4B93F820301846F0EE470A74
:10161000B0EE670AFFF72CFFF0EE407A464BC3EDC1
:10162000047A454B9B6807EE903AF8EE677A424B96
:10163000DB6807EE103AB8EE477A3F4B93F821305B
:101640001846F0EE470AB0EE670AFFF711FFF0EE1A
:10165000407A394BC3ED057A3E4978681AF0E0FBD1
:10166000F860FB68002B60D000237B62FB683B6264
:101670000023FB610023BB6100237B612FE03B6AF9
:101680001B782C2B28D17B6A01337B627B6A022B6F
:1016900009D13B6A01330A220021184619F002FBE6
:1016A0000346FB6118E07B6A032B09D13B6A0133D7
:1016B0000A220021184619F0F5FA0346BB610BE037
:1016C0007B6A042B08D13B6A01330A2200211846A9
:1016D00019F0E8FA03467B613B6A01333B623B6ADF
:1016E0001B78002B02D07B6A042BC8DDFB69002B22
:1016F0001BD0BB69002B18D07B69002B15D0FB6970
:1017000042F2107203FB02F2BB69642101FB03F396
:10171000D1187A69104BA3FB02035B09642000FB1C
:1017200003F3D31A0B44044A936300BF3037BD461A
:1017300080BD00BF081B0208C42C0120E52C01203D
:10174000D02C0120CC2C0120E42C0120C82C01201D
:10175000101B0208341B02081F85EB51B0B588B07E
:1017600000AF0346FB710E4B07F10C041D460FCD75
:101770000FC42B682370FB79012B05D10123BB76A5
:101780002623FB766B233B7707F10C014FF0FF33E9
:10179000112204480DF0C1FE00BF2037BD46B0BD88
:1017A0003C1B0208D8070120B0B588B000AF7860B4
:1017B000094B07F10C041D460FCD0FC42B682360A5
:1017C00007F10C014FF0FF33142204480DF0A5FE81
:1017D00000BF2037BD46B0BD501B0208D80701200E
:1017E00080B59EB000AF094A3B46114675221846A7
:1017F0001BF0B3FF39464FF0FF33752204480DF05C
:101800008CFE00BF7837BD4680BD00BF641B020858
:10181000D8070120B0B586B000AF0C4B3C461D4642
:101820000FCD0FC495E803002060043421800234FA
:101830000B0C237039464FF0FF33172204480DF08C
:101840006CFE00BF1837BD46B0BD00BFDC1B0208F0
:10185000D807012090B5B1B002AFF8600B467A60AE
:10186000FB72FF2387F8B730FB681B8887F8B63018
:1018700007F12003C7F8A83097F8B630002B00F026
:101880002A82FB7A042B00F2268201A252F823F06E
:101890000F190008891900089B190008911B0008FE
:1018A000D11C0008BC4B1B681946D7F8A8001AF0D9
:1018B000B7FAC7F88800D7F88830002B08D0FB7A31
:1018C000B54A12681946B54801F0B4FC002303E29A
:1018D000B34B1B681946D7F8A8001AF0A1FAC7F84D
:1018E0008400D7F88430002B08D0FB7AD7F8A820E2
:1018F0001946AC4801F09EFC0123EDE1FB7AD7F8D4
:10190000A8201946A84801F095FC0223E4E100BF95
:10191000D7F8A810F86802F043FB0346002BC1D0AB
:10192000D9E17968D7F8A8001AF07AFAC7F89000D8
:10193000D7F89030002B07D0FB7A7A681946974881
:1019400001F078FC0023C7E1954B1B681946D7F8D6
:10195000A8001AF065FAC7F88C00D7F88C30002B75
:101960000AD0FB7AD7F8A82019468E4801F062FC0D
:10197000012387F8B73007E0FB7A19468A4801F05F
:1019800059FC022387F8B730D7F8A810F86802F09E
:1019900007FB0346002BC4D09DE1002387F8B53038
:1019A000E4E0D7F8A8300233804918461AF038FA34
:1019B000C7F8B000D7F8B030002B00F082800023C9
:1019C000A7F8AE30002387F899303FE0B7F8AE3083
:1019D000D7F8A8201344D7F8B020D31A87F8993045
:1019E00097F89930002B0ED097F89930632B0AD8CE
:1019F000B7F8AE30D7F8A820134497F899201946C5
:101A0000F86802F061FA97F899309AB2B7F8AE30F8
:101A10001344A7F8AE30B7F8AE3004331C46D7F8FD
:101A2000A800FEF73DFC03469C420CD2B7F8AE304E
:101A30000433D7F8A82013445C4918461AF0F0F98B
:101A4000C7F8B00002E00023C7F8B030D7F8B030D4
:101A5000002BBBD1D7F8A800FEF722FC03469AB2B0
:101A6000B7F8AE30D31A9BB2043B9BB2A7F89630BE
:101A7000B7F99630002B13DDB7F99630632B0FDCE6
:101A8000B7F8963087F89930B7F8AE300433D7F806
:101A9000A820134497F899201946F86802F014FA20
:101AA00064220021D7F8A8001AF09CF9FB681B8873
:101AB00087F8B630002387F8B730002387F8B530B1
:101AC0004FE07968D7F8A8001AF0AAF9C7F8B00073
:101AD000D7F8B030002B2ED0002387F89B3000239E
:101AE00087F89A307868FEF7DBFB0346DBB20233F7
:101AF000DBB287F89B30D7F8A800FEF7D1FB03468E
:101B000087F89A3097F99B2097F99A30D31A042BCB
:101B100007DD97F99B301A460021D7F8B0001AF07C
:101B200061F9FB7A7A6819461C4801F083FB0023AF
:101B300087F8B73029E01A4B1B681946D7F8A80078
:101B40001AF06EF9C7F8B000D7F8B030002B08D003
:101B5000FB7AD7F8A8201946124801F06BFB012345
:101B6000BAE097F8B530013387F8B530D7F8A81048
:101B7000F86802F015FA0346002B06D197F8B52055
:101B800097F8B6309A427FF60CAF97F8B730A3E0DB
:101B9000002387F8B5308BE004000020C81C020841
:101BA00000000020E41C0208081D0208281D02088D
:101BB000D7F8A83002334A4918461AF031F9C7F865
:101BC000A4004849D7F8A8001AF02AF9C7F8A400D9
:101BD000D7F8A430002B5CD0FB7A1946424801F0BC
:101BE00029FB0023FB610023BB6100237B610023F1
:101BF0003B6107F1180107F11C0207F11003019383
:101C000007F1140300930B463849D7F8A4001AF0E3
:101C10003BF80346032B2BDDF969BA697B6934482D
:101C200001F008FB3B69102B22D12C21D7F8A4002E
:101C30001AF0E0F8C7F8A000D7F8A030002B17D0B2
:101C4000D7F8A0300133C7F89C3010220021D7F814
:101C50009C0019F0C7F802460B462649C1E900234B
:101C6000254B01221A70D7F89C10244801F0E2FAA3
:101C700064220021D7F8A8001AF0B4F8002387F8EE
:101C8000B730002387F8B530FB681B8887F8B6307B
:101C900009E0FB7AD7F8A8201946194801F0CAFADA
:101CA000022387F8B73097F8B530013387F8B5309D
:101CB000D7F8A810F86802F073F90346002B09D191
:101CC00097F8B52097F8B6309A427FF671AF01E0E9
:101CD000002301E000BF03231846BC37BD4690BD7A
:101CE000281D0208301D02083C1D0208601D020864
:101CF000941D02086803012070030120C41D02081E
:101D0000D01D020880B5A0B000AFF860B9607A605D
:101D10003B60FF2387F87F3007F110036422002126
:101D200018461AF05FF834E007F11003B968184656
:101D30001AF076F8B867BB6F002B0DD03A68796857
:101D4000B86F19F0A1FF0346002B22D0396818485C
:101D500001F070FA002327E0164B1A6807F1100310
:101D6000114618461AF05CF878677B6F002B07D095
:101D700007F110031946104801F05CFA012313E043
:101D800007F1100319460D4801F054FA022387F8B1
:101D90007F3007F110031946F86802F001F9034695
:101DA000002BC1D097F97F3018468037BD4680BDE3
:101DB000F81D020800000020181E0208341E020848
:101DC00080B584B000AF7860084BFB606323FB7282
:101DD000074801F02FFA074B1B681A4603210648F3
:101DE000FFF738FD00BF1037BD4680BDCDCC8C3F1E
:101DF000501E0208080000200C2F012080B584B07E
:101E000000AF0346FB8000211A4800F045FC034662
:101E1000BB730023FB7315E00A2014F09BFF002224
:101E200000211548FFF716FD0346002B07D1134884
:101E300001F000FA124800F059FE002316E0FB7B87
:101E40000133FB73FB7B9AB2FB880E49A1FB0313A2
:101E5000DB089BB29A42DFD3BB7B19460A4801F0EC
:101E6000E9F9074800F0EEFC4FF0FF331846103751
:101E7000BD4680BDAC3002080C2F0120701E020848
:101E80002A020120CDCCCCCC841E020890B58BB0A8
:101E900000AF78600B467B800021254800F0FCFBFA
:101EA000034687F82630234B07F10C040FCB07C4F9
:101EB000238002341B0C23701F4B3B621F4BFB61C2
:101EC000002387F827301FE0142014F043FF07F1A8
:101ED0000C03FA69396A1A48FFF714FF0346002B0E
:101EE0000DD107F10C0308330622194678681BF060
:101EF00034FC7968134801F09DF9002314E097F849
:101F00002730013387F8273097F827309AB27B883B
:101F10000D49A1FB03131B099BB29A42D4D30B4872
:101F200001F088F94FF0FF3318462C37BD4690BDBD
:101F3000BC300208E81E0208A01E0208A81E020803
:101F40000C2F0120B41E0208CDCCCCCCD01E020830
:101F500080B586B000AF03460A46FB8013467B710E
:101F60000023FB7554E00021314800F095FB034647
:101F70007B7597F91530002B44DB2E4B3B612E4BC4
:101F8000FB600023BB7533E0322014F0E3FE2B4BE3
:101F9000FA6839692A48FFF7B5FE0346002B24D1B9
:101FA000FB7D591C7A79274B93F90230264801F0C2
:101FB00041F9244B93F90230052B04D0214B93F9BE
:101FC0000230012B04D1214800F090FD00232BE0CA
:101FD0001C4B93F90230022B07D11D4801F02AF95E
:101FE0000023BB75322014F0B5FEBB7D0133BB75F9
:101FF000BB7D9AB2FB881749A1FB03131B099BB257
:102000009A42C1D3642014F0A5FEFB7D0133FB7519
:10201000FA7D7B799A42A6D30F4801F00BF90B4861
:1020200000F010FC4FF0FF3318461837BD4680BD56
:10203000B0300208381F0208401F020826020120A3
:102040000C2F012024020120541F02082B02012022
:10205000781F02081F85EB519C1F020880B584B0D1
:1020600000AF0346FB80214B1B78012B01D10023DD
:1020700037E000211E4800F00FFB0346BB7397F9C1
:102080000E30002B25DB0023FB7318E00A2014F030
:1020900061FE002200211748FFF7DCFB0346002BFE
:1020A0000AD1154801F0C6F8104B01221A701348E6
:1020B00000F01CFD002314E0FB7B0133FB73FB7B72
:1020C0009AB2FB880E49A1FB0313DB089BB29A422C
:1020D000DCD30C4801F0AEF8084800F0B3FB4FF039
:1020E000FF3318461037BD4680BD00BF24020120D3
:1020F000C83002080C2F0120B81F02082C02012052
:10210000CDCCCCCCD41F020880B584B000AF034640
:10211000FB80304B1B78002B01D1002355E00021C0
:102120002D4800F0B9FA0346BB7397F90E30002B27
:1021300043DB0023FB7336E0C82014F00BFE274B73
:102140001B681A4600212648FFF784FB03467B7371
:1021500097F90D30002B02D0012B0BD01DE0214848
:1021600001F068F81B4B00221A701F4800F0BEFCFB
:1021700000232AE00021184800F08EFA0346BB73C2
:1021800097F90E30002B08D0184801F053F8164884
:1021900000F058FB4FF0FF3317E0154801F04AF804
:1021A000FB7B0133FB73FB7B9AB2FB881149A1FBDC
:1021B00003139B099BB29A42BED30F4801F03AF831
:1021C000094800F03FFB4FF0FF3318461037BD467B
:1021D00080BD00BF24020120D83002080400002086
:1021E0000C2F0120F01F02082D02012008200208F8
:1021F000242002081F85EB514820020880B590B0CA
:1022000000AF0346FB802C4B5B78012B01D10023F0
:102210004EE0294B0022DA70284B1B8807F10C0096
:10222000274A284919F00EFD07F10C030021184632
:1022300000F032FA034687F83E30234BBB63234B52
:102240007B63002387F83F301FE00A2014F082FDF3
:102250001F4B7A6BB96B1F48FFF754FD0346002BE9
:102260000ED1154B93F9033019461B4800F0E2FFDD
:102270001A4800F03BFC104B01225A70002317E073
:1022800097F83F30013387F83F3097F83F309AB2E4
:10229000FB881349A1FB0313DB089BB29A42D4D3FA
:1022A000104800F0C7FF0D4800F0CCFA4FF0FF33A4
:1022B00018464037BD4680BD24020120749B0208A9
:1022C000649B0208642002087C200208882002081F
:1022D000270201200C2F0120982002082E02012045
:1022E000CDCCCCCCBC20020880B58EB000AF03466C
:1022F000FB80284B5B78002B01D1002346E0254B67
:1023000093F903301A4607F10C032349184619F0D4
:1023100099FC07F10C030021184600F0BDF90346B3
:1023200087F83630002387F837301CE0142014F08B
:1023300011FD1A4B1B681A4600211948FFF78AFA4B
:102340000346002B0AD1174800F074FF114B0022FE
:102350005A70154800F0CAFB002317E097F8373091
:10236000013387F8373097F837309AB2FB880F4936
:10237000A1FB03131B099BB29A42D7D30C4800F070
:1023800059FF094800F05EFA4FF0FF33184638371E
:10239000BD4680BD24020120D82002080400002090
:1023A0000C2F0120EC2002082F020120CDCCCCCC38
:1023B0000421020890B591B002AF03463960FB805A
:1023C0001346BB802A4B93F903301C46FA8801233D
:1023D000194607F10C003B68019300911346224611
:1023E000244919F02FFC07F10C030021184600F0D6
:1023F00053F9034687F83630002387F837301CE05E
:102400000A2014F0A7FC1C4B1B681A4600211B482D
:10241000FFF720FA0346002B0AD107F10C031946F7
:10242000174800F007FF174800F060FB00231AE090
:1024300097F83730013387F8373097F837309AB24A
:10244000BB881149A1FB0313DB089BB29A42D7D387
:102450000E4800F0EFFE0E4800F0ECFE094800F0D8
:10246000F1F94FF0FF3318463C37BD4690BD00BF31
:102470002402012020210208040000200C2F01204A
:102480003C21020830020120CDCCCCCC54210208E2
:102490007421020880B590B002AF0346FB80264B42
:1024A00093F903301A4607F10C00244B01930B23D8
:1024B00000930123224919F0C5FB07F10C03002109
:1024C000184600F0E9F8034687F83630002387F80D
:1024D000373019E00A2014F03DFC1A4B1B681A46ED
:1024E00000211948FFF7B6F90346002B07D117481A
:1024F00000F0A0FE164800F0F9FA002317E097F864
:102500003730013387F8373097F837309AB2FB8885
:102510001049A1FB0313DB089BB29A42DAD30E48A1
:1025200000F088FE0A4800F08DF94FF0FF3318469E
:102530003837BD4680BD00BF240201208C30020820
:1025400090210208040000200C2F0120B021020875
:1025500031020120CDCCCCCCCC21020880B5A0B07A
:1025600002AF78600B467B8013463B803E4B93F96D
:1025700003301A467B8807F10C0001933B4B009314
:102580003B4B3C4919F05EFB07F10C030021184658
:1025900000F082F8034687F87530374B3B6700231D
:1025A00087F8773049E00A2014F0D4FB3A6F022113
:1025B0003248FFF74FF90346002B39D1304800F07D
:1025C00039FE0A2014F0C6FB7B88DBB21946786816
:1025D00000F062F8034687F8753097F8773087F88F
:1025E000763019E0274B1B681A4600212348FFF775
:1025F00031F90346002B07D1234800F01BFE234886
:1026000000F074FA00232BE00A2014F0A3FB97F8E3
:102610007630013387F8763097F876309AB23B8877
:102620001B49A1FB0313DB089BB29A42DAD30FE0EC
:1026300097F87730013387F8773097F877309AB288
:102640003B881349A1FB0313DB089BB29A42AAD330
:10265000104800F0EFFD0D4800F0F4F84FF0FF33A4
:1026600018467837BD4680BD24020120102202089A
:102670006422020868220208882202080C2F012026
:102680008C22020804000020A42202083202012049
:10269000CDCCCCCCC022020880B584B000AF78602D
:1026A0000B46FB700023BB73FB78002B05D17868C9
:1026B000FDF7F6FD0346FB7301E0FB78FB73FB7B44
:1026C0009BB21A4679680A480CF0B0FF0346BB7308
:1026D000BB7B002B07D0BB7B1946064800F0AAFD48
:1026E0004FF0FF3300E0002318461037BD4680BD91
:1026F000E8080120E022020880B588B000AFF86049
:102700007A601A460B46FB7213463B810023FB7628
:102710000023FB770023BB7700237B7700237B61BB
:10272000FB7A002B05D1F868FDF7BAFD03463B772D
:1027300001E0FB7A3B7701223B493C480CF0F2FF79
:102740000346FB76FB7E002B06D0FB7E19463848FD
:1027500000F070FD002362E03B7F9BB21A46F968EF
:1027600032480CF063FF0346FB76FB7E002B06D05D
:10277000FB7E19462F4800F05DFD00234FE02E4BF5
:102780001B683A891146184612F0DCFD78617B69B6
:10279000002B3FD1244AF968284800F04BFD32E075
:1027A000FB7F214AD35C0D2B18D1BB7F002B0BD0B4
:1027B0007B7F642202FB03F37A681A44BB7F00210B
:1027C000D1547B7F01337B770023BB77FB7F0133C1
:1027D000FB77FB7F144A0021D1540DE0F97F7B7F0A
:1027E000642202FB03F37A681A44BB7F0E48415C03
:1027F000D154BB7F0133BB77FB7F0B4A0021D154FF
:10280000FB7F0133FB77FB7F074AD35C002BC7D1EB
:102810007B7F04E079690A4800F00CFD002318462C
:102820002037BD4680BD00BFF02D0120E808012003
:10283000EC220208E0220208F00C0120F822020833
:102840000823020880B582B000AF78607B681B78EF
:102850000133DAB27B681A707B681B7819468E48A0
:1028600000F0E8FC7B681B78042B8CBF012300235D
:10287000DBB218467B68894A93420CBF01230023D0
:10288000DAB27B6886498B420CBF01230023DBB29E
:102890001343DBB219467B68824A93420CBF012383
:1028A0000023DBB20B437A687F498A420CBF0122C6
:1028B0000022D2B213437A687C498A420CBF0122BB
:1028C0000022D2B213437A6879498A420CBF0122AE
:1028D0000022D2B213437A6876498A420CBF0122A1
:1028E0000022D2B213437A6873498A420CBF012294
:1028F0000022D2B213430340002B08D06F4800F0EF
:1029000099FC00F001F900F01FF901F067FA7B680B
:102910001B78012B8CBF01230023DBB218467B6898
:10292000674A93420CBF01230023DAB27B686549F2
:102930008B420CBF01230023DBB21343DBB2034005
:10294000002B2DD07B681B78032B0DD87B681B7860
:1029500019465D4800F06EFC5C4B1B684EF660212A
:10296000184612F029FB0BE07B681B781946584883
:1029700000F060FC554B1B685649184612F01CFBD2
:1029800000224FF400714FF0904006F03BF9524B9B
:1029900001225A71514B1B68184612F025FD78E050
:1029A0007B681B78012B8CBF01230023DAB27B6884
:1029B0004B498B420CBF01230023DBB21340DBB237
:1029C000002B66D0444B93F90230002B0CBF01233F
:1029D0000023DAB2404B93F90230032B0CBF0123E2
:1029E0000023DBB21343DBB21A463B4B93F90230B0
:1029F000042B0CBF01230023DBB21343364A92F9A8
:102A00000220022A0CBF01220022D2B21343324A12
:102A100092F90220052ACCBF01220022D2B2134330
:102A2000002B29D02C4B1B791A4613465B0013440C
:102A30005B002C4A1344184600F0B8F8264B1B796B
:102A40000133DAB2244B1A71234B1B79022B02D9C2
:102A5000214B00221A71244800F0ECFB1E4B01228E
:102A60005A710A2014F076F9184B1B684EF6602153
:102A7000184612F0A1FA0AE0174B93F90230B3F1AD
:102A8000FF3F04D10D4800F0D5FB00F05DF800F0E9
:102A90003BF80837BD4680BD182302082A020120F2
:102AA00030020120310201202C0201202E020120DF
:102AB0002F0201202D0201203302012030230208C1
:102AC000320201203402012044230208D00C0120EC
:102AD00070230208C027090024020120040D0120F0
:102AE0002B020120983002089C23020880B483B096
:102AF00000AF78607B6800221A7000BF0C37BD46BB
:102B00005DF8047B7047000080B500AF0C4B0022DD
:102B10009A710B4B0022DA71094B00221A73084B91
:102B200000229A72064B00225A73054B00229A73B8
:102B3000034B00221A72034800F07CFB00BF80BDEB
:102B400024020120D423020880B500AF154B0022D7
:102B50009A70144B00225A70124B00221A70114BBB
:102B60006322DA700F4B00221A710E4B03225A7146
:102B700000224FF400714FF0904006F043F86420BB
:102B800014F0E8F801224FF400714FF0904006F085
:102B900039F8054800F04EFB642014F0DBF800BF64
:102BA00080BD00BF24020120E823020880B59EB04A
:102BB00000AF786007F10C037A681B49184619F0DA
:102BC00041F807F10C031946184800F033FB07F1F0
:102BD0000C004FF47A73164A0021FFF78DFD03466F
:102BE00087F8733097F87330002B17D000237B677A
:102BF0000DE07B6F642202FB03F30D4A13441A4677
:102C0000796F0C4800F016FB7B6F01337B6797F8F8
:102C100073307A6F9A42ECDB002301E04FF0FF3310
:102C200018467837BD4680BD24240208382402089F
:102C3000380201204024020880B483B000AF7860DD
:102C400000BF0C37BD465DF8047B704780B500AF10
:102C5000012210214FF0904005F0D4FF00BF80BD4D
:102C600080B500AF002210214FF0904005F0CAFF60
:102C700000BF80BD80B582B000AF1E4B05221A7028
:102C8000FFF7EEFF01221B491B480BF079FA0346C0
:102C9000FB711A4B1B684FF0FF31184612F052FBC4
:102CA000FB79002B01D004F053F8154B01221A7068
:102CB00014E00122124910480BF050FB0346FB714F
:102CC000104B1B684FF0FF31184612F03BFBFB79AD
:102CD000002B03D0FFF7BAFF04F03AF8084B1B783B
:102CE00003F00103002BE4D1FFF7B0FF00BF08376A
:102CF000BD4680BD74030120C80B0120E80C0120F3
:102D0000D8050120EC0C012080B582B000AF002373
:102D1000FB7000237B60FFF7A3FF104B06221A70A5
:102D200001220E490E480BF02BFA0346FB700D4BA7
:102D30001B684FF0FF31184612F004FBFFF786FFC7
:102D4000FB78002B03D04FF0FF337B6001E00023C2
:102D50007B607B6818460837BD4680BD7403012040
:102D6000C80B0120E80C012080B582B000AF002321
:102D7000FB7000237B60FFF773FF114B04221A7076
:102D80004FF6FF7301220E490E480BF083F80346FD
:102D9000FB70FFF75BFF40F262220021084819F048
:102DA00021F8FB78002B03D04FF0FF337B6001E06C
:102DB00000237B607B6818460837BD4680BD00BF96
:102DC00074030120C80B012080B586B000AFF86005
:102DD000B9607A600023FB7500233B61264B032218
:102DE0001A70BB681B0CDAB2234B5A70BB681B0A03
:102DF000DAB2214B9A70BB68DAB21F4BDA70FFF778
:102E00002FFF04221C491D480BF0BAF90346FB753D
:102E10001B4B1B684FF0FF31184612F093FAFB7DF5
:102E2000002B02D0FFF712FF11E07B689BB21A461D
:102E3000F96812480BF092FA0346FB75114B1B68B8
:102E40004FF0FF31184612F07DFAFFF7FFFE40F217
:102E500062220021084818F0C5FFFB7D002B03D03B
:102E60004FF0FF333B6101E000233B613B691846B3
:102E70001837BD4680BD00BF74030120C80B012078
:102E8000E80C0120EC0C012080B58EB000AFF8609A
:102E9000B9607A60002387F8373000233B63BB6852
:102EA000FB627B68FB610023BB6200237B62FB6AE1
:102EB000002B42D19F4B02221A70FB6A1B0CDAB224
:102EC0009C4B5A70FB6A1B0ADAB29A4B9A70FB6AE7
:102ED000DAB2984BDA700023BB620AE0FA68BB6A88
:102EE0001A44BB6A04331178924AD154BB6A013345
:102EF000BB62BA6AFB699A42F0D3FFF7B1FEFB6985
:102F00009BB204339BB21A468A498B480BF038F9BE
:102F1000034687F83730894B1B684FF0FF3118465E
:102F200012F010FAFFF792FEFFF7A4FE40F26222C1
:102F30000021804818F056FF37E1FB6A5B0ABB614D
:102F4000FA6AFB6913445B0A7B61BA697B699A423E
:102F50003BD1784B02221A70FB6A1B0CDAB2754B1C
:102F60005A70FB6A1B0ADAB2724B9A70FB6ADAB2C9
:102F7000704BDA700023BB620AE0FA68BB6A1A443D
:102F8000BB6A043311786B4AD154BB6A0133BB620C
:102F9000BA6AFB699A42F0D3FFF762FEFB699BB203
:102FA00004339AB24FF6FF73624963480AF072FF26
:102FB000034687F83730FFF749FEFFF75BFE40F224
:102FC000622200215B4818F00DFF7A69BB699A42C2
:102FD00040F2EB80BB693B62E2E03A6ABB699A422D
:102FE00049D13B6A01335A02BB68D31AFB61514B8A
:102FF00002221A70FB6A1B0CDAB24E4B5A70FB6A43
:103000001B0ADAB24B4B9A70FB6ADAB2494BDA70A0
:103010000023BB620DE0FA687B6A1A44BB6A043382
:103020001178444AD1547B6A01337B62BB6A013315
:10303000BB62BA6AFB699A42EDD3FFF711FEFB69E6
:103040009BB204339AB24FF6FF733A493A480AF0FA
:1030500021FF034687F83730FFF7F8FDFFF70AFE38
:1030600040F262220021334818F0BCFEFA6AFB6984
:103070001344FB6291E03A6A7B699A4245D1BA688F
:103080007B681344C3F30803FB612A4B02221A70C6
:10309000FB6A1B0CDAB2274B5A70FB6A1B0ADAB2C6
:1030A000244B9A70FB6ADAB2224BDA700023BB62BF
:1030B0000DE0FA687B6A1A44BB6A043311781D4A32
:1030C000D1547B6A01337B62BB6A0133BB62BA6A4B
:1030D000FB699A42EDD3FFF7C3FDFB699BB2043352
:1030E0009AB24FF6FF73134913480AF0D3FE034612
:1030F00087F83730FFF7AAFDFFF7BCFD40F26222E8
:1031000000210C4818F06EFE47E00A4B02221A70AC
:10311000FB6A1B0CDAB2074B5A70FB6A1B0ADAB265
:10312000044B9A70FB6ADAB2024BDA700023BB627E
:1031300014E000BF74030120C80B0120E80C01203B
:10314000FA687B6A1A44BB6A043311781E4AD15468
:103150007B6A01337B62BB6A0133BB62BB6AB3F536
:10316000007FEDD3FFF77CFD4FF6FF734FF4017244
:10317000154916480AF08EFE034687F83730FFF7E8
:1031800065FDFFF777FD40F2622200210E4818F03E
:1031900029FEFB6A03F50073FB623B6A01333B6265
:1031A0003A6A7B699A427FF618AF97F83730002B5E
:1031B00003D04FF0FF333B6301E000233B633B6BE5
:1031C00018463837BD4680BD74030120C80B012066
:1031D00080B582B000AF0023FB7000237B60134BEF
:1031E000C7221A70FFF73CFD4FF6FF7301220F490B
:1031F0000F480AF04FFE0346FB70FFF727FDFFF76D
:1032000039FD40F262220021084818F0EBFDFB78FE
:10321000002B03D04FF0FF337B6001E000237B6085
:103220007B6818460837BD4680BD00BF7403012087
:10323000C80B01200FB480B5C2B000AF07F58A7289
:1032400007F58473A3F584731A6007F58473A3F5F7
:103250008473381D1B68D7F810214FF4807118F063
:10326000B3FD3B1D1846FDF71BF80346C7F80431B4
:1032700011F014FD0346022B0FD102E0012011F0E2
:10328000EEFDD7F804319AB2391D32230B480CF009
:1032900044F90346022BF1D008E0D7F804319AB282
:1032A000391D4FF47A7305480CF037F900BF07F564
:1032B0008477BD46BDE8804004B0704760080120B7
:1032C00080B500AF04F04FFB00F04EF900F054FB66
:1032D00000F0E2F9642004F07FFB734B5B68724AF4
:1032E00043F0100353604FF4FA7004F075FB6E4B1B
:1032F0005B6903F48053B3F5805F17D06B48FFF729
:1033000099FF02F0A9FF00F037FB00F0D3FA00F0BC
:103310008FF900F021FA00F05BFA00F0BDF900F03F
:103320008BFA00F0E9F915F05FFC1AE06048FFF74E
:1033300081FF5D4B5B685C4A23F01003536002F031
:1033400027FF00F019FB00F0B5FA00F071F900F06A
:1033500003FA00F03DFA00F09FF900F06DFA00F07A
:10336000CBF911F077FC534811F054FE0346524A52
:103370001360524811F04EFE0346514A1360514A01
:103380000021012011F054FF03464F4A13604F4AB9
:103390000021012011F04CFF03464D4A13604D4AB5
:1033A0000021012011F044FF03464B4A13604B4AB1
:1033B0000021012011F03CFF0346494A1360494AAD
:1033C0000021012011F034FF0346474A1360474AA9
:1033D0000021012011F02CFF0346454A1360454AA5
:1033E0000021012011F024FF0346434A1360434AA1
:1033F0000021012011F01CFF0346414A1360414A9D
:103400000021012011F014FF03463F4A13603F4A98
:103410000021012011F00CFF03463D4A13603D4A94
:103420000121012011F004FF03463B4A13603B4B8E
:10343000002200213A4811F043FD0346394A136047
:10344000394A01211E2012F013F80346374A13604F
:10345000374A0121282012F00BF80346354A136041
:10346000354A0021354811F061FC0346344A1360A7
:10347000344A0021344811F059FC0346334A1360A2
:10348000334A0021334811F051FC0346324A13609D
:10349000324A0021324811F049FC0346314A136098
:1034A00011F01EFC00BFFDE70070004098250208E7
:1034B000A4250208E0990208D40C0120F099020822
:1034C000D80C0120009A0208DC0C0120109A020896
:1034D000E00C0120209A0208E40C0120309A020836
:1034E000E80C0120409A0208EC0C0120509A0208D6
:1034F000F00C0120609A0208F40C0120709A020876
:10350000F80C0120809A0208FC0C0120909A020815
:10351000000D0120A09A0208040D0120D099020894
:10352000E56C0008D00C0120A0990208C80C01200D
:10353000B8990208CC0C012034990208596300089C
:10354000BC0C012058990208E9650008C00C012054
:103550007C990208F16B0008C40C01201C9B020836
:1035600081510008140D012080B596B000AF07F11D
:10357000140344220021184618F034FC3B46002274
:103580001A605A609A60DA601A614FF4007007F0AE
:10359000C5F80346002B01D003F0DAFB07F0A0F8D2
:1035A000224BD3F89030214A23F01803C2F8903010
:1035B00027237B614FF48033BB610123FB614FF410
:1035C00080733B620123BB6340237B620223FB6366
:1035D00003233B6402237B641323BB641323FB6438
:1035E00008233B6502237B6507F11403184607F0A7
:1035F000FBF80346002B01D003F0AAFB0F233B602E
:1036000002237B600023BB600023FB6000233B613F
:103610003B460121184607F0FFFC0346002B01D072
:1036200003F096FB00BF5837BD4680BD0010024036
:1036300080B500AF164B174A1A60154B4FF416525F
:103640005A60134B00229A60114B0022DA60104B33
:1036500000221A610E4B0C225A610D4B00229A6116
:103660000B4B00221A620A4B40225A62084B4FF45D
:1036700080121A64064B00225A6405480BF0C2FE01
:103680000346002B01D003F063FB00BF80BD00BFE9
:10369000D80701200080004080B500AF134B144ACA
:1036A0001A60124B134A5A60104B00229A600F4B5B
:1036B0000022DA600D4B00221A610C4B0C225A6179
:1036C0000A4B00229A61094B0022DA61074B002263
:1036D0001A62064B00225A6204480BF093FE03461E
:1036E000002B01D003F034FB00BF80BD6008012037
:1036F00000380140801A060080B500AF144B154A0F
:103700001A60134B4FF4E1325A60114B00229A6059
:103710000F4B0022DA600E4B00221A610C4B0C2278
:103720005A610B4B00229A61094B0022DA61084B67
:1037300000221A62064B00225A6205480BF062FE14
:103740000346002B01D003F003FB00BF80BD00BF88
:10375000E80801200048004080B500AF194B1A4A24
:103760001A60184B00225A60164B7F229A60154B44
:10377000FF22DA60134B00221A61124B00225A61B9
:10378000104B00229A610F4B0022DA610D4808F0BD
:10379000C3FF0346002B01D003F0DAFA0B4B0022E3
:1037A0009A600A4B00225A60084B00221A60074BAD
:1037B0000122DA60054B01221A61044B22225A6170
:1037C00000BF80BDD80A012000280040300D012034
:1037D00080B500AF164B174A1A60154B01225A608C
:1037E000134B00229A60124B00221A61104B0022E8
:1037F0005A610F4B00229A610D4B4FF4FA42DA6185
:103800000B4B0022DA600A4B4FF480525A62084B8D
:1038100000229A62022302220021054809F00AFCD4
:103820000346002B01D003F093FA00BF80BD00BF18
:10383000FC0A01200454014080B500AF1B4B1C4A18
:103840001A601A4B4FF482725A60184B00229A6029
:10385000164B4FF4E062DA60144B00221A61134BEE
:1038600000225A61114B4FF400729A610F4B1022E3
:10387000DA610E4B00221A620C4B00225A620B4B8B
:1038800000229A62094B0722DA62084B00221A636F
:10389000064B08225A6305480AF059FA0346002BE2
:1038A00001D003F055FA00BF80BD00BFC80B012056
:1038B0000030014080B582B000AF2E4B9B6C2D4A8A
:1038C00043F0020393642B4B9B6C03F002037B6079
:1038D0007B68284B9B6C274A43F001039364254B7C
:1038E0009B6C03F001033B603B68002206210C2027
:1038F00004F072F90C2004F08BF9002206210D204F
:1039000004F06AF90D2004F083F9002205210E204D
:1039100004F062F90E2004F07BF900220621382021
:1039200004F05AF9382004F073F9002206213A20F5
:1039300004F052F93A2004F06BF9002205213B20F3
:1039400004F04AF93B2004F063F9002206214420E8
:1039500004F042F9442004F05BF9002205214520DF
:1039600004F03AF9452004F053F900BF0837BD468A
:1039700080BD00BF0010024080B58AB000AF07F1E3
:10398000140300221A605A609A60DA601A61414B8F
:10399000DB6C404A43F00403D3643E4BDB6C03F022
:1039A00004033B613B693B4BDB6C3A4A43F08003C9
:1039B000D364384BDB6C03F08003FB60FB68354B52
:1039C000DB6C344A43F00103D364324BDB6C03F00D
:1039D0000103BB60BB682F4BDB6C2E4A43F0020334
:1039E000D3642C4BDB6C03F002037B607B6800220A
:1039F000C121294805F006F900224FF404714FF067
:103A0000904005F0FFF8C1237B610123BB610023D7
:103A1000FB6100233B6207F1140319461E4804F0C2
:103A20009DFE10237B610123BB610023FB61032307
:103A30003B6207F1140319464FF0904004F08EFEEC
:103A40004FF400537B614FF40413BB610123FB610E
:103A500007F114031946114804F080FE4FF4007377
:103A60007B610123BB610123FB6102233B6207F100
:103A7000140319464FF0904004F070FE0022062116
:103A8000282004F0A9F8282004F0C2F800BF283745
:103A9000BD4680BD001002400008004800040048F8
:103AA00080B582B000AF0346FB710022402106487A
:103AB00005F0A8F8FB791A468021034805F0A2F822
:103AC00000BF0837BD4680BD0008004880B582B001
:103AD00000AF0346FB71FB791A464021054805F00B
:103AE00091F800228021034805F08CF800BF0837C8
:103AF000BD4680BD0008004880B483B000AF0346D7
:103B0000FB71134B1B88C82B02D14FF0FF3319E018
:103B1000104B1B881946104AFB7953540C4B1B88D9
:103B200001339AB20A4B1A800A4B1B8801339AB2AE
:103B3000084B1A80074B1B88C82B02D1054B00226B
:103B40001A80002318460C37BD465DF8047B704789
:103B50006C0E01206E0E0120A40D012080B582B0F4
:103B600000AF0346FB80282004F060F8FB8803F4D4
:103B70000053002B04D0064B1B68184611F034FC90
:103B80000448FFF757FB00BF0837BD4680BD00BFA4
:103B9000E40C0120B025020880B582B000AF786047
:103BA0000348FFF747FB00BF0837BD4680BD00BF95
:103BB000D025020880B582B000AF7860054B0022A6
:103BC0001A70054B1B68184611F00EFC00BF083731
:103BD000BD4680BD980E0120DC0C012080B582B06E
:103BE00000AF7860054B01221A70054B1B68184620
:103BF00011F0FAFB00BF0837BD4680BD980E0120CA
:103C0000DC0C012080B582B000AF78603A4B1B78A5
:103C1000012B0ED17B68394A934269D1384B1B780E
:103C20001846FFF769FF0122354934480BF07AFD49
:103C30005EE07B68334A93423DD1334B1B78012BC6
:103C400009D1324B1B68324A1288134401221946AB
:103C500078680BF067FD2D4B1A682D4B1B88013BD4
:103C600013441B78242B1FD1284B1A68284B1B8820
:103C7000013B134400221A70254B00221A80234B6B
:103C80001B68244A1360244B1B68204A1360214B95
:103C90001B68214A13601F4B01221A711F4B1B68BE
:103CA000184611F0A1FB23E0194B1B8801339AB28F
:103CB000174B1A801CE07B68104A934218D1184BAE
:103CC0001B88002B04D1174B1B68184611F08CFB86
:103CD000134B1B881A46144B1344012219460748FC
:103CE0000BF020FD0E4B1B8801339AB20C4B1A804F
:103CF00000BF0837BD4680BD9F0D0120E8080120A8
:103D0000A00D0120D8070120880E01201C000020F2
:103D1000E42D0120E82D012020000020FC0C0120D2
:103D2000EA2E0120040D0120F02D012080B582B083
:103D300000AF7860044B1B68184611F055FB00BFBC
:103D40000837BD4680BD00BFE80C012080B582B0B9
:103D500000AF7860044B1B68184611F045FB00BFAC
:103D60000837BD4680BD00BFEC0C012080B58EB089
:103D700000AF00221649174808F0F3FD002216494B
:103D8000144808F0D1FE144B5B78013B7B61124B69
:103D90009B783B61104BDB78FB86FB8E64339BB2D8
:103DA000BB610B4B1B78FB60094B5B78BB60084B1E
:103DB0009B787B603B1D184618F02AFAC7E90A0178
:103DC000D7E90A23104619463837BD4680BD00BFE3
:103DD000180D0120D80A01202C0D012080B500AF5C
:103DE00011480BF07DFD10480BF0E8FC0E480BF07D
:103DF00057FB002206210C2003F0EEFE0C2003F0FE
:103E000007FF002206210D2003F0E6FE0D2003F03F
:103E1000FFFEFFF771FC642012F09CFF0348FFF7E0
:103E200009FA00BF80BD00BFE8080120DC250208B8
:103E300080B483B000AF7860134B1B88002B02D195
:103E40004FF0FF331AE0114B1B881A46104B9A5C57
:103E50007B681A700C4B1B88013B9AB20A4B1A8084
:103E60000A4B1B8801339AB2084B1A80074B1B88F8
:103E7000C82B02D1054B00221A80002318460C37AC
:103E8000BD465DF8047B70476C0E0120700E01206A
:103E9000A40D012080B485B000AFF860B960114670
:103EA0001A460B46FB711346BB71FB68BA689A60F1
:103EB000FB68FA799A71FB68BA79DA7100BF143736
:103EC000BD465DF8047B70472DE9B04388B000AF74
:103ED000F860B9601346FB71FB681B88FA68D279F9
:103EE000934205D12D48FFF7A5F94FF0FF334FE07E
:103EF000FB689B791A46013AFA61DBB200229846C8
:103F000091464FF000024FF000034FEAC90343EA25
:103F100058734FEAC802FB689B791A46013ABA61A6
:103F2000DBB200221C4615464FF000024FF00003A2
:103F3000EB0043EA5473E200FB689B681A46FB6897
:103F40005B881946FB689B7901FB03F313447B6193
:103F50007B69FA791A707B690133FA79B968184676
:103F600019F0FBFBFB681B8801339AB2FB681A80CF
:103F7000FB685B8801339AB2FB685A80FB685B88F8
:103F8000FA68D279934202D1FB6800225A8000235A
:103F900018462037BD46BDE8B08300BFF8250208AB
:103FA0002DE9B04386B000AF786039607B681B882C
:103FB000002B02D14FF0FF335CE07B689B791A46FF
:103FC0007B68DB7902FB03F35A1E7A611A460023F1
:103FD000904699464FF000024FF000034FEAC903A4
:103FE00043EA58734FEAC8027B689B791A467B689C
:103FF000DB7902FB03F35A1E3A611A46002314468A
:104000001D464FF000024FF00003EB0043EA5473EB
:10401000E2007B689B681A467B689B8819467B6830
:104020009B7901FB03F31344FB60FB68591CFB689D
:104030001B781A46386819F090FB7B689B791A4602
:104040000021F86817F0CEFE7B681B88013B9AB20E
:104050007B681A807B689B8801339AB27B689A8060
:104060007B689B887A68D279934202D17B68002270
:104070009A80002318461837BD46BDE8B08300007B
:1040800080B500AFFDF798F903461AB2184B1A80B5
:10409000174BB3F90030002B13DDFDF7C8F90346C9
:1040A0001AB2144B1A80134BB3F900309AB2104B6A
:1040B000B3F900309BB213449BB21AB20E4B1A8074
:1040C00005E00C4B00221A800B4B00221A80084B93
:1040D000B3F900301946074BB3F900301A46064BC6
:1040E000B3F900300548FFF7A5F80023184680BD56
:1040F0007C1001207E10012080100120182602086B
:1041000080B582B000AF7860294BB3F9003041F63A
:10411000FF72934205D12748FFF78CF84FF0FF3329
:1041200041E0FEF7F1FD244BB3F900305B024FF4A0
:10413000ED7219467868FEF7A7FE0346002B05D0FE
:104140001E48FFF777F84FF0FF332CE0FEF70CFE28
:10415000174BB3F900309BB201339BB21AB2144B28
:104160001A80154BB3F900309BB201339BB21AB2DF
:10417000114B1A80104BB3F9003041F6FF72934295
:1041800002D10D4B00221A800D4BB3F900301946B5
:10419000094BB3F900301A46054BB3F90030094812
:1041A000FFF748F8002318460837BD4680BD00BF1A
:1041B0007C10012058260208801001206C2602087D
:1041C0007E1001208426020880B584B000AF78609C
:1041D0000B46FB70344BB3F90030002B05D133484C
:1041E000FFF728F86FF0020359E0314BB3F90030C4
:1041F0005B024FF4ED7219467868FEF7E5FD034661
:10420000002B05D02B48FFF715F84FF0FF3346E0A1
:10421000FB78012B18D1FF23FB73FEF775FD244BB0
:10422000B3F90030590207F10F0301221846FEF7D7
:104230002BFE0346002B05D01F48FEF7FBFF4FF077
:10424000FF332CE0FEF790FD174BB3F900309BB223
:10425000013B9BB21AB2144B1A80154BB3F90030D4
:104260009BB201339BB21AB2114B1A80104BB3F9B7
:10427000003041F6FF72934202D10D4B00221A80AA
:104280000B4BB3F9003019460C4BB3F900301A460A
:10429000054BB3F900300A48FEF7CCFF002318465F
:1042A0001037BD4680BD00BF7C100120C02602082B
:1042B0007E100120E4260208082702088010012051
:1042C0003027020880B584B000AF78600023FB730C
:1042D0004FF4FA6012F03EFD01222F492F480BF0F7
:1042E00021FA0346BB73BB7B002B05D0BB7B194671
:1042F0002B48FEF79FFF48E02A48FEF79BFF3CE073
:10430000294B1B684FF0FF31184611F01BF80A20AB
:1043100012F020FD0023FB7305E0012012F01AFDCE
:10432000FB7B0133FB73214B1B881A461A4B9B5CAA
:104330000D2B09D01D4B1B880133174AD35C0A2B68
:1043400002D0FB7B092BE8D9194B1B78002B08D036
:10435000164B1B88DBB21A460F491648FFF7B4FD0F
:1043600003E00D491448FEF765FFFA2200210A48D0
:1043700017F038FD0D4B00221A80104B5B79012B92
:1043800003D00E4B5B79032BBAD10D48FEF752FFD9
:10439000FFF724FD10F05CFDF02D0120E80801205E
:1043A0006827020888270208040D0120EA2E012050
:1043B000740E01200C2F0120A827020824020120DE
:1043C000C02702082DE9F04389B000AF78607B6810
:1043D000FB740023FB60A848FEF72CFFA74B0122CB
:1043E0001A704FF49670FDF709FD0346002B40F05C
:1043F000D8800A214FF4FA70FDF7AAFD0346002B7E
:1044000040F0D1804FF49670FDF728FE0346002B54
:1044100040F0CB804FF49670FDF7F0FE0346002B82
:1044200040F0C5800023FB6141E0FB69ED2202FB07
:1044300003F3934A1344934AED21184600F03EF9E2
:10444000F860FB7C013BFA699A4201D18E4B00E097
:104450008E4BBB60FB699BB24FF49672B9681846ED
:10446000FDF7A8FF0346002B1ED1142012F072FCAA
:104470004FF49670FEF70EF80346002B14D114206B
:1044800012F068FCFB68FE2B0BD8FB689BB241F274
:10449000883219467B48FEF761F8C82012F05AFCB2
:1044A00002E07B48FEF7C6FEFB690133FB61FB7C43
:1044B000FA699A42B9DB7748FEF7BCFE764B0022D8
:1044C0001A7076494FF000024FF00003C1E9002353
:1044D0004FF47A7012F03EFC0023FB7650E064202B
:1044E00012F038FC6648FDF76BFC6B4B1B78DBB2B7
:1044F000012B42D100233B8339E0684BD3E90023F1
:10450000398BC1F12006A1F1200022FA01F403FA4F
:1045100006F6344323FA00F0044323FA01F504F0CD
:1045200001084FF0000958EA09031DD15C4B1B68D4
:104530006421184610F0F4FD0346002B0FD13B8B8D
:10454000ED2202FB03F34E4A1344ED22194655486F
:10455000FFF7BAFC524B1B68184610F02CFE3B8B41
:1045600019465148FEF766FE3B8B01333B83FB7CCB
:104570009BB23A8B9A42C0D305E0FB7E0133FB76B7
:10458000FB7E592BABD94FF49670FDF7ADFE034679
:10459000002B0ED141F28830FDF7B6FD0346002B0B
:1045A00008E000BF06E000BF04E000BF02E000BF7B
:1045B00000E000BF384B1B78DBB2002B04D1374B37
:1045C000D3E90023134302D0FB7E592B29D90023C2
:1045D000FB821BE0324B1B686421184610F0A0FDE3
:1045E0000346002B0FD1FB8AED2202FB03F3244A82
:1045F0001344ED2219462B48FFF766FC284B1B6835
:10460000184610F0D8FDFB8A0133FB82FB7C9BB27D
:10461000FA8A9A42DED32548FEF70CFE2448FEF7BC
:1046200011F9164B00221A70224B5B79012B01D035
:1046300000F00AF90023BB820DE0BB8AED2202FBE9
:1046400003F30F4A1344ED220021184617F0CAFB6A
:10465000BB8A0133BB82FB7C9BB2BA8A9A42ECD301
:104660001548FEF7E7FD134B5B79022B02D1114B86
:1046700000225A7110F0ECFBE4270208740E0120AE
:10468000108C0120E0CE0120002802080428020836
:10469000082802082C280208700301206803012062
:1046A000D40C0120F42E0120602802088C28020876
:1046B0003402012024020120B028020880B489B00D
:1046C00000AFF860B9607A600023FB610023BB6132
:1046D0002FE0FA68BB6913441B78FB75FB7D032B45
:1046E0000BD0FB7D1A2B08D0FB7D1B2B05D0FB7D4F
:1046F0001C2B02D0FB7D7D2B11D1FB695A1CFA616A
:104700007A6813447D221A70FB695A1CFA617A6830
:104710001344FA7D82F02002D2B21A7006E0FB69DF
:104720005A1CFA617A681344FA7D1A70BB69013326
:10473000BB61BA69BB689A42CBD3FB691846243780
:10474000BD465DF8047B704780B582B000AF0023A2
:104750007B600023FB70344B1B78002B55D0334B10
:1047600004225A71324A0021324810F0DFFA03461F
:10477000314A136001224FF400714FF0904004F071
:1047800041FA40F6AC5012F0E5FA2C4B01221A70B7
:104790004FF49670FDF732FB786007E04FF49670A7
:1047A000FDF72CFB7860FB780133FB707B68002BF6
:1047B00014BF01230023DAB2FB78022B94BF01233C
:1047C0000023DBB21340DBB2002BE7D11B4B0022EE
:1047D0001A707B68002B18D01948FEF72BFD0022B9
:1047E0004FF400714FF0904004F00CFAFFF7F6FA26
:1047F0000E4B03225A71114B00221A704FF4FA70BB
:1048000012F0A8FA4FF0FF330AE00E48FEF712FD4F
:104810004FF4967012F09EFA044B00225A71002356
:1048200018460837BD4680BD730E012024020120C2
:10483000B09A0208C542000888120120740E0120B7
:10484000D0280208F028020880B500AF0F4B1B7873
:10485000002B14D000224FF400714FF0904004F070
:10486000D1F9322012F076FA094B03225A71094B22
:1048700000221A70084B1B68184610F0B5FD074857
:10488000FEF7D8FC0023184680BD00BF730E012040
:1048900024020120740E0120040D01200C290208BD
:1048A00080B5ADF5007D02AF07F5FC73A3F5FA7393
:1048B00018600023A7F8F6310A2012F04BFA41F2F3
:1048C00033631A4693499448FEF7B4FC934B1B6834
:1048D000184610F089FD924B1B684FF0FF311846C7
:1048E00010F030FD8F4B1B686421184610F018FC47
:1048F0000346002B07D18C4B1B68ED2219468B48D1
:10490000FFF7E2FA02E08A48FEF794FC874B1B8827
:10491000A7F8F631834B1B68184610F04CFC834B0C
:104920009B881946814B5B881846B7F9F631814A56
:104930005279009202468048FEF77CFCB7F9F631C6
:104940004F2B00F3E180B7F9F6313B2B7FDD794B3C
:104950005B79032B07D1FFF7F7FE0346002B02D04C
:10496000744B03225A71734B5B79002BB3D1714B9B
:1049700002225A716B4B1B686421184610F0D0FB61
:104980000346002BA7D1B7F9F631322B02DD3223D3
:10499000A7F8F6310023C7F8F0310FE0D7F8F0316F
:1049A000ED2202FB03F3654A134419465F48FFF703
:1049B000F7FAD7F8F0310133C7F8F031B7F9F6312B
:1049C000D7F8F0219A42E9DB564B1B68184610F0E5
:1049D000F2FBB7F9F6315A4A19465A4810F0A6F9CF
:1049E0000346594A1360584B1B68002B7FF473AF82
:1049F000FFF72AFF4B4B1B686421184610F090FB11
:104A00000346002B1FD10023C7F8EC3110E0D7F884
:104A1000EC31ED2202FB03F3484A1344ED22194620
:104A20004248FFF751FAD7F8EC310133C7F8EC31BF
:104A3000B7F9F631D7F8EC219A42E8DB394B1B681D
:104A4000184610F0B8FB4148FEF7F4FB43E7404B33
:104A5000B3F90030002B7FF73EAFB7F9F631352BB5
:104A60003FF739AF334B5B79002B0CBF0123002399
:104A7000DAB2304B5B79032B0CBF01230023DBB28E
:104A80001343DBB2002B3FF426AF314BB3F90030B8
:104A9000042BA8BF04231BB287F8E7310023C7F813
:104AA000E8312AE007F10C0301211846FFF78CFBDF
:104AB0000346002B1CD11B4B1B686421184610F0C9
:104AC0002FFB0346002B13D107F10C03ED221946EF
:104AD0001648FFF7F9F907F10C03ED33ED221946FB
:104AE0001248FFF7F1F90F4B1B68184610F063FBF3
:104AF000D7F8E8310133C7F8E83197F8E731D7F84C
:104B0000E8219A42CEDBE6E6B7F9F631184600F026
:104B100021F8E0E6649B02082C290208000D012020
:104B2000F40C0120D40C012018000020F42E0120E8
:104B30004429020824020120A8290208108C01201F
:104B4000409B0208C543000884120120F82902088E
:104B50007C10012080B5FAB000AF07F5F473A3F51F
:104B6000F273186007F5F473A3F5F27307F5F472A6
:104B7000A2F5F272126822F001021A6007F5F473CE
:104B8000A3F5F2731B685B0887F8E3310023C7F8CD
:104B9000E43124E0184B1B686421184610F0C0FA79
:104BA0000346002B16D107F1080319461348FFF7F7
:104BB000F7F907F10803ED3319461048FFF7F0F94C
:104BC0000D4B1B68184610F0F6FA07F1080318465B
:104BD000FFF796FAD7F8E4310133C7F8E43197F8D4
:104BE000E331D7F8E4219A42D4DB00BF00BF07F5D8
:104BF000F477BD4680BD00BFD40C0120F42E012007
:104C000080B584B000AF78603448FEF713FB002312
:104C10007B81334B1B68184610F0E6FB314B1B6859
:104C20004FF0FF31184610F08DFB2F4B1B686421AD
:104C3000184610F075FA0346002B07D12B4B1B6862
:104C4000ED2219462A48FFF73FF902E02948FEF70E
:104C5000F1FA274B1B887B81234B1B68184610F009
:104C6000AAFA234B9B881946214B5B881A46204B96
:104C70001B882148FEF7DEFAB7F90A30032BCDDD99
:104C8000194B1B686421184610F04AFA0346002BA2
:104C90001FD10023FB600CE0FB68ED2202FB03F355
:104CA000164A134419461248FFF77AF9FB68013394
:104CB000FB60B7F90A30FA689A42EDDB0A4B1B68D1
:104CC000184610F078FAB7F90A301846FFF742FF95
:104CD000A4E70B48FEF7AEFAA0E700BF282A0208B7
:104CE000000D0120F40C0120D40C0120180000203C
:104CF000F42E0120482A0208B02A0208108C012054
:104D0000EC2A0208F0B5ADB006AFF860002387F8D2
:104D10008D300023A7F88A306423A7F88830002359
:104D2000A7F890304FF000024FF00003C7E91E23B0
:104D3000002387F88F30AA4B1B684FF0FF311846CD
:104D400010F000FBA74B1B881946A748FEF772FA24
:104D50001CE0A649A348FFF723F90023C7F89430C5
:104D60000DE0D7F894300133A04AD35C1946A0482F
:104D7000FEF760FAD7F894300133C7F894309B4BB4
:104D80001B781A46D7F894309342EADB954B1B8880
:104D9000002BDED1954B5B78082B19DC002B40F300
:104DA000D981013B072B00F2D58101A252F823F0F3
:104DB000EB4D0008134E0008434E0008274F000833
:104DC0005F4F000865500008355100084951000840
:104DD000FF2B40F0BF81854B1B781946854814F0A6
:104DE0002FF88548FEF726FAB8E1FCF7E5FA034606
:104DF000A7F88A30FFF744F9B7F88A3019467F4898
:104E0000FEF718FA07F18A030221184614F018F881
:104E1000A4E1764B5B88A7F88A3000217848FFF739
:104E2000D3F9B7F88A301946764BB3F900301A46F1
:104E30007548FEF7FFF94FF4ED71714814F000F872
:104E40008CE16A4B5B88A7F88830B7F88830194640
:104E50006E48FEF7EFF96E4B01221A7001226D4980
:104E60006D480AF05FFC034687F88F3097F88F3063
:104E7000002B05D097F88F3019466848FEF7DAF90D
:104E80006748FEF7D7F9002387F893300DE097F8CD
:104E900093300333554AD35C19466248FEF7CAF98A
:104EA00097F89330013387F8933097F893204F4B5E
:104EB0001B78023B9A42EADB5B48FEF7BBF94B4B9F
:104EC0001B78023B9BB21A46584953480AF0AEFB86
:104ED000B7F88830184611F03DFF10E007F18E0357
:104EE0001846FEF7A5FF07F18E030121184613F0BF
:104EF000A7FF97F88E3019464D48FEF79BF94D4BAA
:104F00001B88002BEAD107F18D030121184613F00D
:104F100097FF00BF3E4B00221A70FEF75FFF464826
:104F2000FEF788F91AE1454BD3E90023C7E92023AE
:104F3000D7E920014FF000024FF000030A000023E0
:104F40001146D7E9202313461A463D48FEF772F969
:104F500007F180030821184613F072FFFEE0234B8F
:104F600002331C685D6822462B46C7E91E23D7E939
:104F70001E233448FEF75EF9D7E91E231046194672
:104F800001F00CF8642011F0E5FE2F4B01932F4B3C
:104F900000932F4B2F4A3049304801F0A9F82F4B8E
:104FA0001B681846FBF7E8FA02460B462A490978BF
:104FB0000846284909780E4625490978B9602349E9
:104FC0000988796020490988049179680391B96852
:104FD0000291019600902248FEF72CF9BEE000BF36
:104FE000F80C0120002F0120442B02086C0D012039
:104FF000642B02086D0D0120682B0208782B020833
:10500000841001207C100120882B02089C2B0208B0
:105010009F0D0120A00D0120E8080120B42B0208FB
:10502000D02B0208DC2B0208E02B02086F0D0120B8
:10503000E42B02086C0E0120EC2B020800E00708AC
:10504000082C0208242C02080C0000207C0E0120F1
:105050000E000020730E0120720E0120780E012038
:10506000382C02083E4B9B7887F864303C4BDB7849
:1050700087F865303A4B1B7987F86630384B5B7997
:1050800087F84C30364B9B7987F84F30344BDB79BF
:1050900087F84D30324B1B7A87F84E3007F16403A6
:1050A000012219462F4807F0BFFB07F14C030122EC
:1050B00019462C4807F0B1FC642011F04BFE07F1B3
:1050C000500300221946274807F04BFC07F148031C
:1050D00000221946234807F027FD97F84A309C46DE
:1050E00097F849309E4697F84B30194697F850305C
:1050F0001E4697F85130BB6097F852307B607B6D4D
:10510000BA6D07F11400059204937A680392BB68A4
:1051100002930196009173466246134916F092FD80
:1051200007F1140319461148FEF784F81048FEF7FA
:1051300081F813E0FDF7E8FDFEF74AF8FDF714FEED
:105140000C48FEF777F809E0FDF7FEFC0A48FEF789
:1051500071F803E00948FEF76DF800BFEBE500BF0A
:105160006C0D0120D80A0120702C02089C2C02082A
:10517000A42C0208C42C0208D42C0208E42C020837
:10518000B0B58EB004AF78605548FEF753F8554B74
:105190001B684FF0FF31184610F0D4F8524B1B79C2
:1051A000002B00F09980504B1B681846FCF7BAF9A9
:1051B0004D4B00221A714D4B93F82230002B00F01A
:1051C00084804B4B1B68B3F1FF3F7ED1474B9B6BF9
:1051D000002B7AD007F10C0300221A605A609A6003
:1051E000DA601A610023BB60404B9B697B627B6A7B
:1051F000404AA2FB03235B0BDBB23B737B6A3E4A54
:10520000A2FB03235A093C4BA3FB02135B09642155
:1052100001FB03F3D31ADBB27B737A6A364BA3FB31
:1052200002135B09642101FB03F3D31ADBB2BB73E6
:105230002E4B9B6B3B623B6A2E4AA2FB03235B0B0C
:10524000DBB2BB723B6A2C4AA2FB03235A092A4BEE
:10525000A3FB02135B09642101FB03F3D31ADBB246
:105260007B723A6A244BA3FB02135B09642101FBA6
:1052700003F3D31ADBB2FB7207F1080300221946CD
:105280001E4807F0CAFB0346002B1ED107F10C0392
:1052900000221946194807F0C7FA0346002B14D11B
:1052A000134B01221A60BB7A18467B7A1C46FB7AA4
:1052B0001D463B7B7A7BB97B0291019200932B4682
:1052C000224601460E48FDF7B5FF074B1B681946FD
:1052D0000C48FDF7AFFF5AE70B48FDF7ABFF56E769
:1052E000F82C0208FC0C0120E82D0120C42C012020
:1052F000100000205917B7D11F85EB51D80A0120A3
:10530000042D0208402D0208542D020880B584B0F7
:1053100000AF7860594815F0CBFB0346FB60584B53
:105320001A687B680F3B1344564A12681A60544B44
:105330001A687B680B3B1344534A52691A60FB6836
:10534000190B4F4B1A687B68073B1344CAB21A709B
:10535000FB6819094A4B1A687B68063B1344CAB2BA
:105360001A70FB68DBB21B01D9B2474B93F82330AC
:1053700003F00F03DAB2424B18687B68053B034425
:105380000A43D2B21A70404BD3ED047A3C4B1A68F0
:105390007B68043B1344FCEEE77AC7ED007A3A7869
:1053A000D2B21A70384BD3ED047AF7EE000AB0EEA1
:1053B000670A1CF0FBF9F0EE407A9FED347A67EE55
:1053C000877AFCEEE77A17EE903A190B2C4B1A68A5
:1053D0007B68033B1344CAB21A702B4BD3ED047A9B
:1053E000F7EE000AB0EE670A1CF0E0F9F0EE407A42
:1053F0009FED267A67EE877AFCEEE77A17EE903A11
:1054000019091F4B1A687B68023B1344CAB21A7011
:105410001D4BD3ED047AF7EE000AB0EE670A1CF0DC
:10542000C5F9F0EE407A9FED197A67EE877AFCEEC7
:10543000E77AC7ED007A3B781B01DBB203F00F037C
:10544000DAB2114B93F822305B00DBB203F00E03AB
:10545000DBB21343D9B20E4B1B88DBB203F001035E
:10546000DAB2074B18687B68013B03440A43D2B2A7
:105470001A7000BF1037BD4680BD00BFEC2E012062
:1054800014000020900E0120C42C01200024744937
:105490000C00002090B5A9B004AF87ED030AB860F6
:1054A0000F23C7F88C307E4BB3F90030002B0BDD97
:1054B0007B4BB3F900305A1E13465B001344DA00ED
:1054C00013443033C7F88C30754BB3F90030002BE0
:1054D00003D1D7F88C00FFF719FF724B1B78002B14
:1054E00000F08D836E4BB3F90030002B40F0B48197
:1054F000BB68D3ED007AF7EE000AB0EE670A1CF045
:1055000055F9F0EE407AB2EE047A67EE877AFCEE57
:10551000E77AC7ED017A3B79DBB25BB21B015CB283
:10552000BB680433D3ED007AF7EE000AB0EE670AE9
:105530001CF03CF9F0EE407AB2EE047A67EE877A1E
:10554000FCEEE77AC7ED017A3B79DBB25BB203F0A0
:105550000F035BB2234359B2534B1A68D7F88C3010
:105560001344CAB21A700123C7F888304AE0D7F84A
:105570008830DB00BA681344D3ED007AF7EE000AF6
:10558000B0EE670A1CF012F9F0EE407AB2EE047A3F
:1055900067EE877AFCEEE77AC7ED017A3B79DBB2FA
:1055A0005BB21B015CB2D7F88830DB000433BA6809
:1055B0001344D3ED007AF7EE000AB0EE670A1CF050
:1055C000F5F8F0EE407AB2EE047A67EE877AFCEEF8
:1055D000E77AC7ED017A3B79DBB25BB203F00F03E8
:1055E0005BB2234358B2304B1A68D7F88810D7F80B
:1055F0008C300B441344C2B21A70D7F88830013390
:10560000C7F88830D7F888300A2BB0DDBB6858332C
:10561000D3ED007AF7EE000AB0EE670A1CF0C6F888
:10562000F0EE407AB2EE047A67EE877AFCEEE77A23
:10563000C7ED017A3B79DAB21B4B1968D7F88C3089
:105640000B330B441201D2B21A70174B1A68D7F8F9
:105650008C300B3313441B7823F00F03D9B2BB6893
:10566000D3ED007AFCEEE77AC7ED017A3B79DBB245
:10567000DB08DBB203F00F03DAB20B4B1868D7F884
:105680008C300B3303440A43D2B21A70052387F8D7
:105690008730002387F886300023C7F8803059E030
:1056A0007A1001200E0000201400002097F88620B8
:1056B000D7F8803013449B00BA681344D3ED007AC6
:1056C000FCEEE77AC7ED017A3B79DBB203F07F02AB
:1056D00097F8873002FA03F35AB297F88610D7F892
:1056E00080300B4401339B00B9680B44D3ED007A42
:1056F000FCEEE77AC7ED017A3B79DBB203F07F017C
:1057000097F88730C3F1070341FA03F35BB2134301
:1057100058B2A64B1A68D7F88010D7F88C300B44D3
:105720000C331344C2B21A7097F88730013387F8EC
:10573000873097F88730072B07D9012387F8873000
:1057400097F88630013387F88630D7F880300133F8
:10575000C7F8803097F88620D7F880301344152B8F
:10576000A4DDBB685833D3ED007AFCEEE77AC7EDD1
:10577000017A3B79DAB28D4B1968D7F88C301F3338
:105780000B44D200D2B21A70884B1A68D7F88C300A
:105790001F3313441978D7ED037AFCEEE77AC7ED8F
:1057A000017A3B79DBB21B09DBB203F00703DAB203
:1057B0007E4B1868D7F88C301F3303440A43D2B2AB
:1057C0001A70D7ED037AFCEEE77AC7ED017A3B79E0
:1057D000DBB25BB21B015CB2F7EE000A97ED030A85
:1057E0001BF0E4FFF0EE407AB2EE047A67EE877ABF
:1057F000FCEEE77AC7ED017A3B79DBB25BB203F0EE
:105800000F035BB2234359B2684B1A68D7F88C3048
:1058100020331344CAB21A700023FB6710E0FB6FF9
:105820009B00BA681344D3ED007AFDEEE77A17EED9
:10583000901A5F4AFB6F42F82310FB6F0133FB673E
:10584000FB6F162BEBDDD7ED037AFDEEE77A17EE53
:10585000902A584B1A60D2E1BB68D3ED007AF7EE7C
:10586000000AB0EE670A1BF0A1FFF0EE407AB2EE3C
:10587000047A67EE877AFCEEE77AC7ED017A3B7926
:10588000DBB25BB21B015CB2BB680433D3ED007AC0
:10589000F7EE000AB0EE670A1BF088FFF0EE407AE0
:1058A000B2EE047A67EE877AFCEEE77AC7ED017A0A
:1058B0003B79DBB25BB203F00F035BB2234359B217
:1058C0003A4B1A68D7F88C301344CAB21A700123C5
:1058D000BB6745E0BB6FDB00BA681344D3ED007AC9
:1058E000F7EE000AB0EE670A1BF060FFF0EE407AB8
:1058F000B2EE047A67EE877AFCEEE77AC7ED017ABA
:105900003B79DBB25BB21B015CB2BB6FDB000433E3
:10591000BA681344D3ED007AF7EE000AB0EE670AD6
:105920001BF044FFF0EE407AB2EE047A67EE877A1D
:10593000FCEEE77AC7ED017A3B79DBB25BB203F0AC
:105940000F035BB2234358B2184B1A68B96FD7F8EC
:105950008C300B441344C2B21A70BB6F0133BB6767
:10596000BB6F0A2BB6DDBB685833D3ED007AF7EE78
:10597000000AB0EE670A1BF019FFF0EE407AB2EEB3
:10598000047A67EE877AFCEEE77AC7ED017A3B7915
:10599000DAB2064B1968D7F88C300B330B4412017E
:1059A000D2B21A7000237B6737E000BF14000020DA
:1059B000E4CF012044D001207B6F9B00BA681344E0
:1059C000D3ED007AFDEEE77A17EE901A9A4A7B6FD4
:1059D00052F82330CB1A3B673B6F0F2B01DD0F23AF
:1059E0003B673B6F13F1100F02DA6FF00F033B6759
:1059F0003B6F59B207F110027B6F13440A461A70CD
:105A00008D4A7B6F52F823203B6F1A448A497B6F83
:105A100041F823207B6F01337B677B6F162BCBDD37
:105A2000D7ED037AFDEEE77A17EE902A834B1B68D9
:105A3000D31AFB66FB6E0F2B01DD0F23FB66FB6E9B
:105A400013F1100F02DA6FF00F03FB66FB6E5BB20F
:105A500087F82730794B1A68FB6E1344774A136036
:105A6000D7F88C30DB005C33BB6600237B665DE0DF
:105A700007F110027B6E134493F90030DBB203F0A0
:105A80001F0387F8523004233B6649E097F8522001
:105A90003B6E42FA03F3DBB203F0010387F85130A7
:105AA000BB6EDB08FB64BB6EDBB2DB43DBB203F037
:105AB000070387F84B3097F85130002B14D0604B18
:105AC0001A68FB6C13441B785AB297F84B300121CB
:105AD00001FA03F35BB2134359B2594B1A68FB6CDA
