:020000040800F2
:1000000000800220197D0008E1790008E9790008E4
:10001000F1790008F9790008017A00080000000071
:1000200000000000000000000000000061880108DE
:10003000097A000800000000B18A01088D5001080B
:10004000697D0008697D0008697D0008197A00084B
:10005000697D0008697D0008697D0008697D0008E8
:10006000697D0008697D0008697D0008697D0008D8
:100070002D7A0008417A0008557A0008697D000849
:10008000697D0008697D0008697D0008697D0008B8
:10009000697D0008697D0008697D0008697D0008A8
:1000A000697D0008697D0008697D0008697D000898
:1000B000697D0008697D000800000000697D000876
:1000C000697D0008697D0008697D0008697D000878
:1000D000697D0008697A0008697D00087D7A00085A
:1000E000917A0008557B0008000000000000000025
:1000F0000000000000000000000000000000000000
:1001000000000000697D000800000000697D000813
:10011000697D000800000000A17A000800000000CE
:10012000B57A0008697D0008C97A0008DD7A000800
:10013000697D0008697D0008697D000800000000F5
:10014000697D0008697D0008697D0008F17A000872
:10015000057B0008197B00082D7B0008697D0008DD
:10016000697D0008697D0008417B000800000000EF
:1001700000000000697D0008000000000000000091
:10018000697D0008697D0008697D0008697D0008B7
:04019000697D00087D
:1001A00010B5054C237833B9044B13B10448AFF3B1
:1001B00000800123237010BD080201200000000010
:1001C0001C1F020808B5034B1BB103490348AFF3DA
:1001D000008008BD000000000C0201201C1F020866
:1001E00010F8012B11F8013B012A28BF9A42F7D0E1
:1001F000D01A70470000000000000000000000005E
:1002000001F0FF01102A2BDB10F0070F08D010F8C7
:10021000013B013A8B422DD010F0070F42B3F6D1CB
:10022000F0B441EA012141EA014122F007047FF0E4
:1002300000070023F0E80256083C85EA010586EA3B
:10024000010685FA47F5A3FA87F586FA47F6A5FA77
:1002500087F68EB9EED1F0BC01F0FF0102F0070283
:1002600032B110F8013B013A83EA010313B1F8D12E
:100270000020704701387047002D06BF354603380F
:10028000073815F0010F07D1013015F4807F02BF48
:10029000013015F4C03F0130F0BC0138704700BF99
:1002A000034613F8012B002AFBD1181A01387047B6
:1002B00081F0004102E000BF83F0004330B54FEA17
:1002C00041044FEA430594EA050F08BF90EA020F84
:1002D0001FBF54EA000C55EA020C7FEA645C7FEA17
:1002E000655C00F0E2804FEA5454D4EB5555B8BF3A
:1002F0006D420CDD2C4480EA020281EA030382EAAB
:10030000000083EA010180EA020281EA0303362D3C
:1003100088BF30BD11F0004F4FEA01314FF4801C0F
:100320004CEA113102D0404261EB410113F0004F21
:100330004FEA03334CEA133302D0524263EB4303D8
:1003400094EA050F00F0A780A4F10104D5F1200E76
:100350000DDB02FA0EFC22FA05F2801841F10001D1
:1003600003FA0EF2801843FA05F359410EE0A5F1A5
:1003700020050EF1200E012A03FA0EFC28BF4CF0D6
:10038000020C43FA05F3C01851EBE37101F000458C
:1003900007D54FF0000EDCF1000C7EEB00006EEB99
:1003A0000101B1F5801F1BD3B1F5001F0CD3490823
:1003B0005FEA30004FEA3C0C04F101044FEA44527A
:1003C00012F5800F80F09A80BCF1004F08BF5FEA01
:1003D000500C50F1000041EB045141EA050130BDE1
:1003E0005FEA4C0C404141EB0101013C28BFB1F5F3
:1003F000801FE9D291F0000F04BF01460020B1FA3E
:1004000081F308BF2033A3F10B03B3F120020CDA10
:100410000C3208DD02F1140CC2F10C0201FA0CF0EE
:1004200021FA02F10CE002F11402D8BFC2F1200C53
:1004300001FA02F120FA0CFCDCBF41EA0C01904009
:10044000E41AA2BF01EB0451294330BD6FEA040452
:100450001F3C1CDA0C340EDC04F11404C4F120023D
:1004600020FA04F001FA02F340EA030021FA04F34F
:1004700045EA030130BDC4F10C04C4F1200220FAA6
:1004800002F001FA04F340EA0300294630BD21FAE4
:1004900004F0294630BD94F0000F83F4801306BFAA
:1004A00081F480110134013D4EE77FEA645C18BF9E
:1004B0007FEA655C29D094EA050F08BF90EA020F35
:1004C00005D054EA000C04BF1946104630BD91EA2D
:1004D000030F1EBF0021002030BD5FEA545C05D130
:1004E0004000494128BF41F0004130BD14F580046F
:1004F0003CBF01F5801130BD01F0004545F0FE41E3
:1005000041F470014FF0000030BD7FEA645C1ABF17
:10051000194610467FEA655C1CBF0B46024650EA4E
:10052000013406BF52EA033591EA030F41F400217A
:1005300030BD00BF90F0000F04BF0021704730B500
:100540004FF4806404F132044FF000054FF00001D5
:1005500050E700BF90F0000F04BF0021704730B596
:100560004FF4806404F1320410F0004548BF40426B
:100570004FF000013EE700BF42004FEAE2014FEAC0
:1005800031014FEA02701FBF12F07F4393F07F4F9B
:1005900081F06051704732F07F4208BF704793F09E
:1005A0007F4F04BF41F40021704730B54FF46074B1
:1005B00001F0004521F000411CE700BF50EA0102B4
:1005C00008BF704730B54FF000050AE050EA01025D
:1005D00008BF704730B511F0004502D5404261EBCD
:1005E00041014FF4806404F132045FEA915C3FF40E
:1005F000D8AE4FF003025FEADC0C18BF03325FEAAB
:10060000DC0C18BF033202EBDC02C2F1200300FA5B
:1006100003FC20FA02F001FA03FE40EA0E0021FA80
:1006200002F11444BDE600BF70B54FF0FF0C4CF46E
:10063000E06C1CEA11541DBF1CEA135594EA0C0F20
:1006400095EA0C0F00F0DEF82C4481EA030621EA5B
:100650004C5123EA4C5350EA013518BF52EA033596
:1006600041F4801143F4801338D0A0FB02CE4FF048
:100670000005E1FB02E506F00042E0FB03E54FF078
:100680000006E1FB03569CF0000F18BF4EF0010E70
:10069000A4F1FF04B6F5007F64F5407404D25FEA6C
:1006A0004E0E6D4146EB060642EAC62141EA55511F
:1006B0004FEAC52040EA5E504FEACE2EB4F1FD0C61
:1006C00088BFBCF5E06F1ED8BEF1004F08BF5FEADF
:1006D000500E50F1000041EB045170BD06F0004691
:1006E00046EA010140EA020081EA0301B4EB5C043E
:1006F000C2BFD4EB0C0541EA045170BD41F4801136
:100700004FF0000E013C00F3AB8014F1360FDEBF5A
:10071000002001F0004170BDC4F10004203C35DA36
:100720000C341BDC04F11404C4F1200500FA05F3B9
:1007300020FA04F001FA05F240EA020001F000425A
:1007400021F0004110EBD37021FA04F642EB0601D0
:100750005EEA430E08BF20EAD37070BDC4F10C04FA
:10076000C4F1200500FA04F320FA05F001FA04F2BE
:1007700040EA020001F0004110EBD37041F10001AA
:100780005EEA430E08BF20EAD37070BDC4F12005B5
:1007900000FA05F24EEA020E20FA04F301FA05F21D
:1007A00043EA020321FA04F001F0004121FA04F2C5
:1007B00020EA020000EBD3705EEA430E08BF20EA95
:1007C000D37070BD94F0000F0FD101F000464000CF
:1007D00041EB010111F4801F08BF013CF7D041EA51
:1007E000060195F0000F18BF704703F00046520055
:1007F00043EB030313F4801F08BF013DF7D043EA26
:100800000603704794EA0C0F0CEA135518BF95EADB
:100810000C0F0CD050EA410618BF52EA4306D1D162
:1008200081EA030101F000414FF0000070BD50EA81
:10083000410606BF1046194652EA430619D094EA0B
:100840000C0F02D150EA013613D195EA0C0F05D1F5
:1008500052EA03361CBF104619460AD181EA030149
:1008600001F0004141F0FE4141F470014FF0000001
:1008700070BD41F0FE4141F4780170BD70B54FF09C
:10088000FF0C4CF4E06C1CEA11541DBF1CEA13551C
:1008900094EA0C0F95EA0C0F00F0A7F8A4EB0504FE
:1008A00081EA030E52EA03354FEA013100F08880F5
:1008B0004FEA03334FF0805545EA131343EA1263BE
:1008C0004FEA022245EA111545EA10654FEA002673
:1008D0000EF000419D4208BF964244F1FD0404F52C
:1008E000407402D25B084FEA3202B61A65EB030588
:1008F0005B084FEA32024FF480104FF4002CB6EB45
:10090000020E75EB030E22BFB61A754640EA0C00C4
:100910005B084FEA3202B6EB020E75EB030E22BF04
:10092000B61A754640EA5C005B084FEA3202B6EB45
:10093000020E75EB030E22BFB61A754640EA9C0004
:100940005B084FEA3202B6EB020E75EB030E22BFD4
:10095000B61A754640EADC0055EA060E18D04FEA92
:10096000051545EA16754FEA06164FEAC30343EA32
:1009700052734FEAC2025FEA1C1CC0D111F4801FFF
:100980000BD141EA00014FF000004FF0004CB6E7F8
:1009900011F4801F04BF01430020B4F1FD0C88BF97
:1009A000BCF5E06F3FF6AFAEB5EB030C04BFB6EBA2
:1009B000020C5FEA500C50F1000041EB045170BD95
:1009C0000EF0004E4EEA113114EB5C04C2BFD4EBC2
:1009D0000C0541EA045170BD41F480114FF0000E46
:1009E000013C90E645EA060E8DE60CEA135594EAC2
:1009F0000C0F08BF95EA0C0F3FF43BAF94EA0C0FC5
:100A00000AD150EA01347FF434AF95EA0C0F7FF439
:100A100025AF104619462CE795EA0C0F06D152EA8D
:100A200003353FF4FDAE1046194622E750EA410671
:100A300018BF52EA43067FF4C5AE50EA41047FF482
:100A40000DAF52EA43057FF4EBAE12E74FF0FF3CE7
:100A500006E000BF4FF0010C02E000BF4FF0010CB8
:100A60004DF804CD4FEA410C7FEA6C5C4FEA430C31
:100A700018BF7FEA6C5C1BD001B050EA410C0CBF80
:100A800052EA430C91EA030F02BF90EA020F0020E2
:100A9000704710F1000F91EA030F58BF994208BF49
:100AA00090422CBFD8176FEAE37040F00100704706
:100AB0004FEA410C7FEA6C5C02D150EA013C07D15D
:100AC0004FEA430C7FEA6C5CD6D152EA033CD3D0A8
:100AD0005DF8040B704700BF8446104662468C46A2
:100AE0001946634600E000BF01B5FFF7B7FF0028D5
:100AF00048BF10F1000F01BD4DF808EDFFF7F4FFFE
:100B00000CBF012000205DF808FB00BF4DF808ED88
:100B1000FFF7EAFF34BF012000205DF808FB00BFAB
:100B20004DF808EDFFF7E0FF94BF012000205DF8CD
:100B300008FB00BF4DF808EDFFF7CEFF94BF012082
:100B400000205DF808FB00BF4DF808EDFFF7C4FF7B
:100B500034BF012000205DF808FB00BF4FEA410CC4
:100B60007FEA6C5C02D150EA013C0AD14FEA430CA7
:100B70007FEA6C5C02D152EA033C02D14FF00000E4
:100B800070474FF0010070474FEA410212F5001222
:100B900015D211D56FF47873B3EB625212D94FEAC4
:100BA000C12343F0004343EA505311F0004F23FAAE
:100BB00002F018BF404270474FF00000704750EA03
:100BC000013005D111F0004008BF6FF000407047C0
:100BD0004FF00000704700BF4A0011D212F500121A
:100BE00011D20DD56FF47873B3EB62520ED44FEA85
:100BF000C12343F0004343EA505323FA02F0704705
:100C00004FF00000704750EA013002D14FF0FF3042
:100C100070474FF0000070474FEA4102B2F1E043E5
:100C200024BFB3F5001CDCF1FE5C0DD901F0004CD3
:100C30004FEAC0024CEA5070B2F1004F40EB830023
:100C400008BF20F00100704711F0804F21D113F14F
:100C50003872BCBF01F00040704741F480114FEA88
:100C60005252C2F11802C2F1200C10FA0CF320FA11
:100C700002F018BF40F001004FEAC1234FEAD3232E
:100C800003FA0CFC40EA0C0023FA02F34FEA430398
:100C9000CCE77FEA625307D150EA01331EBF4FF021
:100CA000FE4040F44000704701F0004040F0FE403C
:100CB00040F40000704700BF7BB972B90029BEBF85
:100CC00000204FF0004106E008BF00281CBF6FF075
:100CD00000414FF0FF3000F009BAADF1080C6DE9AA
:100CE00004CE002909DB002B1ADB00F083F8DDF8C5
:100CF00004E0DDE9022304B07047404261EB4101AA
:100D0000002B1BDB00F076F8DDF804E0DDE90223C0
:100D100004B0404261EB4101524263EB4303704730
:100D2000524263EB430300F065F8DDF804E0DDE9CF
:100D3000022304B0404261EB41017047524263EB31
:100D4000430300F057F8DDF804E0DDE9022304B0C6
:100D5000524263EB4303704753B94AB9002908BFB5
:100D600000281CBF4FF0FF314FF0FF3000F0BEB93C
:100D7000ADF1080C6DE904CE00F03CF8DDF804E0BC
:100D8000DDE9022304B0704738B500220023044691
:100D90000D46FFF7BBFE28B920462946BDE838407E
:100DA00000F00AB8204605F1004100F005F8404285
:100DB00061EB410138BD00BFD0B50C4B00220646A7
:100DC0000F46FFF731FCFFF707FF0446FFF7B2FBC2
:100DD000074B0022FFF728FC02460B4630463946F7
:100DE000FFF76AFAFFF7F8FE2146D0BD0000F03D9C
:100DF0000000F0412DE9F047089D8E4604468846E4
:100E0000002B4AD18A42174662D9B2FA82F64EB115
:100E1000C6F1200301FA06F820FA03F3B74043EACB
:100E20000808B4404FEA174E1FFA87FCB8FBFEF1E2
:100E3000230C0EFB118843EA084301FB0CF29A4293
:100E400009D9FB1801F1FF3080F0EA809A4240F2A4
:100E5000E78002393B449A1AA3B2B2FBFEF00EFBC4
:100E6000102243EA024300FB0CFC9C4509D9FB1805
:100E700000F1FF3280F0D6809C4540F2D3803B44A5
:100E8000023840EA0140A3EB0C0300211DB1F340FE
:100E90000022C5E90032BDE8F0878B4205D90DB1CB
:100EA000C5E9000100210846F5E7B3FA83F10029FE
:100EB00046D1734502D3824200F20581841A6EEB5B
:100EC000030201209046002DE5D0C5E90048E2E785
:100ED000002A00F09080B2FA82F6002E40F0A48042
:100EE0008A1A030C4FEA174E80B2BCB20121B2FB42
:100EF000FEFC0EFB1C2243EA024304FB0CF29A4266
:100F000007D9FB180CF1FF3802D29A4200F2E080B8
:100F1000C4469B1AB3FBFEF20EFB123340EA0343B6
:100F200002FB04F49C4207D9FB1802F1FF3002D205
:100F30009C4200F2CA8002461B1B42EA0C40A5E715
:100F4000C1F120068B4022FA06F71F430EFA01F486
:100F500020FA06F32EFA06FE4FEA1749234300FA59
:100F600001F81FFA87FCBEFBF9F01C0C09FB10EE20
:100F700044EA0E4400FB0CFEA64502FA01F209D930
:100F80003C1900F1FF3A80F09C80A64540F2998020
:100F900002383C44A4EB0E041FFA83FEB4FBF9F3C1
:100FA00009FB13444EEA044403FB0CFCA44508D996
:100FB0003C1903F1FF3E80F08280A4457FD9023BBB
:100FC0003C4443EA0040A4EB0C04A0FB02EC644563
:100FD0007346E14662D35FD05DB1B8EB030264EBC8
:100FE000090404FA06F622FA01F31E43CC40C5E9CF
:100FF000006400214FE7B1FBF2FC010C41EA0E4115
:1010000080B240EA01423B4638463C46B846BE46BE
:101010002026B1FBF7F1A2EB080241EA0C4166E79A
:10102000014618E710462CE7C6F120022EFA02F31B
:10103000B740B14020FA02F24FEA174E0A43B3FB21
:10104000FEF8BCB20EFB1833110C41EA034108FB59
:1010500004F9B04089454FEA104380B23ED979186F
:1010600008F1FF3C01D289451FD8A1EB0901B1FB72
:10107000FEF909FB04F80EFB191192B242EA014293
:10108000424529D2BA1809F1FF31C4D24245C2D231
:10109000A9F102013A44BEE7F0459DD2BEEB02033E
:1010A0006CEB070C0138E14696E7A7EB09094944C8
:1010B000A8F1020CB1FBFEF909FB04F8DBE773466B
:1010C0007FE7504666E70846FDE63B44023A33E7D1
:1010D000ACF1020C3B441CE749469CE7A1EB09013B
:1010E000C446B1FBFEF909FB04F8C4E7704700BF32
:1010F00080B586B000AF786039604FF000037B6147
:101100001E4BFB6000233B6118E03B699B007A6843
:10111000134493ED007AD7ED037A67EE277AB0EEA9
:10112000670A20F025FDB0EE407AD7ED057A77EE1C
:10113000877AC7ED057A3B6901333B613B693A68C1
:101140009A42E2D83B6807EE903AF8EE677A97ED5C
:10115000057AC7EE276AB0EE660A00F013F8F0EEE3
:10116000407A9FED077A67EE877AB2EE047A67EEEF
:10117000877AB0EE670A1837BD4680BDE3C86B3E7C
:101180009B209A3E80B586B000AF87ED010AD7ED6F
:10119000017AF0EEE77A07F10C031846B0EE670A21
:1011A0001CF008FD87ED050A224B3B6197ED047AA0
:1011B000D7ED057A67EE277AC7ED047AD7ED047A82
:1011C0009FED1D7A77EEC77AC7ED047A97ED047A22
:1011D000D7ED057A67EE277AC7ED047AD7ED047A62
:1011E0009FED167A77EE877AC7ED047A97ED047A49
:1011F000D7ED057A67EE277AC7ED047AD7ED047A42
:101200009FED0F7A77EEC77AC7ED047AFB6807EE99
:10121000903AF8EEE77A97ED047A77EE277AC7ED01
:10122000047A3B6907EE903AB0EE670A1837BD467C
:1012300080BD00BFA8A19D3FF5CA8340FBB3C0405D
:10124000E09248402DE9704F82B0164604784FEA8C
:101250009308826802F1140E426808324FEA081BB4
:1012600006EB0810019003F003094FEA890A00E039
:1012700031465EED052A1EED043A1EED034A5EED91
:10128000023A5EED014A154652ED026A52ED015AEC
:10129000B8F1000F00F08E8001F1100006F110038C
:1012A000C44610ED047A50ED037A10ED025A50ED69
:1012B000011A22EE872A32EE262A23EE076A63EE0F
:1012C000826A36EE266A36EE256A62EEA76A36EE46
:1012D000266A24EE077A64EE826A37EE267A63EE97
:1012E000276A63EE865A76EEA56A37EE267A62EEB4
:1012F000856A37EE267A64EE277A64EE866A77EEA0
:10130000A67A63EE056A63EE875A76EEA56A77EEF3
:10131000A67A62EEA16A77EEA67A24EE055A64EE0A
:10132000876A35EE265A63EE216A63EEA75A76EE97
:10133000A56A75EE266A24EE215A64EEA75A75EE68
:10134000255A03ED042A03ED036A03ED027A43ED07
:10135000017A10301033BCF1010CA2D15944019B29
:10136000B9F1000F19D001EB0A00B1EC017A62EE7D
:10137000877A77EEA67A63EE076A23EEA76A76EE9F
:10138000866A76EEA56A24EE077A64EEA75A77EEAF
:10139000255AE3EC017A8842E7D145ED026A45ED32
:1013A000015A0EF1140E0832013C7FF461AF02B015
:1013B000BDE8708F3346D3E780B584B000AF00231B
:1013C000FB810023BB8100237B8100233B8122E042
:1013D0003B895902FB1D0122184601F0F9FCFB79FB
:1013E000FF2B05D0FB890133FB810023BB810FE07C
:1013F000FB89002B06D0BB890133BB81BB89032B42
:1014000006D90FE07B8901337B817B89642B08D867
:101410003B8901333B813B8941F6FE729342D7D928
:1014200000E000BFFB8918461037BD4680BD80B57F
:1014300082B000AF00237B710023FB800EE0FB88AD
:1014400059027B1D0122184601F0C2FC7B79FF2B5B
:1014500001D0FB8808E0FB880133FB80FB8841F664
:10146000FE729342EBD9002318460837BD4680BD73
:1014700080B489B000AF87ED030AC7ED020A0346C6
:10148000FB7197ED037ADFED246AC7EE267AFCEE56
:10149000E77A17EE903ABB61BB69642202FB03F363
:1014A00007EE903AF8EE677A97ED037A37EE677AAF
:1014B000D7ED026A9FED196AC6EE867A77EE277A33
:1014C000C7ED057A97ED057ADFED156AC7EE267A46
:1014D000C7ED047ABB6907EE903AF8EE677A97EDAC
:1014E000047A77EE277AC7ED077AFB79532B02D07F
:1014F000FB79572B05D1D7ED077AF1EE677AC7ED67
:10150000077AFB6907EE903AB0EE670A2437BD46CA
:101510005DF8047B704700BF0000C8420050C3471D
:101520000000704280B590B004AF7860814978685F
:101530001AF08EFE38613B69002B00F08D8000238D
:10154000FB623B69BB6237E0BB6A1B782C2B30D156
:10155000FB6A0133FB62FB6A012B0BD1BB6A0133CF
:101560000A220021184619F0B5FD03461A46724BAF
:101570009A611EE0FB6A062B0CD1BB6A01330A227A
:101580000021184619F0A6FD0346DAB26A4B83F82B
:1015900022200EE0FB6A072B0BD1BB6A01330A2223
:1015A0000021184619F096FD0346DAB2624B83F823
:1015B0002320BB6A0133BB62BB6A1B78002B02D0BD
:1015C000FB6A092BC0DD5C4B93F82230002B43D023
:1015D0005A4B03935A4B02935A4B01935A4B009325
:1015E0005A4B554A5A4938691AF066FD524B1B68E6
:1015F00007EE903AF8EE677A4F4B5B6807EE103AC9
:10160000B8EE477A4C4B93F820301846F0EE470A74
:10161000B0EE670AFFF72CFFF0EE407A464BC3EDC1
:10162000047A454B9B6807EE903AF8EE677A424B96
:10163000DB6807EE103AB8EE477A3F4B93F821305B
:101640001846F0EE470AB0EE670AFFF711FFF0EE1A
:10165000407A394BC3ED057A3E4978681AF0F8FDB7
:10166000F860FB68002B60D000237B62FB683B6264
:101670000023FB610023BB6100237B612FE03B6AF9
:101680001B782C2B28D17B6A01337B627B6A022B6F
:1016900009D13B6A01330A220021184619F01AFDCC
:1016A0000346FB6118E07B6A032B09D13B6A0133D7
:1016B0000A220021184619F00DFD0346BB610BE01C
:1016C0007B6A042B08D13B6A01330A2200211846A9
:1016D00019F000FD03467B613B6A01333B623B6AC4
:1016E0001B78002B02D07B6A042BC8DDFB69002B22
:1016F0001BD0BB69002B18D07B69002B15D0FB6970
:1017000042F2107203FB02F2BB69642101FB03F396
:10171000D1187A69104BA3FB02035B09642000FB1C
:1017200003F3D31A0B44044A936300BF3037BD461A
:1017300080BD00BF381F0208D82D0120F92D0120DF
:10174000E42D0120E02D0120F82D0120DC2D0120C9
:10175000401F0208641F02081F85EB51B0B588B016
:1017600000AF0346FB710E4B07F10C041D460FCD75
:101770000FC42B682370FB79012B05D10123BB76A5
:101780002623FB766B233B7707F10C014FF0FF33E9
:10179000112204480EF0C3F800BF2037BD46B0BD8B
:1017A0006C1F0208D8070120B0B588B000AF786080
:1017B000094B07F10C041D460FCD0FC42B682360A5
:1017C00007F10C014FF0FF33142204480EF0A7F884
:1017D00000BF2037BD46B0BD801F0208D8070120DA
:1017E00080B59EB000AF094A3B46114675221846A7
:1017F0001CF0CBF939464FF0FF33752204480EF048
:101800008EF800BF7837BD4680BD00BF941F020828
:10181000D8070120B0B586B000AF0C4B3C461D4642
:101820000FCD0FC495E803002060043421800234FA
:101830000B0C237039464FF0FF33172204480EF08B
:101840006EF800BF1837BD46B0BD00BF0C200208BF
:10185000D807012090B5B1B002AFF8600B467A60AE
:10186000FB72FF2387F8B730FB681B8887F8B63018
:1018700007F12003C7F8A83097F8B630002B00F026
:101880002A82FB7A042B00F2268201A252F823F06E
:101890000F190008891900089B190008911B0008FE
:1018A000D11C0008BC4B1B681946D7F8A8001AF0D9
:1018B000CFFCC7F88800D7F88830002B08D0FB7A17
:1018C000B54A12681946B54801F0B8FC002303E296
:1018D000B34B1B681946D7F8A8001AF0B9FCC7F833
:1018E0008400D7F88430002B08D0FB7AD7F8A820E2
:1018F0001946AC4801F0A2FC0123EDE1FB7AD7F8D0
:10190000A8201946A84801F099FC0223E4E100BF91
:10191000D7F8A810F86802F01BFC0346002BC1D0D2
:10192000D9E17968D7F8A8001AF092FCC7F89000BE
:10193000D7F89030002B07D0FB7A7A681946974881
:1019400001F07CFC0023C7E1954B1B681946D7F8D2
:10195000A8001AF07DFCC7F88C00D7F88C30002B5B
:101960000AD0FB7AD7F8A82019468E4801F066FC09
:10197000012387F8B73007E0FB7A19468A4801F05F
:101980005DFC022387F8B730D7F8A810F86802F09A
:10199000DFFB0346002BC4D09DE1002387F8B53060
:1019A000E4E0D7F8A8300233804918461AF050FC1A
:1019B000C7F8B000D7F8B030002B00F082800023C9
:1019C000A7F8AE30002387F899303FE0B7F8AE3083
:1019D000D7F8A8201344D7F8B020D31A87F8993045
:1019E00097F89930002B0ED097F89930632B0AD8CE
:1019F000B7F8AE30D7F8A820134497F899201946C5
:101A0000F86802F039FB97F899309AB2B7F8AE301F
:101A10001344A7F8AE30B7F8AE3004331C46D7F8FD
:101A2000A800FEF73DFC03469C420CD2B7F8AE304E
:101A30000433D7F8A82013445C4918461AF008FC70
:101A4000C7F8B00002E00023C7F8B030D7F8B030D4
:101A5000002BBBD1D7F8A800FEF722FC03469AB2B0
:101A6000B7F8AE30D31A9BB2043B9BB2A7F89630BE
:101A7000B7F99630002B13DDB7F99630632B0FDCE6
:101A8000B7F8963087F89930B7F8AE300433D7F806
:101A9000A820134497F899201946F86802F0ECFA48
:101AA00064220021D7F8A8001AF0B4FBFB681B8859
:101AB00087F8B630002387F8B730002387F8B530B1
:101AC0004FE07968D7F8A8001AF0C2FBC7F8B00059
:101AD000D7F8B030002B2ED0002387F89B3000239E
:101AE00087F89A307868FEF7DBFB0346DBB20233F7
:101AF000DBB287F89B30D7F8A800FEF7D1FB03468E
:101B000087F89A3097F99B2097F99A30D31A042BCB
:101B100007DD97F99B301A460021D7F8B0001AF07C
:101B200079FBFB7A7A6819461C4801F087FB002391
:101B300087F8B73029E01A4B1B681946D7F8A80078
:101B40001AF086FBC7F8B000D7F8B030002B08D0E9
:101B5000FB7AD7F8A8201946124801F06FFB012341
:101B6000BAE097F8B530013387F8B530D7F8A81048
:101B7000F86802F0EDFA0346002B06D197F8B5207D
:101B800097F8B6309A427FF60CAF97F8B730A3E0DB
:101B9000002387F8B5308BE004000020F82002080D
:101BA00000000020142102083821020858210208F0
:101BB000D7F8A83002334A4918461AF049FBC7F84B
:101BC000A4004849D7F8A8001AF042FBC7F8A400BF
:101BD000D7F8A430002B5CD0FB7A1946424801F0BC
:101BE0002DFB0023FB610023BB6100237B610023ED
:101BF0003B6107F1180107F11C0207F11003019383
:101C000007F1140300930B463849D7F8A4001AF0E3
:101C100053FA0346032B2BDDF969BA697B69344813
:101C200001F00CFB3B69102B22D12C21D7F8A4002A
:101C30001AF0F8FAC7F8A000D7F8A030002B17D098
:101C4000D7F8A0300133C7F89C3010220021D7F814
:101C50009C0019F0DFFA02460B462649C1E9002331
:101C6000254B01221A70D7F89C10244801F0E6FA9F
:101C700064220021D7F8A8001AF0CCFA002387F8D4
:101C8000B730002387F8B530FB681B8887F8B6307B
:101C900009E0FB7AD7F8A8201946194801F0CEFAD6
:101CA000022387F8B73097F8B530013387F8B5309D
:101CB000D7F8A810F86802F04BFA0346002B09D1B8
:101CC00097F8B52097F8B6309A427FF671AF01E0E9
:101CD000002301E000BF03231846BC37BD4690BD7A
:101CE00058210208602102086C2102089021020894
:101CF000C42102086803012070030120F4210208B6
:101D00000022020880B5A0B000AFF860B9607A6028
:101D10003B60FF2387F87F3007F110036422002126
:101D200018461AF077FA34E007F11003B96818463C
:101D30001AF08EFAB867BB6F002B0DD03A6879683D
:101D4000B86F1AF0B9F90346002B22D03968184849
:101D500001F074FA002327E0164B1A6807F110030C
:101D6000114618461AF074FA78677B6F002B07D07B
:101D700007F110031946104801F060FA012313E03F
:101D800007F1100319460D4801F058FA022387F8AD
:101D90007F3007F110031946F86802F0D9F90346BD
:101DA000002BC1D097F97F3018468037BD4680BDE3
:101DB00028220208000000204822020864220208AB
:101DC00080B584B000AF7860084BFB606323FB7282
:101DD000074801F033FA074B1B681A4603210648EF
:101DE000FFF738FD00BF1037BD4680BDCDCC8C3F1E
:101DF00080220208080000205847012080B584B0E6
:101E000000AF0346FB8000211A4800F045FC034662
:101E1000BB730023FB7315E00A2015F0B5F900220F
:101E200000211548FFF716FD0346002B07D1134884
:101E300001F004FA124800F059FE002316E0FB7B83
:101E40000133FB73FB7B9AB2FB880E49A1FB0313A2
:101E5000DB089BB29A42DFD3BB7B19460A4801F0EC
:101E6000EDF9074800F0EEFC4FF0FF33184610374D
:101E7000BD4680BD3835020858470120A02202081F
:101E80002A020120CDCCCCCCB422020890B58BB074
:101E900000AF78600B467B800021254800F0FCFBFA
:101EA000034687F82630234B07F10C040FCB07C4F9
:101EB000238002341B0C23701F4B3B621F4BFB61C2
:101EC000002387F827301FE0142015F05DF907F193
:101ED0000C03FA69396A1A48FFF714FF0346002B0E
:101EE0000DD107F10C0308330622194678681BF060
:101EF0004CFE7968134801F0A1F9002314E097F82B
:101F00002730013387F8273097F827309AB27B883B
:101F10000D49A1FB03131B099BB29A42D4D30B4872
:101F200001F08CF94FF0FF3318462C37BD4690BDB9
:101F30004835020818230208D0220208D8220208D5
:101F400058470120E4220208CDCCCCCC0023020863
:101F500080B586B000AF03460A46FB8013467B710E
:101F60000023FB7554E00021314800F095FB034647
:101F70007B7597F91530002B44DB2E4B3B612E4BC4
:101F8000FB600023BB7533E0322015F0FDF82B4BCE
:101F9000FA6839692A48FFF7B5FE0346002B24D1B9
:101FA000FB7D591C7A79274B93F90230264801F0C2
:101FB00045F9244B93F90230052B04D0214B93F9BA
:101FC0000230012B04D1214800F090FD00232BE0CA
:101FD0001C4B93F90230022B07D11D4801F02EF95A
:101FE0000023BB75322015F0CFF8BB7D0133BB75E4
:101FF000BB7D9AB2FB881749A1FB03131B099BB257
:102000009A42C1D3642015F0BFF8FB7D0133FB7504
:10201000FA7D7B799A42A6D30F4801F00FF90B485D
:1020200000F010FC4FF0FF3318461837BD4680BD56
:102030003C350208682302087023020826020120AA
:102040005847012024020120842302082B0201208A
:10205000A82302081F85EB51CC23020880B584B069
:1020600000AF0346FB80214B1B78012B01D10023DD
:1020700037E000211E4800F00FFB0346BB7397F9C1
:102080000E30002B25DB0023FB7318E00A2015F02F
:102090007BF8002200211748FFF7DCFB0346002BEA
:1020A0000AD1154801F0CAF8104B01221A701348E2
:1020B00000F01CFD002314E0FB7B0133FB73FB7B72
:1020C0009AB2FB880E49A1FB0313DB089BB29A422C
:1020D000DCD30C4801F0B2F8084800F0B3FB4FF035
:1020E000FF3318461037BD4680BD00BF24020120D3
:1020F0005435020858470120E82302082C02012029
:10210000CDCCCCCC0424020880B584B000AF03460B
:10211000FB80304B1B78002B01D1002355E00021C0
:102120002D4800F0B9FA0346BB7397F90E30002B27
:1021300043DB0023FB7336E0C82015F025F8274B5E
:102140001B681A4600212648FFF784FB03467B7371
:1021500097F90D30002B02D0012B0BD01DE0214848
:1021600001F06CF81B4B00221A701F4800F0BEFCF7
:1021700000232AE00021184800F08EFA0346BB73C2
:1021800097F90E30002B08D0184801F057F8164880
:1021900000F058FB4FF0FF3317E0154801F04EF800
:1021A000FB7B0133FB73FB7B9AB2FB881149A1FBDC
:1021B00003139B099BB29A42BED30F4801F03EF82D
:1021C000094800F03FFB4FF0FF3318461037BD467B
:1021D00080BD00BF240201206435020804000020F5
:1021E00058470120202402082D020120382402082B
:1021F000542402081F85EB517824020880B590B062
:1022000000AF0346FB802C4B5B78012B01D10023F0
:102210004EE0294B0022DA70284B1B8807F10C0096
:10222000274A284919F026FF07F10C030021184618
:1022300000F032FA034687F83E30234BBB63234B52
:102240007B63002387F83F301FE00A2014F09CFFD7
:102250001F4B7A6BB96B1F48FFF754FD0346002BE9
:102260000ED1154B93F9033019461B4800F0E6FFD9
:102270001A4800F03BFC104B01225A70002317E073
:1022800097F83F30013387F83F3097F83F309AB2E4
:10229000FB881349A1FB0313DB089BB29A42D4D3FA
:1022A000104800F0CBFF0D4800F0CCFA4FF0FF33A0
:1022B00018464037BD4680BD2402012030A00208E8
:1022C00020A0020894240208AC240208B8240208C2
:1022D0002702012058470120C82402082E020120AD
:1022E000CDCCCCCCEC24020880B58EB000AF034638
:1022F000FB80284B5B78002B01D1002346E0254B67
:1023000093F903301A4607F10C032349184619F0D4
:10231000B1FE07F10C030021184600F0BDF9034699
:1023200087F83630002387F837301CE0142014F08B
:102330002BFF1A4B1B681A4600211948FFF78AFA2F
:102340000346002B0AD1174800F078FF114B0022FA
:102350005A70154800F0CAFB002317E097F8373091
:10236000013387F8373097F837309AB2FB880F4936
:10237000A1FB03131B099BB29A42D7D30C4800F070
:102380005DFF094800F05EFA4FF0FF33184638371A
:10239000BD4680BD2402012008250208040000205B
:1023A000584701201C2502082F020120CDCCCCCC9F
:1023B0003425020890B591B002AF03463960FB8026
:1023C0001346BB802A4B93F903301C46FA8801233D
:1023D000194607F10C003B68019300911346224611
:1023E000244919F047FE07F10C030021184600F0BC
:1023F00053F9034687F83630002387F837301CE05E
:102400000A2014F0C1FE1C4B1B681A4600211B4811
:10241000FFF720FA0346002B0AD107F10C031946F7
:10242000174800F00BFF174800F060FB00231AE08C
:1024300097F83730013387F8373097F837309AB24A
:10244000BB881149A1FB0313DB089BB29A42D7D387
:102450000E4800F0F3FE0E4800F0F0FE094800F0D0
:10246000F1F94FF0FF3318463C37BD4690BD00BF31
:1024700024020120502502080400002058470120B2
:102480006C25020830020120CDCCCCCC842502087A
:10249000A425020880B590B002AF0346FB80264B0E
:1024A00093F903301A4607F10C00244B01930B23D8
:1024B00000930123224919F0DDFD07F10C030021EF
:1024C000184600F0E9F8034687F83630002387F80D
:1024D000373019E00A2014F057FE1A4B1B681A46D1
:1024E00000211948FFF7B6F90346002B07D117481A
:1024F00000F0A4FE164800F0F9FA002317E097F860
:102500003730013387F8373097F837309AB2FB8885
:102510001049A1FB0313DB089BB29A42DAD30E48A1
:1025200000F08CFE0A4800F08DF94FF0FF3318469A
:102530003837BD4680BD00BF240201201435020893
:10254000C02502080400002058470120E0250208A9
:1025500031020120CDCCCCCCFC25020880B5A0B046
:1025600002AF78600B467B8013463B803E4B93F96D
:1025700003301A467B8807F10C0001933B4B009314
:102580003B4B3C4919F076FD07F10C03002118463E
:1025900000F082F8034687F87530374B3B6700231D
:1025A00087F8773049E00A2014F0EEFD3A6F0221F7
:1025B0003248FFF74FF90346002B39D1304800F07D
:1025C0003DFE0A2014F0E0FD7B88DBB219467868F6
:1025D00000F062F8034687F8753097F8773087F88F
:1025E000763019E0274B1B681A4600212348FFF775
:1025F00031F90346002B07D1234800F01FFE234882
:1026000000F074FA00232BE00A2014F0BDFD97F8C7
:102610007630013387F8763097F876309AB23B8877
:102620001B49A1FB0313DB089BB29A42DAD30FE0EC
:1026300097F87730013387F8773097F877309AB288
:102640003B881349A1FB0313DB089BB29A42AAD330
:10265000104800F0F3FD0D4800F0F4F84FF0FF33A0
:1026600018467837BD4680BD240201204026020866
:102670009426020898260208B82602085847012026
:10268000BC26020804000020D426020832020120E1
:10269000CDCCCCCCF026020880B584B000AF7860F9
:1026A0000B46FB700023BB73FB78002B05D17868C9
:1026B000FDF7F6FD0346FB7301E0FB78FB73FB7B44
:1026C0009BB21A4679680A480DF0B2F90346BB730B
:1026D000BB7B002B07D0BB7B1946064800F0AEFD44
:1026E0004FF0FF3300E0002318461037BD4680BD91
:1026F000E80801201027020880B588B000AFF86014
:102700007A601A460B46FB7213463B810023FB7628
:102710000023FB770023BB7700237B7700237B61BB
:10272000FB7A002B05D1F868FDF7BAFD03463B772D
:1027300001E0FB7A3B7701223B493C480DF0F4F97C
:102740000346FB76FB7E002B06D0FB7E19463848FD
:1027500000F074FD002362E03B7F9BB21A46F968EB
:1027600032480DF065F90346FB76FB7E002B06D060
:10277000FB7E19462F4800F061FD00234FE02E4BF1
:102780001B683A891146184612F0F6FF78617B699A
:10279000002B3FD1244AF968284800F04FFD32E071
:1027A000FB7F214AD35C0D2B18D1BB7F002B0BD0B4
:1027B0007B7F642202FB03F37A681A44BB7F00210B
:1027C000D1547B7F01337B770023BB77FB7F0133C1
:1027D000FB77FB7F144A0021D1540DE0F97F7B7F0A
:1027E000642202FB03F37A681A44BB7F0E48415C03
:1027F000D154BB7F0133BB77FB7F0B4A0021D154FF
:10280000FB7F0133FB77FB7F074AD35C002BC7D1EB
:102810007B7F04E079690A4800F010FD0023184628
:102820002037BD4680BD00BF3C460120E80801209E
:102830001C27020810270208F00C01202827020894
:102840003827020880B582B000AF78607B681B78BB
:102850000133DAB27B681A707B681B7819468E48A0
:1028600000F0ECFC7B681B78042B8CBF0123002359
:10287000DBB218467B68894A93420CBF01230023D0
:10288000DAB27B6886498B420CBF01230023DBB29E
:102890001343DBB219467B68824A93420CBF012383
:1028A0000023DBB20B437A687F498A420CBF0122C6
:1028B0000022D2B213437A687C498A420CBF0122BB
:1028C0000022D2B213437A6879498A420CBF0122AE
:1028D0000022D2B213437A6876498A420CBF0122A1
:1028E0000022D2B213437A6873498A420CBF012294
:1028F0000022D2B213430340002B08D06F4800F0EF
:102900009DFC00F001F900F01FF901F03FFB7B682E
:102910001B78012B8CBF01230023DBB218467B6898
:10292000674A93420CBF01230023DAB27B686549F2
:102930008B420CBF01230023DBB21343DBB2034005
:10294000002B2DD07B681B78032B0DD87B681B7860
:1029500019465D4800F072FC5C4B1B684EF6602126
:10296000184612F043FD0BE07B681B781946584867
:1029700000F064FC554B1B685649184612F036FDB2
:1029800000224FF400714FF0904006F03DFB524B97
:1029900001225A71514B1B68184612F03FFF77E035
:1029A0007B681B78012B8CBF01230023DAB27B6884
:1029B0004B498B420CBF01230023DBB21340DBB237
:1029C000002B65D0444B93F90230002B0CBF012340
:1029D0000023DAB2404B93F90230032B0CBF0123E2
:1029E0000023DBB21343DBB21A463B4B93F90230B0
:1029F000042B0CBF01230023DBB21343364A92F9A8
:102A00000220022A0CBF01220022D2B21343324A12
:102A100092F90220052ACCBF01220022D2B2134330
:102A2000002B28D02C4B1B791A461346DB009B1A2F
:102A30002C4A1344184600F0B9F8274B1B79013390
:102A4000DAB2254B1A71244B1B79022B02D9224B87
:102A500000221A71244800F0F1FB1F4B01225A7129
:102A60000A2014F091FB194B1B684EF660211846A2
:102A700012F0BCFC0AE0184B93F90230B3F1FF3FAF
:102A800004D10E4800F0DAFB00F05EF800F03CF8EC
:102A90000837BD4680BD00BF482702082A02012032
:102AA00030020120310201202C0201202E020120DF
:102AB0002F0201202D02012033020120602702088D
:102AC000320201203402012074270208D00C0120B8
:102AD000A0270208C027090024020120040D0120BC
:102AE0002B02012020350208CC27020880B483B0D5
:102AF00000AF78607B6800221A7000BF0C37BD46BB
:102B00005DF8047B7047000080B500AF0C4B0022DD
:102B10009A710B4B0022DA71094B00221A73084B91
:102B200000229A72064B00225A73054B00229A73B8
:102B3000034B00221A72034800F080FB00BF80BDE7
:102B4000240201200428020880B500AF154B0022A2
:102B50009A70144B00225A70124B00221A70114BBB
:102B60006322DA700F4B00221A710E4B03225A7146
:102B700000224FF400714FF0904006F045FA6420B7
:102B800014F002FB01224FF400714FF0904006F068
:102B90003BFA054800F052FB642014F0F5FA00BF40
:102BA00080BD00BF240201201828020880B59EB015
:102BB00000AF786007F10C037A681B49184619F0DA
:102BC00059FA07F10C031946184800F037FB07F1D2
:102BD0000C004FF47A73164A0021FFF78DFD03466F
:102BE00087F8733097F87330002B17D000237B677A
:102BF0000DE07B6F642202FB03F30D4A13441A4677
:102C0000796F0C4800F01AFB7B6F01337B6797F8F4
:102C100073307A6F9A42ECDB002301E04FF0FF3310
:102C200018467837BD4680BD542802086828020837
:102C3000380201207028020880B483B000AF7860A9
:102C400000BF0C37BD465DF8047B704780B500AF10
:102C5000012210214FF0904006F0D6F900BF80BD50
:102C600080B500AF002210214FF0904006F0CCF963
:102C700000BF80BD80B582B000AF204B05221A7026
:102C8000FFF7EEFF01221D491D480BF07BFC0346B8
:102C9000FB711C4B1B684FF0FF31184612F06CFDA6
:102CA000FB79002B01D004F029FA174B01221A708E
:102CB00017E00122144912480BF052FD0346FB7144
:102CC000124B1B684FF0FF31184612F055FD0520DE
:102CD00014F05AFAFB79002B03D0FFF7B7FF04F08A
:102CE0000DFA094B1B7803F00103002BE1D1FFF72C
:102CF000ADFF00BF0837BD4680BD00BF7403012093
:102D0000C80B0120E80C0120D8050120EC0C0120A3
:102D100080B582B000AF0023FB7000237B60FFF71B
:102D20009FFF104B06221A7001220E490E480BF02D
:102D300029FC0346FB700D4B1B684FF0FF31184612
:102D400012F01AFDFFF782FFFB78002B03D04FF043
:102D5000FF337B6001E000237B607B681846083707
:102D6000BD4680BD74030120C80B0120E80C012082
:102D700080B582B000AF0023FB7000237B60FFF7BB
:102D80006FFF114B04221A704FF6FF7301220E4998
:102D90000E480BF081FA0346FB70FFF757FF40F235
:102DA00062220021084819F035FAFB78002B03D085
:102DB0004FF0FF337B6001E000237B607B681846A7
:102DC0000837BD4680BD00BF74030120C80B012039
:102DD00080B586B000AFF860B9607A600023FB75FB
:102DE00000233B61264B03221A70BB681B0CDAB22E
:102DF000234B5A70BB681B0ADAB2214B9A70BB682E
:102E0000DAB21F4BDA70FFF72BFF04221C491D4872
:102E10000BF0B8FB0346FB751B4B1B684FF0FF31F3
:102E2000184612F0A9FCFB7D002B02D0FFF70EFF25
:102E300011E07B689BB21A46F96812480BF090FCCF
:102E40000346FB75114B1B684FF0FF31184612F01B
:102E500093FCFFF7FBFE40F262220021084819F0C4
:102E6000D9F9FB7D002B03D04FF0FF333B6101E02C
:102E700000233B613B6918461837BD4680BD00BF43
:102E800074030120C80B0120E80C0120EC0C012088
:102E900080B58EB000AFF860B9607A60002387F823
:102EA000373000233B63BB68FB627B68FB61002318
:102EB000BB6200237B62FB6A002B42D19F4B022244
:102EC0001A70FB6A1B0CDAB29C4B5A70FB6A1B0A25
:102ED000DAB29A4B9A70FB6ADAB2984BDA70002336
:102EE000BB620AE0FA68BB6A1A44BB6A0433117811
:102EF000924AD154BB6A0133BB62BA6AFB699A42F7
:102F0000F0D3FFF7ADFEFB699BB204339BB21A46C8
:102F10008A498B480BF036FB034687F83730894BDC
:102F20001B684FF0FF31184612F026FCFFF78EFEAB
:102F3000FFF7A0FE40F262220021804819F06AF9F2
:102F400037E1FB6A5B0ABB61FA6AFB6913445B0AFF
:102F50007B61BA697B699A423BD1784B02221A7035
:102F6000FB6A1B0CDAB2754B5A70FB6A1B0ADAB2A9
:102F7000724B9A70FB6ADAB2704BDA700023BB6254
:102F80000AE0FA68BB6A1A44BB6A043311786B4AD8
:102F9000D154BB6A0133BB62BA6AFB699A42F0D36F
:102FA000FFF75EFEFB699BB204339AB24FF6FF73E4
:102FB000624963480BF070F9034687F83730FFF732
:102FC00045FEFFF757FE40F2622200215B4819F0F0
:102FD00021F97A69BB699A4240F2EB80BB693B6296
:102FE000E2E03A6ABB699A4249D13B6A01335A022C
:102FF000BB68D31AFB61514B02221A70FB6A1B0C8F
:10300000DAB24E4B5A70FB6A1B0ADAB24B4B9A701B
:10301000FB6ADAB2494BDA700023BB620DE0FA6852
:103020007B6A1A44BB6A04331178444AD1547B6AE0
:1030300001337B62BB6A0133BB62BA6AFB699A42A5
:10304000EDD3FFF70DFEFB699BB204339AB24FF646
:10305000FF733A493A480BF01FF9034687F83730B7
:10306000FFF7F4FDFFF706FE40F26222002133482D
:1030700019F0D0F8FA6AFB691344FB6291E03A6AEE
:103080007B699A4245D1BA687B681344C3F308034D
:10309000FB612A4B02221A70FB6A1B0CDAB2274B27
:1030A0005A70FB6A1B0ADAB2244B9A70FB6ADAB2D6
:1030B000224BDA700023BB620DE0FA687B6A1A4487
:1030C000BB6A043311781D4AD1547B6A01337B6299
:1030D000BB6A0133BB62BA6AFB699A42EDD3FFF760
:1030E000BFFDFB699BB204339AB24FF6FF731349DD
:1030F00013480BF0D1F8034687F83730FFF7A6FDE9
:10310000FFF7B8FD40F2622200210C4819F082F866
:1031100047E00A4B02221A70FB6A1B0CDAB2074B1B
:103120005A70FB6A1B0ADAB2044B9A70FB6ADAB275
:10313000024BDA700023BB6214E000BF740301206D
:10314000C80B0120E80C0120FA687B6A1A44BB6AAC
:10315000043311781E4AD1547B6A01337B62BB6A07
:103160000133BB62BB6AB3F5007FEDD3FFF778FD97
:103170004FF6FF734FF40172154916480BF08CF8A7
:10318000034687F83730FFF761FDFFF773FD40F224
:10319000622200210E4819F03DF8FB6A03F5007326
:1031A000FB623B6A01333B623A6A7B699A427FF673
:1031B00018AF97F83730002B03D04FF0FF333B6345
:1031C00001E000233B633B6B18463837BD4680BDAA
:1031D00074030120C80B012080B582B000AF00232A
:1031E000FB7000237B60134BC7221A70FFF738FD7A
:1031F0004FF6FF7301220F490F480BF04DF80346BD
:10320000FB70FFF723FDFFF735FD40F2622200213E
:10321000084818F0FFFFFB78002B03D04FF0FF3376
:103220007B6001E000237B607B6818460837BD4661
:1032300080BD00BF74030120C80B01200FB480B50E
:10324000C2B000AF11F060FF0346022B2AD1284B19
:103250001B684FF0FF31184612F07CF90346002B33
:103260003DD107F58A73C7F80031D7F80031D7F898
:1032700010214FF480711F4818F0BEFF1D48FDF764
:103280000FF80346C7F80431D7F804319AB2052382
:10329000184919480CF043FB154B1B68184612F0EF
:1032A000A4F91CE007F58A73C7F800313846D7F84F
:1032B0000031D7F810214FF4807118F09DFF3B4684
:1032C0001846FCF7EDFF0346C7F80431D7F8043180
:1032D0009AB239464FF47A7307480CF020FB00BFCE
:1032E00007F58477BD46BDE8804004B0704700BF55
:1032F0001C0D0120240D01206008012080B483B042
:1033000000AF786000BF0C37BD465DF8047B7047A6
:1033100080B582B000AF04F028FDF1EE103A7B607A
:103320007B6843F080737B607B683B603B68E1EEC9
:10333000103A00BF00F06EF900F074FB642004F056
:103340004DFD7E4B5B687D4A43F0100353604FF4A4
:10335000FA7004F043FD794B5B6903F48053B3F5D5
:10336000805F17D07648FFF769FF03F09FF800F001
:1033700059FB00F0F5FA00F0B1F900F043FA00F063
:103380007DFA00F0DFF900F0ADFA00F00BFA15F06D
:1033900043FE1AE06B48FFF751FF684B5B68674AD2
:1033A00023F01003536003F01DF800F03BFB00F026
:1033B000D7FA00F093F900F025FA00F05FFA00F078
:1033C000C1F900F08FFA00F0EDF911F079FE5E48D6
:1033D00012F03AF803465D4A13605D4812F034F883
:1033E00003465C4A13605C4812F02EF803465B4AC1
:1033F00013605B4A0021012012F034F90346594A58
:103400001360594A0021012012F02CF90346574A53
:103410001360574A0021012012F024F90346554A4F
:103420001360554A0021012012F01CF90346534A4B
:103430001360534A0021012012F014F90346514A47
:103440001360514A0021012012F00CF903464F4A43
:1034500013604F4A0021012012F004F903464D4A3F
:1034600013604D4A0021012012F0FCF803464B4A3C
:1034700013604B4A0021012012F0F4F80346494A38
:103480001360494A0021012012F0ECF80346474A34
:103490001360474A0121012012F0E4F80346454A2F
:1034A0001360454A00210A2012F0DCF80346434A23
:1034B0001360434A0021012012F0D4F80346414A28
:1034C0001360414B00220021404811F013FF0346D6
:1034D0003F4A13603F4A01211E2012F0E3F90346E0
:1034E0003D4A13603D4A0121282012F0DBF90346D2
:1034F0003B4A13603B4A00213B4811F04DFE034616
:103500003A4A13603A4A00213A4811F045FE034610
:10351000394A1360394A0021394811F03DFE03460B
:10352000384A1360384A0021384811F035FE034606
:10353000374A136011F00AFE00BFFDE7007000403B
:10354000F4290208002A02086C9E0208D40C01200B
:103550007C9E0208D80C012000A002081C0D01204E
:103560008C9E0208DC0C01209C9E0208E00C0120CD
:10357000AC9E0208E40C0120BC9E0208E80C01206D
:10358000CC9E0208EC0C0120DC9E0208F00C01200D
:10359000EC9E0208F40C0120FC9E0208F80C0120AD
:1035A0000C9F0208FC0C01201C9F0208000D01204A
:1035B0002C9F0208040D01203C9F0208080D0120E9
:1035C00010A00208200D01205C9E020891700008E6
:1035D000D00C01202C9E0208C80C0120449E020839
:1035E000CC0C0120C09D020831660008BC0C0120F3
:1035F000E49D0208C1680008C00C0120089E020872
:10360000816F0008C40C0120B89F0208E152000835
:10361000180D012080B596B000AF07F114034422C5
:103620000021184618F0F6FD3B4600221A605A6049
:103630009A60DA601A614FF4007007F071FA03467D
:10364000002B01D003F05AFD07F04CFA224BD3F8BF
:103650009030214A23F01803C2F8903027237B6171
:103660004FF48033BB610123FB614FF480733B62F5
:103670000123BB6340237B620223FB6303233B6480
:1036800002237B641323BB641323FB6408233B6581
:1036900002237B6507F11403184607F0A7FA0346D7
:1036A000002B01D003F02AFD0F233B6002237B6037
:1036B0000023BB600023FB6000233B613B460121EC
:1036C000184607F0ABFE0346002B01D003F016FDB1
:1036D00000BF5837BD4680BD0010024080B500AF26
:1036E000164B174A1A60154B4FF416525A60134B7B
:1036F00000229A60114B0022DA60104B00221A61FE
:103700000E4B0C225A610D4B00229A610B4B00228A
:103710001A620A4B40225A62084B4FF480121A6414
:10372000064B00225A6405480CF06EF80346002B45
:1037300001D003F0E3FC00BF80BD00BFD80701202B
:103740000080004080B500AF134B144A1A60124B42
:10375000134A5A60104B00229A600F4B0022DA6025
:103760000D4B00221A610C4B0C225A610A4B0022AD
:103770009A61094B0022DA61074B00221A62064B5C
:1037800000225A6204480CF03FF80346002B01D097
:1037900003F0B4FC00BF80BD600801200038014088
:1037A000801A060080B500AF144B154A1A60134BFF
:1037B0004FF4E1325A60114B00229A600F4B002205
:1037C000DA600E4B00221A610C4B0C225A610B4B33
:1037D00000229A61094B0022DA61084B00221A622A
:1037E000064B00225A6205480CF00EF80346002BE7
:1037F00001D003F083FC00BF80BD00BFE8080120BA
:103800000048004080B500AF194B1A4A1A60184BA7
:1038100000225A60164B7F229A60154BFF22DA6015
:10382000134B00221A61124B00225A61104B0022E6
:103830009A610F4B0022DA610D4809F06FF90346D7
:10384000002B01D003F05AFC0B4B00229A600A4B6C
:1038500000225A60084B00221A60074B0122DA60EE
:10386000054B01221A61044B22225A6100BF80BD20
:10387000D80A0120002800403C0E012080B500AF8E
:10388000164B174A1A60154B01225A60134B00223F
:103890009A60124B00221A61104B00225A610F4BA2
:1038A00000229A610D4B4FF4FA42DA610B4B002271
:1038B000DA600A4B4FF480525A62084B00229A6237
:1038C000022302220021054809F0B6FD0346002B21
:1038D00001D003F013FC00BF80BD00BFFC0A012033
:1038E0000454014080B500AF1B4B1C4A1A601A4BB0
:1038F0004FF482725A60184B00229A60164B4FF4B4
:10390000E062DA60144B00221A61134B00225A6104
:10391000114B4FF400729A610F4B1022DA610E4B7B
:1039200000221A620C4B00225A620B4B00229A6250
:10393000094B0722DA62084B00221A63064B082261
:103940005A6305480AF005FC0346002B01D003F03A
:10395000D5FB00BF80BD00BFC80B01200030014077
:1039600080B582B000AF2E4B9B6C2D4A43F0020312
:1039700093642B4B9B6C03F002037B607B68284BAA
:103980009B6C274A43F001039364254B9B6C03F027
:1039900001033B603B68002205210C2004F01EFB64
:1039A0000C2004F037FB002205210D2004F016FB4B
:1039B0000D2004F02FFB002205210E2004F00EFB49
:1039C0000E2004F027FB00220621382004F006FB1D
:1039D000382004F01FFB002206213A2004F0FEFAF2
:1039E0003A2004F017FB002205213B2004F0F6FAF0
:1039F0003B2004F00FFB00220621442004F0EEFAE5
:103A0000442004F007FB00220621452004F0E6FADA
:103A1000452004F0FFFA00BF0837BD4680BD00BF57
:103A20000010024080B58AB000AF07F114030022F5
:103A30001A605A609A60DA601A61414BDB6C404A46
:103A400043F00403D3643E4BDB6C03F004033B619F
:103A50003B693B4BDB6C3A4A43F08003D364384B01
:103A6000DB6C03F08003FB60FB68354BDB6C344A96
:103A700043F00103D364324BDB6C03F00103BB6002
:103A8000BB682F4BDB6C2E4A43F00203D3642C4BF4
:103A9000DB6C03F002037B607B680022C1212948B4
:103AA00005F0B2FA00224FF404714FF0904005F097
:103AB000ABFAC1237B610123BB610023FB610023BF
:103AC0003B6207F1140319461E4805F049F810231C
:103AD0007B610123BB610023FB6103233B6207F190
:103AE000140319464FF0904005F03AF84FF4005394
:103AF0007B614FF40413BB610123FB6107F11403E5
:103B00001946114805F02CF84FF400737B6101232E
:103B1000BB610123FB6102233B6207F114031946D9
:103B20004FF0904005F01CF800220621282004F0F8
:103B300055FA282004F06EFA00BF2837BD4680BD34
:103B400000100240000800480004004880B582B020
:103B500000AF0346FB7100224021064805F054FAED
:103B6000FB791A468021034805F04EFA00BF08375A
:103B7000BD4680BD0008004880B582B000AF034656
:103B8000FB71FB791A464021054805F03DFA0022F9
:103B90008021034805F038FA00BF0837BD4680BDD4
:103BA0000008004880B483B000AF0346FB71134B9C
:103BB0001B88C82B02D14FF0FF3319E0104B1B8834
:103BC0001946104AFB7953540C4B1B8801339AB2A7
:103BD0000A4B1A800A4B1B8801339AB2084B1A8091
:103BE000074B1B88C82B02D1054B00221A800023EB
:103BF00018460C37BD465DF8047B7047780F0120EE
:103C00007A0F0120B00E012080B582B000AF0346CC
:103C1000FB80282004F00CFAFB8803F40053002BEF
:103C200004D0064B1B68184611F0F8FD0448FFF756
:103C300005FB00BF0837BD4680BD00BFE40C012076
:103C40000C2A020880B582B000AF78600348FFF705
:103C5000F5FA00BF0837BD4680BD00BF2C2A020818
:103C600080B582B000AF7860054B00221A70054B1A
:103C70001B68184611F0D2FD00BF0837BD4680BD55
:103C8000A80F0120080D012080B582B000AF786038
:103C9000054B01221A70054B1B68184611F0BEFD3A
:103CA00000BF0837BD4680BDA80F0120080D0120C8
:103CB00080B584B000AF78600B467B807B681B6862
:103CC0005C4A934240F0B1800023FB810023BB811A
:103CD000594B1B887A889A4205D9574B1B887A889A
:103CE000D31AFB810CE0544B1B887A889A4207D286
:103CF000514B1B887A88D31A9BB203F50063FB8172
:103D0000FB89002B00F091804C4B1B881A46FB89E5
:103D10001344B3F5006F05DB484B1B88C3F5FF6305
:103D20000733FB81444B1B887A889A420ED9444B57
:103D30001B68424A128813443F4A12881146414A7E
:103D40001144FA89184619F020FF2BE03A4B1B88E2
:103D5000C3F50063BB81BA89FB899A4201D9FB890B
:103D6000BB81374B1B68354A12881344324A12888C
:103D70001146344A1144BA89184619F006FFFA89E7
:103D8000BB899A420ED92E4B1B682C4A12881146C9
:103D9000BA890A449818FA89BB89D31A1A4629495C
:103DA00019F0F3FE254B1A88FB8913449AB2234B72
:103DB0001A80214A7B881380214B1B681F4A128876
:103DC000134400221A701D4B1B88002B08D01C4B7B
:103DD0001A681A4B1B88013B13441B780A2B05D029
:103DE000164B1B8840F2CD7293421ED9144B1B68B0
:103DF000154A1360154B1B68114A1360124B1B6860
:103E0000124A13600E4B1B684FF4006200211846E3
:103E100018F000FA094B00221A800B4B01221A718C
:103E20000B4B1B68184611F0F9FC00BF1037BD465C
:103E300080BD00BF00800040304601203246012096
:103E40001C000020303E01203446012020000020CC
:103E5000FC0C012080B582B000AF7860194B1B7854
:103E6000012B0ED17B68184A934227D1174B1B7840
:103E70001846FFF797FE0122144913480BF054FE31
:103E80001CE07B68104A934218D1114B1B88002B11
:103E900004D1104B1B68184611F0C0FC0C4B1B885A
:103EA0001A460D4B13440122194607480BF03CFEFD
:103EB000074B1B8801339AB2054B1A8000BF0837A5
:103EC000BD4680BDAB0E0120E8080120AC0E0120EC
:103ED00036470120040D01203C46012080B582B008
:103EE00000AF7860044B1B68184611F097FC00BFC8
:103EF0000837BD4680BD00BFE80C012080B582B008
:103F000000AF7860044B1B68184611F087FC00BFB7
:103F10000837BD4680BD00BFEC0C012080B58EB0D7
:103F200000AF00221649174808F01DFF002216496D
:103F3000144808F0FBFF144B5B78013B7B61124B8C
:103F40009B783B61104BDB78FB86FB8E64339BB226
:103F5000BB610B4B1B78FB60094B5B78BB60084B6C
:103F60009B787B603B1D184618F06AFBC7E90A0185
:103F7000D7E90A23104619463837BD4680BD00BF31
:103F8000240E0120D80A0120380E012080B500AF90
:103F900011480BF0A7FE10480BF012FE0E480BF074
:103FA00081FC002206210C2004F018F80C2004F0FB
:103FB00031F8002206210D2004F010F80D2004F045
:103FC00029F8FFF7EFFB642013F0DEF80348FFF752
:103FD00035F900BF80BD00BFE8080120382A02087B
:103FE00080B483B000AF7860134B1B88002B02D1E4
:103FF0004FF0FF331AE0114B1B881A46104B9A5CA6
:104000007B681A700C4B1B88013B9AB20A4B1A80D2
:104010000A4B1B8801339AB2084B1A80074B1B8846
:10402000C82B02D1054B00221A80002318460C37FA
:10403000BD465DF8047B7047780F01207C0F01209E
:10404000B00E012080B485B000AFF860B9601146B1
:104050001A460B46FB711346BB71FB68BA689A603F
:10406000FB68FA799A71FB68BA79DA7100BF143784
:10407000BD465DF8047B70472DE9B04388B000AFC2
:10408000F860B9601346FB71FB681B88FA68D27947
:10409000934205D12D48FFF7D1F84FF0FF334FE0A1
:1040A000FB689B791A46013AFA61DBB20022984616
:1040B00091464FF000024FF000034FEAC90343EA74
:1040C00058734FEAC802FB689B791A46013ABA61F5
:1040D000DBB200221C4615464FF000024FF00003F1
:1040E000EB0043EA5473E200FB689B681A46FB68E6
:1040F0005B881946FB689B7901FB03F313447B61E2
:104100007B69FA791A707B690133FA79B9681846C4
:1041100019F03BFDFB681B8801339AB2FB681A80DB
:10412000FB685B8801339AB2FB685A80FB685B8846
:10413000FA68D279934202D1FB6800225A800023A8
:1041400018462037BD46BDE8B08300BF542A020898
:104150002DE9B04386B000AF786039607B681B887A
:10416000002B02D14FF0FF335CE07B689B791A464D
:104170007B68DB7902FB03F35A1E7A611A4600233F
:10418000904699464FF000024FF000034FEAC903F2
:1041900043EA58734FEAC8027B689B791A467B68EA
:1041A000DB7902FB03F35A1E3A611A4600231446D8
:1041B0001D464FF000024FF00003EB0043EA54733A
:1041C000E2007B689B681A467B689B8819467B687F
:1041D0009B7901FB03F31344FB60FB68591CFB68EC
:1041E0001B781A46386819F0D0FC7B689B791A4610
:1041F0000021F86818F00EF87B681B88013B9AB222
:104200007B681A807B689B8801339AB27B689A80AE
:104210007B689B887A68D279934202D17B680022BE
:104220009A80002318461837BD46BDE8B0830000C9
:1042300080B500AFFDF7C0F803461AB2184B1A80DC
:10424000174BB3F90030002B13DDFDF7F0F80346F0
:104250001AB2144B1A80134BB3F900309AB2104BB8
:10426000B3F900309BB213449BB21AB20E4B1A80C2
:1042700005E00C4B00221A800B4B00221A80084BE1
:10428000B3F900301946074BB3F900301A46064B14
:10429000B3F900300548FEF7D1FF0023184680BD72
:1042A0008C1101208E11012090110120742A020826
:1042B00080B582B000AF7860294BB3F9003041F689
:1042C000FF72934205D12748FEF7B8FF4FF0FF3346
:1042D00041E0FEF71DFD244BB3F900305B024FF4C3
:1042E000ED7219467868FEF7D3FD0346002B05D022
:1042F0001E48FEF7A3FF4FF0FF332CE0FEF738FD1A
:10430000174BB3F900309BB201339BB21AB2144B76
:104310001A80154BB3F900309BB201339BB21AB22D
:10432000114B1A80104BB3F9003041F6FF729342E3
:1043300002D10D4B00221A800D4BB3F90030194603
:10434000094BB3F900301A46054BB3F90030094860
:10435000FEF774FF002318460837BD4680BD00BF36
:104360008C110120B42A020890110120C82A0208E9
:104370008E110120E02A020880B584B000AF786079
:104380000B46FB70344BB3F90030002B05D133489A
:10439000FEF754FF6FF0020359E0314BB3F90030E0
:1043A0005B024FF4ED7219467868FEF711FD034683
:1043B000002B05D02B48FEF741FF4FF0FF3346E0BE
:1043C000FB78012B18D1FF23FB73FEF7A1FC244BD4
:1043D000B3F90030590207F10F0301221846FEF726
:1043E00057FD0346002B05D01F48FEF727FF4FF06F
:1043F000FF332CE0FEF7BCFC174BB3F900309BB247
:10440000013B9BB21AB2144B1A80154BB3F9003022
:104410009BB201339BB21AB2114B1A80104BB3F905
:10442000003041F6FF72934202D10D4B00221A80F8
:104430000B4BB3F9003019460C4BB3F900301A4658
:10444000054BB3F900300A48FEF7F8FE0023184682
:104450001037BD4680BD00BF8C1101201C2B020807
:104460008E110120402B0208642B020890110120BC
:104470008C2B020880B584B000AF78600023FB73FA
:104480004FF4FA6012F080FE01222F492F480BF002
:104490004BFB0346BB73BB7B002B05D0BB7B194694
:1044A0002B48FEF7CBFE48E02A48FEF7C7FE3CE06B
:1044B000294B1B684FF0FF31184611F05DF90A20B7
:1044C00012F062FE0023FB7305E0012012F05CFE97
:1044D000FB7B0133FB73214B1B881A461A4B9B5CF9
:1044E0000D2B09D01D4B1B880133174AD35C0A2BB7
:1044F00002D0FB7B092BE8D9194B1B78002B08D085
:10450000164B1B88DBB21A460F491648FFF7B4FD5D
:1045100003E00D491448FEF791FEFA2200210A48F3
:1045200017F078FE0D4B00221A80104B5B79012B9F
:1045300003D00E4B5B79032BBAD10D48FEF77EFEFC
:10454000FFF724FD10F0BAFE3C460120E8080120E8
:10455000C42B0208E42B0208040D01203647012079
:10456000800F012058470120042C0208240201205A
:104570001C2C02082DE9F04389B000AF78607B68FD
:10458000FB740023FB60A548FEF758FEA44B0122F4
:104590001A704FF49670FDF731FC0346002B40F083
:1045A000D8800A214FF4FA70FDF7D2FC0346002BA5
:1045B00040F0D1804FF49670FDF750FD0346002B7C
:1045C00040F0CB804FF49670FDF718FE0346002BA9
:1045D00040F0C5800023FB6141E0FB69ED2202FB56
:1045E00003F3904A1344904AED21184600F038F93D
:1045F000F860FB7C013BFA699A4201D18B4B00E0E9
:104600008B4BBB60FB699BB24FF49672B96818463E
:10461000FDF7D0FE0346002B1ED1142012F0B4FD8E
:104620004FF49670FDF736FF0346002B14D114208B
:1046300012F0AAFDFB68FE2B0BD8FB689BB241F27F
:10464000883219467848FDF789FFC82012F09CFD92
:1046500002E07848FEF7F2FDFB690133FB61FB7C69
:10466000FA699A42B9DB7448FEF7E8FD734B002201
:104670001A7073494FF000024FF00003C1E90023A4
:104680004FF47A7012F080FD0023FB7650E0642036
:1046900012F07AFD6348FDF793FB684B1B78DBB2A1
:1046A000012B42D100233B8339E0654BD3E9002342
:1046B000398BC1F12006A1F1200022FA01F403FA9E
:1046C00006F6344323FA00F0044323FA01F504F01C
:1046D00001084FF0000958EA09031DD1594B1B6826
:1046E0006421184610F036FF0346002B0FD13B8B98
:1046F000ED2202FB03F34B4A1344ED2219465248C4
:10470000FFF7BAFC4F4B1B68184610F06EFF3B8B4F
:1047100019464E48FEF792FD3B8B01333B83FB7CF1
:104720009BB23A8B9A42C0D305E0FB7E0133FB7605
:10473000FB7E592BABD94FF49670FDF7D5FD0346A0
:10474000002B0ED141F28830FDF7DEFC0346002B32
:1047500008E000BF06E000BF04E000BF02E000BFC9
:1047600000E000BF354B1B78DBB2002B04D1344B8B
:10477000D3E90023134302D0FB7E592B29D9002310
:10478000FB821BE02F4B1B686421184610F0E2FEF1
:104790000346002B0FD1FB8AED2202FB03F3214AD3
:1047A0001344ED2219462848FFF766FC254B1B6889
:1047B000184610F01AFFFB8A0133FB82FB7C9BB288
:1047C000FA8A9A42DED32248FEF738FD2148FEF7E6
:1047D00039F8134B00221A700023BB820DE0BB8A0C
:1047E000ED2202FB03F30F4A1344ED220021184689
:1047F00017F010FDBB8A0133BB82FB7C9BB2BA8AE7
:104800009A42ECD31448FEF719FD144B5B79022B46
:1048100002D1124B00225A7110F050FD402C0208B8
:10482000800F0120FC590120CC9C01205C2C020847
:10483000602C0208642C0208882C020870030120F6
:1048400068030120D40C012040470120BC2C020841
:10485000E82C0208340201200C2D02082402012059
:1048600080B489B000AFF860B9607A600023FB6162
:104870000023BB612FE0FA68BB6913441B78FB750A
:10488000FB7D032B0BD0FB7D1A2B08D0FB7D1B2B54
:1048900005D0FB7D1C2B02D0FB7D7D2B11D1FB694C
:1048A0005A1CFA617A6813447D221A70FB695A1CFB
:1048B000FA617A681344FA7D82F02002D2B21A704B
:1048C00006E0FB695A1CFA617A681344FA7D1A7093
:1048D000BB690133BB61BA69BB689A42CBD3FB6940
:1048E00018462437BD465DF8047B704780B582B01A
:1048F00000AF00237B600023FB70344B1B78002B40
:1049000055D0334B04225A71324A0021324810F0FC
:1049100043FC0346314A136001224FF400714FF00B
:10492000904004F071FB40F6AC5012F02DFC2C4B83
:1049300001221A704FF49670FDF760FA786007E074
:104940004FF49670FDF75AFA7860FB780133FB70EC
:104950007B68002B14BF01230023DAB2FB78022B03
:1049600094BF01230023DBB21340DBB2002BE7D15D
:104970001B4B00221A707B68002B18D01948FEF7D9
:104980005DFC00224FF400714FF0904004F03CFBBE
:10499000FFF7FCFA0E4B03225A71114B00221A70DA
:1049A0004FF4FA7012F0F0FB4FF0FF330AE00E48BC
:1049B000FEF744FC4FF4967012F0E6FB044B002225
:1049C0005A71002318460837BD4680BD7F0F01206D
:1049D000240201204C9F020875440008981301200E
:1049E000800F01202C2D02084C2D020880B500AF4D
:1049F0000F4B1B78002B14D000224FF400714FF0A6
:104A0000904004F001FB322012F0BEFB094B032260
:104A10005A71094B00221A70084B1B68184610F097
:104A2000FDFE0748FEF70AFC0023184680BD00BFC4
:104A30007F0F012024020120800F0120040D01209E
:104A4000682D020880B5ADF5007D02AF07F5FC7357
:104A5000A3F5FA7318600023A7F8F6310A2012F0C4
:104A600093FB41F23B531A4694499548FEF7E6FB07
:104A7000944B1B68184610F0D1FE934B1B684FF007
:104A8000FF31184610F078FE904B1B6864211846E1
:104A900010F060FD0346002B07D18D4B1B68ED2203
:104AA00019468C48FFF7E8FA02E08B48FEF7C6FB90
:104AB000884B1B88A7F8F631844B1B68184610F00A
:104AC00094FD844B9B881946824B5B881846B7F946
:104AD000F631824A5279009202468148FEF7AEFBD7
:104AE000B7F9F631092B00F3E280B7F9F631032B61
:104AF0007FDD7A4B5B79032B07D1FFF7F7FE034687
:104B0000002B02D0754B03225A71744B5B79002B3A
:104B1000B3D1724B02225A716C4B1B686421184648
:104B200010F018FD0346002BA7D1B7F9F631322B50
:104B300002DD3223A7F8F6310023C7F8F0310FE089
:104B4000D7F8F031ED2202FB03F3664A134419460D
:104B50006048FFF7FDFAD7F8F0310133C7F8F031BC
:104B6000B7F9F631D7F8F0219A42E9DB574B1B68C9
:104B7000184610F03AFDB7F9F6315B4A19465B4822
:104B800010F00AFB03465A4A1360594B1B68002B6E
:104B90007FF473AFFFF72AFF4C4B1B686421184664
:104BA00010F0D8FC0346002B1FD10023C7F8EC31CE
:104BB00010E0D7F8EC31ED2202FB03F3494A13442D
:104BC000ED2219464348FFF757FAD7F8EC31013385
:104BD000C7F8EC31B7F9F631D7F8EC219A42E8DBA7
:104BE0003A4B1B68184610F000FD4248FEF726FBC2
:104BF00043E7414BB3F90030002B7FF73EAFB7F9E5
:104C0000F63113F1020FBFF638AF344B5B79002B4E
:104C10000CBF01230023DAB2304B5B79032B0CBFAE
:104C200001230023DBB21343DBB2002B3FF425AF9B
:104C3000314BB3F90030042BA8BF04231BB287F813
:104C4000E7310023C7F8E8312AE007F10C0301211E
:104C50001846FFF791FB0346002B1CD11B4B1B682A
:104C60006421184610F076FC0346002B13D107F19F
:104C70000C03ED2219461748FFF7FEF907F10C0364
:104C8000ED33ED2219461348FFF7F6F90F4B1B6879
:104C9000184610F0AAFCD7F8E8310133C7F8E8311C
:104CA00097F8E731D7F8E8219A42CEDBE5E6B7F985
:104CB000F631184600F022F8DFE600BF20A0020817
:104CC000882D0208000D0120F40C0120D40C0120D5
:104CD0001800002040470120A02D020824020120D6
:104CE000042E0208FC590120DC9F020875450008CB
:104CF00094130120542E02088C11012080B5FAB0C3
:104D000000AF07F5F473A3F5F273186007F5F473B9
:104D1000A3F5F27307F5F472A2F5F272126822F0AD
:104D200001021A6007F5F473A3F5F2731B685B08C0
:104D300087F8E3311C48FEF781FA0023C7F8E43115
:104D400024E01A4B1B686421184610F003FC03464C
:104D5000002B16D107F1080319461548FFF7F8F99B
:104D600007F10803ED3319461148FFF7F1F90F4B2E
:104D70001B68184610F039FC07F108031846FFF7C6
:104D800097FAD7F8E4310133C7F8E43197F8E33103
:104D9000D7F8E4219A42D4DB0648FEF74FFA00BF69
:104DA00007F5F477BD4680BD842E0208D40C01209F
:104DB00040470120A42E020880B584B000AF78607F
:104DC0002048FEF73BFA0023FB811F4B1B68184667
:104DD00010F024FD1D4B1B684FF0FF31184610F0FA
:104DE000CBFC1B4B1B686421184610F0B3FB034639
:104DF000002B07D1174B1B68ED2219461648FFF709
:104E00003BF902E01548FEF719FA134B1B88FB81AA
:104E10000F4B1B68184610F0E8FB0F4B9B88194698
:104E20000D4B5B881A460C4B1B880D48FEF706FAA3
:104E3000B7F90E30032BCDDDB7F90E301846FFF76A
:104E40005DFFC7E7C42E0208000D0120F40C01200D
:104E5000D40C01201800002040470120E42E020855
:104E60004C2F0208F0B5ADB006AFF860002387F80C
:104E70008D300023A7F88A306423A7F888300023F8
:104E8000A7F890304FF000024FF00003C7E91E234F
:104E9000002387F88F30AA4B1B684FF0FF3118466C
:104EA00010F06AFCA74B1B881946A748FEF7C6F905
:104EB0001CE0A649A348FFF74BF90023C7F894303C
:104EC0000DE0D7F894300133A04AD35C1946A048CE
:104ED000FEF7B4F9D7F894300133C7F894309B4B00
:104EE0001B781A46D7F894309342EADB954B1B881F
:104EF000002BDED1954B5B78082B19DC002B40F39F
:104F0000D981013B072B00F2D58101A252F823F091
:104F10004B4F0008734F0008A34F0008875000084C
:104F2000BF500008C551000895520008A95200085A
:104F3000FF2B40F0BF81854B1B781946854814F044
:104F400097F98548FEF77AF9B8E1FCF735FA034698
:104F5000A7F88A30FFF76CF9B7F88A3019467F480E
:104F6000FEF76CF907F18A030221184614F080F964
:104F7000A4E1764B5B88A7F88A3000217848FFF7D8
:104F8000FBF9B7F88A301946764BB3F900301A4668
:104F90007548FEF753F94FF4ED71714814F068F954
:104FA0008CE16A4B5B88A7F88830B7F888301946DF
:104FB0006E48FEF743F96E4B01221A7001226D49CB
:104FC0006D480AF0B1FD034687F88F3097F88F30AF
:104FD000002B05D097F88F3019466848FEF72EF958
:104FE0006748FEF72BF9002387F893300DE097F818
:104FF00093300333554AD35C19466248FEF71EF9D5
:1050000097F89330013387F8933097F893204F4BFC
:105010001B78023B9A42EADB5B48FEF70FF94B4BE9
:105020001B78023B9BB21A46584953480AF000FDD0
:10503000B7F88830184612F0A7F810E007F18E0391
:105040001846FEF7CDFF07F18E030121184614F034
:105050000FF997F88E3019464D48FEF7EFF84D4B93
:105060001B88002BEAD107F18D030121184614F0AB
:10507000FFF800BF3E4B00221A70FEF787FF46483C
:10508000FEF7DCF81AE1454BD3E90023C7E92023FA
:10509000D7E920014FF000024FF000030A0000237F
:1050A0001146D7E9202313461A463D48FEF7C6F8B5
:1050B00007F180030821184614F0DAF8FEE0234BCC
:1050C00002331C685D6822462B46C7E91E23D7E9D8
:1050D0001E233448FEF7B2F8D7E91E2310461946BE
:1050E00001F086F8642012F04FF82F4B01932F4BFC
:1050F00000932F4B2F4A3049304801F023F92F4BB2
:105100001B681846FBF738FA02460B462A4909780D
:105110000846284909780E4625490978B960234987
:105120000988796020490988049179680391B968F0
:105130000291019600902248FEF780F8BEE000BF81
:10514000F80C01204C470120882F0208780E01201E
:10515000A82F0208790E0120AC2F0208BC2F0208EC
:10516000941101208C110120CC2F0208E02F02089D
:10517000AB0E0120AC0E0120E8080120F82F020838
:105180001430020820300208243002087B0E01206F
:1051900028300208780F01203030020800E00708AC
:1051A0004C300208683002080C000020880F0120F3
:1051B0000E0000207F0F01207E0F0120840F0120B0
:1051C0007C3002083E4B9B7887F864303C4BDB78A0
:1051D00087F865303A4B1B7987F86630384B5B7936
:1051E00087F84C30364B9B7987F84F30344BDB795E
:1051F00087F84D30324B1B7A87F84E3007F1640345
:10520000012219462F4807F011FD07F14C03012236
:1052100019462C4807F003FE642011F0B5FF07F192
:10522000500300221946274807F09DFD07F1480367
:1052300000221946234807F079FE97F84A309C4629
:1052400097F849309E4697F84B30194697F85030FA
:105250001E4697F85130BB6097F852307B607B6DEB
:10526000BA6D07F11400059204937A680392BB6843
:1052700002930196009173466246134916F0FAFEB6
:1052800007F1140319461148FDF7D8FF1048FDF740
:10529000D5FF13E0FDF73CFDFDF79EFFFDF768FD30
:1052A0000C48FDF7CBFF09E0FDF74EFC0A48FDF77F
:1052B000C5FF03E00948FDF7C1FF00BFEBE500BFF4
:1052C000780E0120D80A0120B4300208E03002082C
:1052D000E8300208083102081831020828310208B3
:1052E000B0B58EB004AF78608F48FDF7A7FF8F4B45
:1052F0001B6843F69821184610F03EFA0346002B2F
:1053000040F0A2808A4B1B79002B00F09980884BDB
:105310001B681846FCF706F9854B00221A71854B6D
:1053200093F82230002B00F08480834B1B68B3F18C
:10533000FF3F7ED17F4B9B6B002B7AD007F10C0394
:1053400000221A605A609A60DA601A610023BB601A
:10535000784B9B697B627B6A784AA2FB03235B0BD9
:10536000DBB23B737B6A764AA2FB03235A09744B78
:10537000A3FB02135B09642101FB03F3D31ADBB225
:105380007B737A6A6E4BA3FB02135B09642101FBFA
:1053900003F3D31ADBB2BB73664B9B6B3B623B6A76
:1053A000664AA2FB03235B0BDBB2BB723B6A644A17
:1053B000A2FB03235A09624BA3FB02135B0964217E
:1053C00001FB03F3D31ADBB27B723A6A5C4BA3FB9B
:1053D00002135B09642101FB03F3D31ADBB2FB72F6
:1053E00007F1080300221946564807F018FD034646
:1053F000002B1ED107F10C0300221946514807F07B
:1054000015FC0346002B14D14B4B01221A60BB7ACA
:1054100018467B7A1C46FB7A1D463B7B7A7BB97B20
:105420000291019200932B46224601464648FDF721
:1054300005FF3F4B1B6819464448FDF7FFFE56E742
:105440004348FDF7FBFE52E7424B1B78012B7FF4EC
:105450004EAF4148FDF7F2FE40480AF0B1FB3F482D
:105460000AF020FA002201213D4803F0CDFD64201E
:1054700011F08AFE01220121394803F0C5FD40F2F6
:10548000DC5011F081FE354B4FF416525A60334810
:105490000AF0BAF90346002B01D001F02FFE4FF4B9
:1054A000E130FCF781F9642011F06EFE2B480AF020
:1054B000F9F92A4B4FF4E1325A6028480AF0A4F96E
:1054C0000346002B01D001F019FEFCF789F9642096
:1054D00011F05AFE234B00221A80234B00221A801F
:1054E0004FF400620021214816F094FE204B1B6807
:1054F0004FF400620021184616F08CFE4FF4006253
:105500001A4916480BF005FF144B5B6F1B681A68AD
:10551000124B5B6F1B6822F004021A60064B4FF0BF
:10552000FF321A60E3E600BF3C310208FC0C0120A8
:1055300034460120D82D0120100000205917B7D182
:105540001F85EB51D80A012054310208903102081E
:10555000A4310208980F0120C4310208D8070120A5
:10556000000800483046012032460120303E01202C
:105570001C00002080B584B000AF7860594815F059
:10558000AFFC0346FB60584B1A687B680F3B134423
:10559000564A12681A60544B1A687B680B3B1344D6
:1055A000534A52691A60FB68190B4F4B1A687B68A3
:1055B000073B1344CAB21A70FB6819094A4B1A68B0
:1055C0007B68063B1344CAB21A70FB68DBB21B014E
:1055D000D9B2474B93F8233003F00F03DAB2424BB2
:1055E00018687B68053B03440A43D2B21A70404BEB
:1055F000D3ED047A3C4B1A687B68043B1344FCEE01
:10560000E77AC7ED007A3A78D2B21A70384BD3ED08
:10561000047AF7EE000AB0EE670A1CF0DFFAF0EE4B
:10562000407A9FED347A67EE877AFCEEE77A17EEE0
:10563000903A190B2C4B1A687B68033B1344CAB28F
:105640001A702B4BD3ED047AF7EE000AB0EE670A1E
:105650001CF0C4FAF0EE407A9FED267A67EE877A66
:10566000FCEEE77A17EE903A19091F4B1A687B682F
:10567000023B1344CAB21A701D4BD3ED047AF7EE05
:10568000000AB0EE670A1CF0A9FAF0EE407A9FED2E
:10569000197A67EE877AFCEEE77AC7ED007A3B78F5
:1056A0001B01DBB203F00F03DAB2114B93F8223087
:1056B0005B00DBB203F00E03DBB21343D9B20E4B37
:1056C0001B88DBB203F00103DAB2074B18687B6872
:1056D000013B03440A43D2B21A7000BF1037BD46E3
:1056E00080BD00BF3847012014000020A00F01201A
:1056F000D82D0120002474490C00002090B5A9B0D9
:1057000004AF87ED030AB8600F23C7F88C307E4BD7
:10571000B3F90030002B0BDD7B4BB3F900305A1E80
:1057200013465B001344DA0013443033C7F88C305F
:10573000754BB3F90030002B03D1D7F88C00FFF77D
:1057400019FF724B1B78002B00F08D836E4BB3F961
:105750000030002B40F0B481BB68D3ED007AF7EE47
:10576000000AB0EE670A1CF039FAF0EE407AB2EEA9
:10577000047A67EE877AFCEEE77AC7ED017A3B7927
:10578000DBB25BB21B015CB2BB680433D3ED007AC1
:10579000F7EE000AB0EE670A1CF020FAF0EE407A4D
:1057A000B2EE047A67EE877AFCEEE77AC7ED017A0B
:1057B0003B79DBB25BB203F00F035BB2234359B218
:1057C000534B1A68D7F88C301344CAB21A700123AD
:1057D000C7F888304AE0D7F88830DB00BA6813444D
:1057E000D3ED007AF7EE000AB0EE670A1CF0F6F986
:1057F000F0EE407AB2EE047A67EE877AFCEEE77A52
:10580000C7ED017A3B79DBB25BB21B015CB2D7F822
:105810008830DB000433BA681344D3ED007AF7EE26
:10582000000AB0EE670A1CF0D9F9F0EE407AB2EE49
:10583000047A67EE877AFCEEE77AC7ED017A3B7966
:10584000DBB25BB203F00F035BB2234358B2304BC1
:105850001A68D7F88810D7F88C300B441344C2B2BA
:105860001A70D7F888300133C7F88830D7F88830F5
:105870000A2BB0DDBB685833D3ED007AF7EE000A8F
:10588000B0EE670A1CF0AAF9F0EE407AB2EE047AA4
:1058900067EE877AFCEEE77AC7ED017A3B79DAB2F8
:1058A0001B4B1968D7F88C300B330B441201D2B262
:1058B0001A70174B1A68D7F88C300B3313441B78C7
:1058C00023F00F03D9B2BB68D3ED007AFCEEE77A80
:1058D000C7ED017A3B79DBB2DB08DBB203F00F03E3
:1058E000DAB20B4B1868D7F88C300B3303440A43F9
:1058F000D2B21A70052387F88730002387F88630E4
:105900000023C7F8803059E08A1101200E000020E2
:105910001400002097F88620D7F8803013449B00AD
:10592000BA681344D3ED007AFCEEE77AC7ED017A4A
:105930003B79DBB203F07F0297F8873002FA03F37A
:105940005AB297F88610D7F880300B4401339B0089
:10595000B9680B44D3ED007AFCEEE77AC7ED017A23
:105960003B79DBB203F07F0197F88730C3F107037F
:1059700041FA03F35BB2134358B2A64B1A68D7F847
:105980008010D7F88C300B440C331344C2B21A7019
:1059900097F88730013387F8873097F88730072BDF
:1059A00007D9012387F8873097F88630013387F8C5
:1059B0008630D7F880300133C7F8803097F88620DA
:1059C000D7F880301344152BA4DDBB685833D3EDD2
:1059D000007AFCEEE77AC7ED017A3B79DAB28D4BBB
:1059E0001968D7F88C301F330B44D200D2B21A702A
:1059F000884B1A68D7F88C301F3313441978D7EDC9
:105A0000037AFCEEE77AC7ED017A3B79DBB21B093A
:105A1000DBB203F00703DAB27E4B1868D7F88C309C
:105A20001F3303440A43D2B21A70D7ED037AFCEE57
:105A3000E77AC7ED017A3B79DBB25BB21B015CB25E
:105A4000F7EE000A97ED030A1CF0C8F8F0EE407A72
:105A5000B2EE047A67EE877AFCEEE77AC7ED017A58
:105A60003B79DBB25BB203F00F035BB2234359B265
:105A7000684B1A68D7F88C3020331344CAB21A70B6
:105A80000023FB6710E0FB6F9B00BA681344D3ED63
:105A9000007AFDEEE77A17EE901A5F4AFB6F42F844
:105AA0002310FB6F0133FB67FB6F162BEBDDD7ED8C
:105AB000037AFDEEE77A17EE902A584B1A60D2E18E
:105AC000BB68D3ED007AF7EE000AB0EE670A1CF06F
:105AD00085F8F0EE407AB2EE047A67EE877AFCEE53
