:020000040800F2
:1000000000800220997C0008757900087D7900083D
:10001000857900088D7900089579000800000000B6
:10002000000000000000000000000000318801080E
:100030009D79000800000000818A01082150010814
:10004000E97C0008E97C0008E97C0008AD7900083B
:10005000E97C0008E97C0008E97C0008E97C0008EC
:10006000E97C0008E97C0008E97C0008E97C0008DC
:10007000C1790008D5790008E9790008E97C000811
:10008000E97C0008E97C0008E97C0008E97C0008BC
:10009000E97C0008E97C0008E97C0008E97C0008AC
:1000A000E97C0008E97C0008E97C0008E97C00089C
:1000B000E97C0008E97C000800000000E97C0008F9
:1000C000E97C0008E97C0008E97C0008E97C00087C
:1000D000E97C0008E97C0008E97C0008FD7900085B
:1000E000117A0008D57A0008000000000000000026
:1000F0000000000000000000000000000000000000
:1001000000000000E97C000800000000E97C000815
:10011000E97C000800000000217A000800000000CF
:10012000357A0008E97C0008497A00085D7A000801
:10013000E97C0008E97C0008E97C00080000000078
:10014000E97C0008E97C0008E97C0008717A000875
:10015000857A0008997A0008AD7A0008E97C0008E1
:10016000E97C0008E97C0008C17A00080000000072
:1001700000000000E97C0008000000000000000012
:10018000E97C0008E97C0008E97C0008E97C0008BB
:04019000E97C0008FE
:1001A00010B5054C237833B9044B13B10448AFF3B1
:1001B00000800123237010BD080201200000000010
:1001C000EC1E020808B5034B1BB103490348AFF30B
:1001D000008008BD000000000C020120EC1E020897
:1001E00010F8012B11F8013B012A28BF9A42F7D0E1
:1001F000D01A70470000000000000000000000005E
:1002000001F0FF01102A2BDB10F0070F08D010F8C7
:10021000013B013A8B422DD010F0070F42B3F6D1CB
:10022000F0B441EA012141EA014122F007047FF0E4
:1002300000070023F0E80256083C85EA010586EA3B
:10024000010685FA47F5A3FA87F586FA47F6A5FA77
:1002500087F68EB9EED1F0BC01F0FF0102F0070283
:1002600032B110F8013B013A83EA010313B1F8D12E
:100270000020704701387047002D06BF354603380F
:10028000073815F0010F07D1013015F4807F02BF48
:10029000013015F4C03F0130F0BC0138704700BF99
:1002A000034613F8012B002AFBD1181A01387047B6
:1002B00081F0004102E000BF83F0004330B54FEA17
:1002C00041044FEA430594EA050F08BF90EA020F84
:1002D0001FBF54EA000C55EA020C7FEA645C7FEA17
:1002E000655C00F0E2804FEA5454D4EB5555B8BF3A
:1002F0006D420CDD2C4480EA020281EA030382EAAB
:10030000000083EA010180EA020281EA0303362D3C
:1003100088BF30BD11F0004F4FEA01314FF4801C0F
:100320004CEA113102D0404261EB410113F0004F21
:100330004FEA03334CEA133302D0524263EB4303D8
:1003400094EA050F00F0A780A4F10104D5F1200E76
:100350000DDB02FA0EFC22FA05F2801841F10001D1
:1003600003FA0EF2801843FA05F359410EE0A5F1A5
:1003700020050EF1200E012A03FA0EFC28BF4CF0D6
:10038000020C43FA05F3C01851EBE37101F000458C
:1003900007D54FF0000EDCF1000C7EEB00006EEB99
:1003A0000101B1F5801F1BD3B1F5001F0CD3490823
:1003B0005FEA30004FEA3C0C04F101044FEA44527A
:1003C00012F5800F80F09A80BCF1004F08BF5FEA01
:1003D000500C50F1000041EB045141EA050130BDE1
:1003E0005FEA4C0C404141EB0101013C28BFB1F5F3
:1003F000801FE9D291F0000F04BF01460020B1FA3E
:1004000081F308BF2033A3F10B03B3F120020CDA10
:100410000C3208DD02F1140CC2F10C0201FA0CF0EE
:1004200021FA02F10CE002F11402D8BFC2F1200C53
:1004300001FA02F120FA0CFCDCBF41EA0C01904009
:10044000E41AA2BF01EB0451294330BD6FEA040452
:100450001F3C1CDA0C340EDC04F11404C4F120023D
:1004600020FA04F001FA02F340EA030021FA04F34F
:1004700045EA030130BDC4F10C04C4F1200220FAA6
:1004800002F001FA04F340EA0300294630BD21FAE4
:1004900004F0294630BD94F0000F83F4801306BFAA
:1004A00081F480110134013D4EE77FEA645C18BF9E
:1004B0007FEA655C29D094EA050F08BF90EA020F35
:1004C00005D054EA000C04BF1946104630BD91EA2D
:1004D000030F1EBF0021002030BD5FEA545C05D130
:1004E0004000494128BF41F0004130BD14F580046F
:1004F0003CBF01F5801130BD01F0004545F0FE41E3
:1005000041F470014FF0000030BD7FEA645C1ABF17
:10051000194610467FEA655C1CBF0B46024650EA4E
:10052000013406BF52EA033591EA030F41F400217A
:1005300030BD00BF90F0000F04BF0021704730B500
:100540004FF4806404F132044FF000054FF00001D5
:1005500050E700BF90F0000F04BF0021704730B596
:100560004FF4806404F1320410F0004548BF40426B
:100570004FF000013EE700BF42004FEAE2014FEAC0
:1005800031014FEA02701FBF12F07F4393F07F4F9B
:1005900081F06051704732F07F4208BF704793F09E
:1005A0007F4F04BF41F40021704730B54FF46074B1
:1005B00001F0004521F000411CE700BF50EA0102B4
:1005C00008BF704730B54FF000050AE050EA01025D
:1005D00008BF704730B511F0004502D5404261EBCD
:1005E00041014FF4806404F132045FEA915C3FF40E
:1005F000D8AE4FF003025FEADC0C18BF03325FEAAB
:10060000DC0C18BF033202EBDC02C2F1200300FA5B
:1006100003FC20FA02F001FA03FE40EA0E0021FA80
:1006200002F11444BDE600BF70B54FF0FF0C4CF46E
:10063000E06C1CEA11541DBF1CEA135594EA0C0F20
:1006400095EA0C0F00F0DEF82C4481EA030621EA5B
:100650004C5123EA4C5350EA013518BF52EA033596
:1006600041F4801143F4801338D0A0FB02CE4FF048
:100670000005E1FB02E506F00042E0FB03E54FF078
:100680000006E1FB03569CF0000F18BF4EF0010E70
:10069000A4F1FF04B6F5007F64F5407404D25FEA6C
:1006A0004E0E6D4146EB060642EAC62141EA55511F
:1006B0004FEAC52040EA5E504FEACE2EB4F1FD0C61
:1006C00088BFBCF5E06F1ED8BEF1004F08BF5FEADF
:1006D000500E50F1000041EB045170BD06F0004691
:1006E00046EA010140EA020081EA0301B4EB5C043E
:1006F000C2BFD4EB0C0541EA045170BD41F4801136
:100700004FF0000E013C00F3AB8014F1360FDEBF5A
:10071000002001F0004170BDC4F10004203C35DA36
:100720000C341BDC04F11404C4F1200500FA05F3B9
:1007300020FA04F001FA05F240EA020001F000425A
:1007400021F0004110EBD37021FA04F642EB0601D0
:100750005EEA430E08BF20EAD37070BDC4F10C04FA
:10076000C4F1200500FA04F320FA05F001FA04F2BE
:1007700040EA020001F0004110EBD37041F10001AA
:100780005EEA430E08BF20EAD37070BDC4F12005B5
:1007900000FA05F24EEA020E20FA04F301FA05F21D
:1007A00043EA020321FA04F001F0004121FA04F2C5
:1007B00020EA020000EBD3705EEA430E08BF20EA95
:1007C000D37070BD94F0000F0FD101F000464000CF
:1007D00041EB010111F4801F08BF013CF7D041EA51
:1007E000060195F0000F18BF704703F00046520055
:1007F00043EB030313F4801F08BF013DF7D043EA26
:100800000603704794EA0C0F0CEA135518BF95EADB
:100810000C0F0CD050EA410618BF52EA4306D1D162
:1008200081EA030101F000414FF0000070BD50EA81
:10083000410606BF1046194652EA430619D094EA0B
:100840000C0F02D150EA013613D195EA0C0F05D1F5
:1008500052EA03361CBF104619460AD181EA030149
:1008600001F0004141F0FE4141F470014FF0000001
:1008700070BD41F0FE4141F4780170BD70B54FF09C
:10088000FF0C4CF4E06C1CEA11541DBF1CEA13551C
:1008900094EA0C0F95EA0C0F00F0A7F8A4EB0504FE
:1008A00081EA030E52EA03354FEA013100F08880F5
:1008B0004FEA03334FF0805545EA131343EA1263BE
:1008C0004FEA022245EA111545EA10654FEA002673
:1008D0000EF000419D4208BF964244F1FD0404F52C
:1008E000407402D25B084FEA3202B61A65EB030588
:1008F0005B084FEA32024FF480104FF4002CB6EB45
:10090000020E75EB030E22BFB61A754640EA0C00C4
:100910005B084FEA3202B6EB020E75EB030E22BF04
:10092000B61A754640EA5C005B084FEA3202B6EB45
:10093000020E75EB030E22BFB61A754640EA9C0004
:100940005B084FEA3202B6EB020E75EB030E22BFD4
:10095000B61A754640EADC0055EA060E18D04FEA92
:10096000051545EA16754FEA06164FEAC30343EA32
:1009700052734FEAC2025FEA1C1CC0D111F4801FFF
:100980000BD141EA00014FF000004FF0004CB6E7F8
:1009900011F4801F04BF01430020B4F1FD0C88BF97
:1009A000BCF5E06F3FF6AFAEB5EB030C04BFB6EBA2
:1009B000020C5FEA500C50F1000041EB045170BD95
:1009C0000EF0004E4EEA113114EB5C04C2BFD4EBC2
:1009D0000C0541EA045170BD41F480114FF0000E46
:1009E000013C90E645EA060E8DE60CEA135594EAC2
:1009F0000C0F08BF95EA0C0F3FF43BAF94EA0C0FC5
:100A00000AD150EA01347FF434AF95EA0C0F7FF439
:100A100025AF104619462CE795EA0C0F06D152EA8D
:100A200003353FF4FDAE1046194622E750EA410671
:100A300018BF52EA43067FF4C5AE50EA41047FF482
:100A40000DAF52EA43057FF4EBAE12E74FF0FF3CE7
:100A500006E000BF4FF0010C02E000BF4FF0010CB8
:100A60004DF804CD4FEA410C7FEA6C5C4FEA430C31
:100A700018BF7FEA6C5C1BD001B050EA410C0CBF80
:100A800052EA430C91EA030F02BF90EA020F0020E2
:100A9000704710F1000F91EA030F58BF994208BF49
:100AA00090422CBFD8176FEAE37040F00100704706
:100AB0004FEA410C7FEA6C5C02D150EA013C07D15D
:100AC0004FEA430C7FEA6C5CD6D152EA033CD3D0A8
:100AD0005DF8040B704700BF8446104662468C46A2
:100AE0001946634600E000BF01B5FFF7B7FF0028D5
:100AF00048BF10F1000F01BD4DF808EDFFF7F4FFFE
:100B00000CBF012000205DF808FB00BF4DF808ED88
:100B1000FFF7EAFF34BF012000205DF808FB00BFAB
:100B20004DF808EDFFF7E0FF94BF012000205DF8CD
:100B300008FB00BF4DF808EDFFF7CEFF94BF012082
:100B400000205DF808FB00BF4DF808EDFFF7C4FF7B
:100B500034BF012000205DF808FB00BF4FEA410CC4
:100B60007FEA6C5C02D150EA013C0AD14FEA430CA7
:100B70007FEA6C5C02D152EA033C02D14FF00000E4
:100B800070474FF0010070474FEA410212F5001222
:100B900015D211D56FF47873B3EB625212D94FEAC4
:100BA000C12343F0004343EA505311F0004F23FAAE
:100BB00002F018BF404270474FF00000704750EA03
:100BC000013005D111F0004008BF6FF000407047C0
:100BD0004FF00000704700BF4A0011D212F500121A
:100BE00011D20DD56FF47873B3EB62520ED44FEA85
:100BF000C12343F0004343EA505323FA02F0704705
:100C00004FF00000704750EA013002D14FF0FF3042
:100C100070474FF0000070474FEA4102B2F1E043E5
:100C200024BFB3F5001CDCF1FE5C0DD901F0004CD3
:100C30004FEAC0024CEA5070B2F1004F40EB830023
:100C400008BF20F00100704711F0804F21D113F14F
:100C50003872BCBF01F00040704741F480114FEA88
:100C60005252C2F11802C2F1200C10FA0CF320FA11
:100C700002F018BF40F001004FEAC1234FEAD3232E
:100C800003FA0CFC40EA0C0023FA02F34FEA430398
:100C9000CCE77FEA625307D150EA01331EBF4FF021
:100CA000FE4040F44000704701F0004040F0FE403C
:100CB00040F40000704700BF7BB972B90029BEBF85
:100CC00000204FF0004106E008BF00281CBF6FF075
:100CD00000414FF0FF3000F009BAADF1080C6DE9AA
:100CE00004CE002909DB002B1ADB00F083F8DDF8C5
:100CF00004E0DDE9022304B07047404261EB4101AA
:100D0000002B1BDB00F076F8DDF804E0DDE90223C0
:100D100004B0404261EB4101524263EB4303704730
:100D2000524263EB430300F065F8DDF804E0DDE9CF
:100D3000022304B0404261EB41017047524263EB31
:100D4000430300F057F8DDF804E0DDE9022304B0C6
:100D5000524263EB4303704753B94AB9002908BFB5
:100D600000281CBF4FF0FF314FF0FF3000F0BEB93C
:100D7000ADF1080C6DE904CE00F03CF8DDF804E0BC
:100D8000DDE9022304B0704738B500220023044691
:100D90000D46FFF7BBFE28B920462946BDE838407E
:100DA00000F00AB8204605F1004100F005F8404285
:100DB00061EB410138BD00BFD0B50C4B00220646A7
:100DC0000F46FFF731FCFFF707FF0446FFF7B2FBC2
:100DD000074B0022FFF728FC02460B4630463946F7
:100DE000FFF76AFAFFF7F8FE2146D0BD0000F03D9C
:100DF0000000F0412DE9F047089D8E4604468846E4
:100E0000002B4AD18A42174662D9B2FA82F64EB115
:100E1000C6F1200301FA06F820FA03F3B74043EACB
:100E20000808B4404FEA174E1FFA87FCB8FBFEF1E2
:100E3000230C0EFB118843EA084301FB0CF29A4293
:100E400009D9FB1801F1FF3080F0EA809A4240F2A4
:100E5000E78002393B449A1AA3B2B2FBFEF00EFBC4
:100E6000102243EA024300FB0CFC9C4509D9FB1805
:100E700000F1FF3280F0D6809C4540F2D3803B44A5
:100E8000023840EA0140A3EB0C0300211DB1F340FE
:100E90000022C5E90032BDE8F0878B4205D90DB1CB
:100EA000C5E9000100210846F5E7B3FA83F10029FE
:100EB00046D1734502D3824200F20581841A6EEB5B
:100EC000030201209046002DE5D0C5E90048E2E785
:100ED000002A00F09080B2FA82F6002E40F0A48042
:100EE0008A1A030C4FEA174E80B2BCB20121B2FB42
:100EF000FEFC0EFB1C2243EA024304FB0CF29A4266
:100F000007D9FB180CF1FF3802D29A4200F2E080B8
:100F1000C4469B1AB3FBFEF20EFB123340EA0343B6
:100F200002FB04F49C4207D9FB1802F1FF3002D205
:100F30009C4200F2CA8002461B1B42EA0C40A5E715
:100F4000C1F120068B4022FA06F71F430EFA01F486
:100F500020FA06F32EFA06FE4FEA1749234300FA59
:100F600001F81FFA87FCBEFBF9F01C0C09FB10EE20
:100F700044EA0E4400FB0CFEA64502FA01F209D930
:100F80003C1900F1FF3A80F09C80A64540F2998020
:100F900002383C44A4EB0E041FFA83FEB4FBF9F3C1
:100FA00009FB13444EEA044403FB0CFCA44508D996
:100FB0003C1903F1FF3E80F08280A4457FD9023BBB
:100FC0003C4443EA0040A4EB0C04A0FB02EC644563
:100FD0007346E14662D35FD05DB1B8EB030264EBC8
:100FE000090404FA06F622FA01F31E43CC40C5E9CF
:100FF000006400214FE7B1FBF2FC010C41EA0E4115
:1010000080B240EA01423B4638463C46B846BE46BE
:101010002026B1FBF7F1A2EB080241EA0C4166E79A
:10102000014618E710462CE7C6F120022EFA02F31B
:10103000B740B14020FA02F24FEA174E0A43B3FB21
:10104000FEF8BCB20EFB1833110C41EA034108FB59
:1010500004F9B04089454FEA104380B23ED979186F
:1010600008F1FF3C01D289451FD8A1EB0901B1FB72
:10107000FEF909FB04F80EFB191192B242EA014293
:10108000424529D2BA1809F1FF31C4D24245C2D231
:10109000A9F102013A44BEE7F0459DD2BEEB02033E
:1010A0006CEB070C0138E14696E7A7EB09094944C8
:1010B000A8F1020CB1FBFEF909FB04F8DBE773466B
:1010C0007FE7504666E70846FDE63B44023A33E7D1
:1010D000ACF1020C3B441CE749469CE7A1EB09013B
:1010E000C446B1FBFEF909FB04F8C4E7704700BF32
:1010F00080B586B000AF786039604FF000037B6147
:101100001E4BFB6000233B6118E03B699B007A6843
:10111000134493ED007AD7ED037A67EE277AB0EEA9
:10112000670A20F00DFDB0EE407AD7ED057A77EE34
:10113000877AC7ED057A3B6901333B613B693A68C1
:101140009A42E2D83B6807EE903AF8EE677A97ED5C
:10115000057AC7EE276AB0EE660A00F013F8F0EEE3
:10116000407A9FED077A67EE877AB2EE047A67EEEF
:10117000877AB0EE670A1837BD4680BDE3C86B3E7C
:101180009B209A3E80B586B000AF87ED010AD7ED6F
:10119000017AF0EEE77A07F10C031846B0EE670A21
:1011A0001CF0F0FC87ED050A224B3B6197ED047AB9
:1011B000D7ED057A67EE277AC7ED047AD7ED047A82
:1011C0009FED1D7A77EEC77AC7ED047A97ED047A22
:1011D000D7ED057A67EE277AC7ED047AD7ED047A62
:1011E0009FED167A77EE877AC7ED047A97ED047A49
:1011F000D7ED057A67EE277AC7ED047AD7ED047A42
:101200009FED0F7A77EEC77AC7ED047AFB6807EE99
:10121000903AF8EEE77A97ED047A77EE277AC7ED01
:10122000047A3B6907EE903AB0EE670A1837BD467C
:1012300080BD00BFA8A19D3FF5CA8340FBB3C0405D
:10124000E09248402DE9704F82B0164604784FEA8C
:101250009308826802F1140E426808324FEA081BB4
:1012600006EB0810019003F003094FEA890A00E039
:1012700031465EED052A1EED043A1EED034A5EED91
:10128000023A5EED014A154652ED026A52ED015AEC
:10129000B8F1000F00F08E8001F1100006F110038C
:1012A000C44610ED047A50ED037A10ED025A50ED69
:1012B000011A22EE872A32EE262A23EE076A63EE0F
:1012C000826A36EE266A36EE256A62EEA76A36EE46
:1012D000266A24EE077A64EE826A37EE267A63EE97
:1012E000276A63EE865A76EEA56A37EE267A62EEB4
:1012F000856A37EE267A64EE277A64EE866A77EEA0
:10130000A67A63EE056A63EE875A76EEA56A77EEF3
:10131000A67A62EEA16A77EEA67A24EE055A64EE0A
:10132000876A35EE265A63EE216A63EEA75A76EE97
:10133000A56A75EE266A24EE215A64EEA75A75EE68
:10134000255A03ED042A03ED036A03ED027A43ED07
:10135000017A10301033BCF1010CA2D15944019B29
:10136000B9F1000F19D001EB0A00B1EC017A62EE7D
:10137000877A77EEA67A63EE076A23EEA76A76EE9F
:10138000866A76EEA56A24EE077A64EEA75A77EEAF
:10139000255AE3EC017A8842E7D145ED026A45ED32
:1013A000015A0EF1140E0832013C7FF461AF02B015
:1013B000BDE8708F3346D3E780B584B000AF00231B
:1013C000FB810023BB8100237B8100233B8122E042
:1013D0003B895902FB1D0122184601F0F5FCFB79FF
:1013E000FF2B05D0FB890133FB810023BB810FE07C
:1013F000FB89002B06D0BB890133BB81BB89032B42
:1014000006D90FE07B8901337B817B89642B08D867
:101410003B8901333B813B8941F6FE729342D7D928
:1014200000E000BFFB8918461037BD4680BD80B57F
:1014300082B000AF00237B710023FB800EE0FB88AD
:1014400059027B1D0122184601F0BEFC7B79FF2B5F
:1014500001D0FB8808E0FB880133FB80FB8841F664
:10146000FE729342EBD9002318460837BD4680BD73
:1014700080B489B000AF87ED030AC7ED020A0346C6
:10148000FB7197ED037ADFED246AC7EE267AFCEE56
:10149000E77A17EE903ABB61BB69642202FB03F363
:1014A00007EE903AF8EE677A97ED037A37EE677AAF
:1014B000D7ED026A9FED196AC6EE867A77EE277A33
:1014C000C7ED057A97ED057ADFED156AC7EE267A46
:1014D000C7ED047ABB6907EE903AF8EE677A97EDAC
:1014E000047A77EE277AC7ED077AFB79532B02D07F
:1014F000FB79572B05D1D7ED077AF1EE677AC7ED67
:10150000077AFB6907EE903AB0EE670A2437BD46CA
:101510005DF8047B704700BF0000C8420050C3471D
:101520000000704280B590B004AF7860814978685F
:101530001AF076FE38613B69002B00F08D800023A5
:10154000FB623B69BB6237E0BB6A1B782C2B30D156
:10155000FB6A0133FB62FB6A012B0BD1BB6A0133CF
:101560000A220021184619F09DFD03461A46724BC7
:101570009A611EE0FB6A062B0CD1BB6A01330A227A
:101580000021184619F08EFD0346DAB26A4B83F843
:1015900022200EE0FB6A072B0BD1BB6A01330A2223
:1015A0000021184619F07EFD0346DAB2624B83F83B
:1015B0002320BB6A0133BB62BB6A1B78002B02D0BD
:1015C000FB6A092BC0DD5C4B93F82230002B43D023
:1015D0005A4B03935A4B02935A4B01935A4B009325
:1015E0005A4B554A5A4938691AF04EFD524B1B68FE
:1015F00007EE903AF8EE677A4F4B5B6807EE103AC9
:10160000B8EE477A4C4B93F820301846F0EE470A74
:10161000B0EE670AFFF72CFFF0EE407A464BC3EDC1
:10162000047A454B9B6807EE903AF8EE677A424B96
:10163000DB6807EE103AB8EE477A3F4B93F821305B
:101640001846F0EE470AB0EE670AFFF711FFF0EE1A
:10165000407A394BC3ED057A3E4978681AF0E0FDCF
:10166000F860FB68002B60D000237B62FB683B6264
:101670000023FB610023BB6100237B612FE03B6AF9
:101680001B782C2B28D17B6A01337B627B6A022B6F
:1016900009D13B6A01330A220021184619F002FDE4
:1016A0000346FB6118E07B6A032B09D13B6A0133D7
:1016B0000A220021184619F0F5FC0346BB610BE035
:1016C0007B6A042B08D13B6A01330A2200211846A9
:1016D00019F0E8FC03467B613B6A01333B623B6ADD
:1016E0001B78002B02D07B6A042BC8DDFB69002B22
:1016F0001BD0BB69002B18D07B69002B15D0FB6970
:1017000042F2107203FB02F2BB69642101FB03F396
:10171000D1187A69104BA3FB02035B09642000FB1C
:1017200003F3D31A0B44044A936300BF3037BD461A
:1017300080BD00BF081F0208CC2C0120ED2C012029
:10174000D82C0120D42C0120EC2C0120D02C0120FD
:10175000101F0208341F02081F85EB51B0B588B076
:1017600000AF0346FB710E4B07F10C041D460FCD75
:101770000FC42B682370FB79012B05D10123BB76A5
:101780002623FB766B233B7707F10C014FF0FF33E9
:10179000112204480EF083F800BF2037BD46B0BDCB
:1017A0003C1F0208D8070120B0B588B000AF7860B0
:1017B000094B07F10C041D460FCD0FC42B682360A5
:1017C00007F10C014FF0FF33142204480EF067F8C4
:1017D00000BF2037BD46B0BD501F0208D80701200A
:1017E00080B59EB000AF094A3B46114675221846A7
:1017F0001CF0B3F939464FF0FF33752204480EF060
:101800004EF800BF7837BD4680BD00BF641F020898
:10181000D8070120B0B586B000AF0C4B3C461D4642
:101820000FCD0FC495E803002060043421800234FA
:101830000B0C237039464FF0FF33172204480EF08B
:101840002EF800BF1837BD46B0BD00BFDC1F020830
:10185000D807012090B5B1B002AFF8600B467A60AE
:10186000FB72FF2387F8B730FB681B8887F8B63018
:1018700007F12003C7F8A83097F8B630002B00F026
:101880002A82FB7A042B00F2268201A252F823F06E
:101890000F190008891900089B190008911B0008FE
:1018A000D11C0008BC4B1B681946D7F8A8001AF0D9
:1018B000B7FCC7F88800D7F88830002B08D0FB7A2F
:1018C000B54A12681946B54801F0B4FC002303E29A
:1018D000B34B1B681946D7F8A8001AF0A1FCC7F84B
:1018E0008400D7F88430002B08D0FB7AD7F8A820E2
:1018F0001946AC4801F09EFC0123EDE1FB7AD7F8D4
:10190000A8201946A84801F095FC0223E4E100BF95
:10191000D7F8A810F86802F0BFFB0346002BC1D02F
:10192000D9E17968D7F8A8001AF07AFCC7F89000D6
:10193000D7F89030002B07D0FB7A7A681946974881
:1019400001F078FC0023C7E1954B1B681946D7F8D6
:10195000A8001AF065FCC7F88C00D7F88C30002B73
:101960000AD0FB7AD7F8A82019468E4801F062FC0D
:10197000012387F8B73007E0FB7A19468A4801F05F
:1019800059FC022387F8B730D7F8A810F86802F09E
:1019900083FB0346002BC4D09DE1002387F8B530BC
:1019A000E4E0D7F8A8300233804918461AF038FC32
:1019B000C7F8B000D7F8B030002B00F082800023C9
:1019C000A7F8AE30002387F899303FE0B7F8AE3083
:1019D000D7F8A8201344D7F8B020D31A87F8993045
:1019E00097F89930002B0ED097F89930632B0AD8CE
:1019F000B7F8AE30D7F8A820134497F899201946C5
:101A0000F86802F0DDFA97F899309AB2B7F8AE307C
:101A10001344A7F8AE30B7F8AE3004331C46D7F8FD
:101A2000A800FEF73DFC03469C420CD2B7F8AE304E
:101A30000433D7F8A82013445C4918461AF0F0FB89
:101A4000C7F8B00002E00023C7F8B030D7F8B030D4
:101A5000002BBBD1D7F8A800FEF722FC03469AB2B0
:101A6000B7F8AE30D31A9BB2043B9BB2A7F89630BE
:101A7000B7F99630002B13DDB7F99630632B0FDCE6
:101A8000B7F8963087F89930B7F8AE300433D7F806
:101A9000A820134497F899201946F86802F090FAA4
:101AA00064220021D7F8A8001AF09CFBFB681B8871
:101AB00087F8B630002387F8B730002387F8B530B1
:101AC0004FE07968D7F8A8001AF0AAFBC7F8B00071
:101AD000D7F8B030002B2ED0002387F89B3000239E
:101AE00087F89A307868FEF7DBFB0346DBB20233F7
:101AF000DBB287F89B30D7F8A800FEF7D1FB03468E
:101B000087F89A3097F99B2097F99A30D31A042BCB
:101B100007DD97F99B301A460021D7F8B0001AF07C
:101B200061FBFB7A7A6819461C4801F083FB0023AD
:101B300087F8B73029E01A4B1B681946D7F8A80078
:101B40001AF06EFBC7F8B000D7F8B030002B08D001
:101B5000FB7AD7F8A8201946124801F06BFB012345
:101B6000BAE097F8B530013387F8B530D7F8A81048
:101B7000F86802F091FA0346002B06D197F8B520D9
:101B800097F8B6309A427FF60CAF97F8B730A3E0DB
:101B9000002387F8B5308BE004000020C82002083D
:101BA00000000020E4200208082102082821020881
:101BB000D7F8A83002334A4918461AF031FBC7F863
:101BC000A4004849D7F8A8001AF02AFBC7F8A400D7
:101BD000D7F8A430002B5CD0FB7A1946424801F0BC
:101BE00029FB0023FB610023BB6100237B610023F1
:101BF0003B6107F1180107F11C0207F11003019383
:101C000007F1140300930B463849D7F8A4001AF0E3
:101C10003BFA0346032B2BDDF969BA697B6934482B
:101C200001F008FB3B69102B22D12C21D7F8A4002E
:101C30001AF0E0FAC7F8A000D7F8A030002B17D0B0
:101C4000D7F8A0300133C7F89C3010220021D7F814
:101C50009C0019F0C7FA02460B462649C1E9002349
:101C6000254B01221A70D7F89C10244801F0E2FAA3
:101C700064220021D7F8A8001AF0B4FA002387F8EC
:101C8000B730002387F8B530FB681B8887F8B6307B
:101C900009E0FB7AD7F8A8201946194801F0CAFADA
:101CA000022387F8B73097F8B530013387F8B5309D
:101CB000D7F8A810F86802F0EFF90346002B09D115
:101CC00097F8B52097F8B6309A427FF671AF01E0E9
:101CD000002301E000BF03231846BC37BD4690BD7A
:101CE00028210208302102083C2102086021020854
:101CF000942102086803012070030120C421020816
:101D0000D021020880B5A0B000AFF860B9607A6059
:101D10003B60FF2387F87F3007F110036422002126
:101D200018461AF05FFA34E007F11003B968184654
:101D30001AF076FAB867BB6F002B0DD03A68796855
:101D4000B86F1AF0A1F90346002B22D03968184861
:101D500001F070FA002327E0164B1A6807F1100310
:101D6000114618461AF05CFA78677B6F002B07D093
:101D700007F110031946104801F05CFA012313E043
:101D800007F1100319460D4801F054FA022387F8B1
:101D90007F3007F110031946F86802F07DF9034619
:101DA000002BC1D097F97F3018468037BD4680BDE3
:101DB000F82102080000002018220208342202083C
:101DC00080B584B000AF7860084BFB606323FB7282
:101DD000074801F02FFA074B1B681A4603210648F3
:101DE000FFF738FD00BF1037BD4680BDCDCC8C3F1E
:101DF00050220208080000204C31012080B584B038
:101E000000AF0346FB8000211A4800F045FC034662
:101E1000BB730023FB7315E00A2015F09BF9002229
:101E200000211548FFF716FD0346002B07D1134884
:101E300001F000FA124800F059FE002316E0FB7B87
:101E40000133FB73FB7B9AB2FB880E49A1FB0313A2
:101E5000DB089BB29A42DFD3BB7B19460A4801F0EC
:101E6000E9F9074800F0EEFC4FF0FF331846103751
:101E7000BD4680BD483502084C3101207022020861
:101E80002A020120CDCCCCCC8422020890B58BB0A4
:101E900000AF78600B467B800021254800F0FCFBFA
:101EA000034687F82630234B07F10C040FCB07C4F9
:101EB000238002341B0C23701F4B3B621F4BFB61C2
:101EC000002387F827301FE0142015F043F907F1AD
:101ED0000C03FA69396A1A48FFF714FF0346002B0E
:101EE0000DD107F10C0308330622194678681BF060
:101EF00034FE7968134801F09DF9002314E097F847
:101F00002730013387F8273097F827309AB27B883B
:101F10000D49A1FB03131B099BB29A42D4D30B4872
:101F200001F088F94FF0FF3318462C37BD4690BDBD
:101F300058350208E8220208A0220208A822020856
:101F40004C310120B4220208CDCCCCCCD0220208E6
:101F500080B586B000AF03460A46FB8013467B710E
:101F60000023FB7554E00021314800F095FB034647
:101F70007B7597F91530002B44DB2E4B3B612E4BC4
:101F8000FB600023BB7533E0322015F0E3F82B4BE8
:101F9000FA6839692A48FFF7B5FE0346002B24D1B9
:101FA000FB7D591C7A79274B93F90230264801F0C2
:101FB00041F9244B93F90230052B04D0214B93F9BE
:101FC0000230012B04D1214800F090FD00232BE0CA
:101FD0001C4B93F90230022B07D11D4801F02AF95E
:101FE0000023BB75322015F0B5F8BB7D0133BB75FE
:101FF000BB7D9AB2FB881749A1FB03131B099BB257
:102000009A42C1D3642015F0A5F8FB7D0133FB751E
:10201000FA7D7B799A42A6D30F4801F00BF90B4861
:1020200000F010FC4FF0FF3318461837BD4680BD56
:102030004C350208382302084023020826020120FA
:102040004C31012024020120542302082B020120DC
:10205000782302081F85EB519C23020880B584B0C9
:1020600000AF0346FB80214B1B78012B01D10023DD
:1020700037E000211E4800F00FFB0346BB7397F9C1
:102080000E30002B25DB0023FB7318E00A2015F02F
:1020900061F8002200211748FFF7DCFB0346002B04
:1020A0000AD1154801F0C6F8104B01221A701348E6
:1020B00000F01CFD002314E0FB7B0133FB73FB7B72
:1020C0009AB2FB880E49A1FB0313DB089BB29A422C
:1020D000DCD30C4801F0AEF8084800F0B3FB4FF039
:1020E000FF3318461037BD4680BD00BF24020120D3
:1020F000643502084C310120B82302082C0201206B
:10210000CDCCCCCCD423020880B584B000AF03463C
:10211000FB80304B1B78002B01D1002355E00021C0
:102120002D4800F0B9FA0346BB7397F90E30002B27
:1021300043DB0023FB7336E0C82015F00BF8274B78
:102140001B681A4600212648FFF784FB03467B7371
:1021500097F90D30002B02D0012B0BD01DE0214848
:1021600001F068F81B4B00221A701F4800F0BEFCFB
:1021700000232AE00021184800F08EFA0346BB73C2
:1021800097F90E30002B08D0184801F053F8164884
:1021900000F058FB4FF0FF3317E0154801F04AF804
:1021A000FB7B0133FB73FB7B9AB2FB881149A1FBDC
:1021B00003139B099BB29A42BED30F4801F03AF831
:1021C000094800F03FFB4FF0FF3318461037BD467B
:1021D00080BD00BF240201207435020804000020E5
:1021E0004C310120F02302082D02012008240208AE
:1021F000242402081F85EB514824020880B590B0C2
:1022000000AF0346FB802C4B5B78012B01D10023F0
:102210004EE0294B0022DA70284B1B8807F10C0096
:10222000274A284919F00EFF07F10C030021184630
:1022300000F032FA034687F83E30234BBB63234B52
:102240007B63002387F83F301FE00A2014F082FFF1
:102250001F4B7A6BB96B1F48FFF754FD0346002BE9
:102260000ED1154B93F9033019461B4800F0E2FFDD
:102270001A4800F03BFC104B01225A70002317E073
:1022800097F83F30013387F83F3097F83F309AB2E4
:10229000FB881349A1FB0313DB089BB29A42D4D3FA
:1022A000104800F0C7FF0D4800F0CCFA4FF0FF33A4
:1022B00018464037BD4680BD2402012034A00208E4
:1022C00024A00208642402087C240208882402084E
:1022D000270201204C310120982402082E020120FF
:1022E000CDCCCCCCBC24020880B58EB000AF034668
:1022F000FB80284B5B78002B01D1002346E0254B67
:1023000093F903301A4607F10C032349184619F0D4
:1023100099FE07F10C030021184600F0BDF90346B1
:1023200087F83630002387F837301CE0142014F08B
:1023300011FF1A4B1B681A4600211948FFF78AFA49
:102340000346002B0AD1174800F074FF114B0022FE
:102350005A70154800F0CAFB002317E097F8373091
:10236000013387F8373097F837309AB2FB880F4936
:10237000A1FB03131B099BB29A42D7D30C4800F070
:1023800059FF094800F05EFA4FF0FF33184638371E
:10239000BD4680BD24020120D8240208040000208C
:1023A0004C310120EC2402082F020120CDCCCCCCF2
:1023B0000425020890B591B002AF03463960FB8056
:1023C0001346BB802A4B93F903301C46FA8801233D
:1023D000194607F10C003B68019300911346224611
:1023E000244919F02FFE07F10C030021184600F0D4
:1023F00053F9034687F83630002387F837301CE05E
:102400000A2014F0A7FE1C4B1B681A4600211B482B
:10241000FFF720FA0346002B0AD107F10C031946F7
:10242000174800F007FF174800F060FB00231AE090
:1024300097F83730013387F8373097F837309AB24A
:10244000BB881149A1FB0313DB089BB29A42D7D387
:102450000E4800F0EFFE0E4800F0ECFE094800F0D8
:10246000F1F94FF0FF3318463C37BD4690BD00BF31
:102470002402012020250208040000204C31012004
:102480003C25020830020120CDCCCCCC54250208DA
:102490007425020880B590B002AF0346FB80264B3E
:1024A00093F903301A4607F10C00244B01930B23D8
:1024B00000930123224919F0C5FD07F10C03002107
:1024C000184600F0E9F8034687F83630002387F80D
:1024D000373019E00A2014F03DFE1A4B1B681A46EB
:1024E00000211948FFF7B6F90346002B07D117481A
:1024F00000F0A0FE164800F0F9FA002317E097F864
:102500003730013387F8373097F837309AB2FB8885
:102510001049A1FB0313DB089BB29A42DAD30E48A1
:1025200000F088FE0A4800F08DF94FF0FF3318469E
:102530003837BD4680BD00BF240201202435020883
:1025400090250208040000204C310120B02502082B
:1025500031020120CDCCCCCCCC25020880B5A0B076
:1025600002AF78600B467B8013463B803E4B93F96D
:1025700003301A467B8807F10C0001933B4B009314
:102580003B4B3C4919F05EFD07F10C030021184656
:1025900000F082F8034687F87530374B3B6700231D
:1025A00087F8773049E00A2014F0D4FD3A6F022111
:1025B0003248FFF74FF90346002B39D1304800F07D
:1025C00039FE0A2014F0C6FD7B88DBB21946786814
:1025D00000F062F8034687F8753097F8773087F88F
:1025E000763019E0274B1B681A4600212348FFF775
:1025F00031F90346002B07D1234800F01BFE234886
:1026000000F074FA00232BE00A2014F0A3FD97F8E1
:102610007630013387F8763097F876309AB23B8877
:102620001B49A1FB0313DB089BB29A42DAD30FE0EC
:1026300097F87730013387F8773097F877309AB288
:102640003B881349A1FB0313DB089BB29A42AAD330
:10265000104800F0EFFD0D4800F0F4F84FF0FF33A4
:1026600018467837BD4680BD240201201026020896
:102670006426020868260208882602084C310120D8
:102680008C26020804000020A42602083202012041
:10269000CDCCCCCCC026020880B584B000AF786029
:1026A0000B46FB700023BB73FB78002B05D17868C9
:1026B000FDF7F6FD0346FB7301E0FB78FB73FB7B44
:1026C0009BB21A4679680A480DF072F90346BB734B
:1026D000BB7B002B07D0BB7B1946064800F0AAFD48
:1026E0004FF0FF3300E0002318461037BD4680BD91
:1026F000E8080120E026020880B588B000AFF86045
:102700007A601A460B46FB7213463B810023FB7628
:102710000023FB770023BB7700237B7700237B61BB
:10272000FB7A002B05D1F868FDF7BAFD03463B772D
:1027300001E0FB7A3B7701223B493C480DF0B4F9BC
:102740000346FB76FB7E002B06D0FB7E19463848FD
:1027500000F070FD002362E03B7F9BB21A46F968EF
:1027600032480DF025F90346FB76FB7E002B06D0A0
:10277000FB7E19462F4800F05DFD00234FE02E4BF5
:102780001B683A891146184612F0DCFF78617B69B4
:10279000002B3FD1244AF968284800F04BFD32E075
:1027A000FB7F214AD35C0D2B18D1BB7F002B0BD0B4
:1027B0007B7F642202FB03F37A681A44BB7F00210B
:1027C000D1547B7F01337B770023BB77FB7F0133C1
:1027D000FB77FB7F144A0021D1540DE0F97F7B7F0A
:1027E000642202FB03F37A681A44BB7F0E48415C03
:1027F000D154BB7F0133BB77FB7F0B4A0021D154FF
:10280000FB7F0133FB77FB7F074AD35C002BC7D1EB
:102810007B7F04E079690A4800F00CFD002318462C
:102820002037BD4680BD00BF30300120E8080120C0
:10283000EC260208E0260208F00C0120F826020827
:102840000827020880B582B000AF78607B681B78EB
:102850000133DAB27B681A707B681B7819468E48A0
:1028600000F0E8FC7B681B78042B8CBF012300235D
:10287000DBB218467B68894A93420CBF01230023D0
:10288000DAB27B6886498B420CBF01230023DBB29E
:102890001343DBB219467B68824A93420CBF012383
:1028A0000023DBB20B437A687F498A420CBF0122C6
:1028B0000022D2B213437A687C498A420CBF0122BB
:1028C0000022D2B213437A6879498A420CBF0122AE
:1028D0000022D2B213437A6876498A420CBF0122A1
:1028E0000022D2B213437A6873498A420CBF012294
:1028F0000022D2B213430340002B08D06F4800F0EF
:1029000099FC00F001F900F01FF901F0E3FA7B688F
:102910001B78012B8CBF01230023DBB218467B6898
:10292000674A93420CBF01230023DAB27B686549F2
:102930008B420CBF01230023DBB21343DBB2034005
:10294000002B2DD07B681B78032B0DD87B681B7860
:1029500019465D4800F06EFC5C4B1B684EF660212A
:10296000184612F029FD0BE07B681B781946584881
:1029700000F060FC554B1B685649184612F01CFDD0
:1029800000224FF400714FF0904006F0FDFA524BD8
:1029900001225A71514B1B68184612F025FF77E04F
:1029A0007B681B78012B8CBF01230023DAB27B6884
:1029B0004B498B420CBF01230023DBB21340DBB237
:1029C000002B65D0444B93F90230002B0CBF012340
:1029D0000023DAB2404B93F90230032B0CBF0123E2
:1029E0000023DBB21343DBB21A463B4B93F90230B0
:1029F000042B0CBF01230023DBB21343364A92F9A8
:102A00000220022A0CBF01220022D2B21343324A12
:102A100092F90220052ACCBF01220022D2B2134330
:102A2000002B28D02C4B1B791A461346DB009B1A2F
:102A30002C4A1344184600F0B9F8274B1B79013390
:102A4000DAB2254B1A71244B1B79022B02D9224B87
:102A500000221A71244800F0EDFB1F4B01225A712D
:102A60000A2014F077FB194B1B684EF660211846BC
:102A700012F0A2FC0AE0184B93F90230B3F1FF3FC9
:102A800004D10E4800F0D6FB00F05EF800F03CF8F0
:102A90000837BD4680BD00BF182702082A02012062
:102AA00030020120310201202C0201202E020120DF
:102AB0002F0201202D0201203302012030270208BD
:102AC000320201203402012044270208D00C0120E8
:102AD00070270208C027090024020120040D0120EC
:102AE0002B020120303502089C27020880B483B0F5
:102AF00000AF78607B6800221A7000BF0C37BD46BB
:102B00005DF8047B7047000080B500AF0C4B0022DD
:102B10009A710B4B0022DA71094B00221A73084B91
:102B200000229A72064B00225A73054B00229A73B8
:102B3000034B00221A72034800F07CFB00BF80BDEB
:102B400024020120D427020880B500AF154B0022D3
:102B50009A70144B00225A70124B00221A70114BBB
:102B60006322DA700F4B00221A710E4B03225A7146
:102B700000224FF400714FF0904006F005FA6420F7
:102B800014F0E8FA01224FF400714FF0904006F083
:102B9000FBF9054800F04EFB642014F0DBFA00BF9F
:102BA00080BD00BF24020120E827020880B59EB046
:102BB00000AF786007F10C037A681B49184619F0DA
:102BC00041FA07F10C031946184800F033FB07F1EE
:102BD0000C004FF47A73164A0021FFF78DFD03466F
:102BE00087F8733097F87330002B17D000237B677A
:102BF0000DE07B6F642202FB03F30D4A13441A4677
:102C0000796F0C4800F016FB7B6F01337B6797F8F8
:102C100073307A6F9A42ECDB002301E04FF0FF3310
:102C200018467837BD4680BD242802083828020897
:102C3000380201204028020880B483B000AF7860D9
:102C400000BF0C37BD465DF8047B704780B500AF10
:102C5000012210214FF0904006F096F900BF80BD90
:102C600080B500AF002210214FF0904006F08CF9A3
:102C700000BF80BD80B582B000AF1E4B05221A7028
:102C8000FFF7EEFF01221B491B480BF03BFC0346FC
:102C9000FB711A4B1B684FF0FF31184612F052FDC2
:102CA000FB79002B01D004F015FA154B01221A70A4
:102CB00014E00122124910480BF012FD0346FB718B
:102CC000104B1B684FF0FF31184612F03BFDFB79AB
:102CD000002B03D0FFF7BAFF04F0FCF9084B1B7878
:102CE00003F00103002BE4D1FFF7B0FF00BF08376A
:102CF000BD4680BD74030120C80B0120E80C0120F3
:102D0000D8050120EC0C012080B582B000AF002373
:102D1000FB7000237B60FFF7A3FF104B06221A70A5
:102D200001220E490E480BF0EDFB0346FB700D4BE4
:102D30001B684FF0FF31184612F004FDFFF786FFC5
:102D4000FB78002B03D04FF0FF337B6001E00023C2
:102D50007B607B6818460837BD4680BD7403012040
:102D6000C80B0120E80C012080B582B000AF002321
:102D7000FB7000237B60FFF773FF114B04221A7076
:102D80004FF6FF7301220E490E480BF045FA034639
:102D9000FB70FFF75BFF40F262220021084819F048
:102DA00021FAFB78002B03D04FF0FF337B6001E06A
:102DB00000237B607B6818460837BD4680BD00BF96
:102DC00074030120C80B012080B586B000AFF86005
:102DD000B9607A600023FB7500233B61264B032218
:102DE0001A70BB681B0CDAB2234B5A70BB681B0A03
:102DF000DAB2214B9A70BB68DAB21F4BDA70FFF778
:102E00002FFF04221C491D480BF07CFB0346FB7579
:102E10001B4B1B684FF0FF31184612F093FCFB7DF3
:102E2000002B02D0FFF712FF11E07B689BB21A461D
:102E3000F96812480BF054FC0346FB75114B1B68F4
:102E40004FF0FF31184612F07DFCFFF7FFFE40F215
:102E500062220021084819F0C5F9FB7D002B03D040
:102E60004FF0FF333B6101E000233B613B691846B3
:102E70001837BD4680BD00BF74030120C80B012078
:102E8000E80C0120EC0C012080B58EB000AFF8609A
:102E9000B9607A60002387F8373000233B63BB6852
:102EA000FB627B68FB610023BB6200237B62FB6AE1
:102EB000002B42D19F4B02221A70FB6A1B0CDAB224
:102EC0009C4B5A70FB6A1B0ADAB29A4B9A70FB6AE7
:102ED000DAB2984BDA700023BB620AE0FA68BB6A88
:102EE0001A44BB6A04331178924AD154BB6A013345
:102EF000BB62BA6AFB699A42F0D3FFF7B1FEFB6985
:102F00009BB204339BB21A468A498B480BF0FAFAFB
:102F1000034687F83730894B1B684FF0FF3118465E
:102F200012F010FCFFF792FEFFF7A4FE40F26222BF
:102F30000021804819F056F937E1FB6A5B0ABB6152
:102F4000FA6AFB6913445B0A7B61BA697B699A423E
:102F50003BD1784B02221A70FB6A1B0CDAB2754B1C
:102F60005A70FB6A1B0ADAB2724B9A70FB6ADAB2C9
:102F7000704BDA700023BB620AE0FA68BB6A1A443D
:102F8000BB6A043311786B4AD154BB6A0133BB620C
:102F9000BA6AFB699A42F0D3FFF762FEFB699BB203
:102FA00004339AB24FF6FF73624963480BF034F969
:102FB000034687F83730FFF749FEFFF75BFE40F224
:102FC000622200215B4819F00DF97A69BB699A42C7
:102FD00040F2EB80BB693B62E2E03A6ABB699A422D
:102FE00049D13B6A01335A02BB68D31AFB61514B8A
:102FF00002221A70FB6A1B0CDAB24E4B5A70FB6A43
:103000001B0ADAB24B4B9A70FB6ADAB2494BDA70A0
:103010000023BB620DE0FA687B6A1A44BB6A043382
:103020001178444AD1547B6A01337B62BB6A013315
:10303000BB62BA6AFB699A42EDD3FFF711FEFB69E6
:103040009BB204339AB24FF6FF733A493A480BF0F9
:10305000E3F8034687F83730FFF7F8FDFFF70AFE7D
:1030600040F262220021334819F0BCF8FA6AFB6989
:103070001344FB6291E03A6A7B699A4245D1BA688F
:103080007B681344C3F30803FB612A4B02221A70C6
:10309000FB6A1B0CDAB2274B5A70FB6A1B0ADAB2C6
:1030A000244B9A70FB6ADAB2224BDA700023BB62BF
:1030B0000DE0FA687B6A1A44BB6A043311781D4A32
:1030C000D1547B6A01337B62BB6A0133BB62BA6A4B
:1030D000FB699A42EDD3FFF7C3FDFB699BB2043352
:1030E0009AB24FF6FF73134913480BF095F8034655
:1030F00087F83730FFF7AAFDFFF7BCFD40F26222E8
:1031000000210C4819F06EF847E00A4B02221A70B1
:10311000FB6A1B0CDAB2074B5A70FB6A1B0ADAB265
:10312000044B9A70FB6ADAB2024BDA700023BB627E
:1031300014E000BF74030120C80B0120E80C01203B
:10314000FA687B6A1A44BB6A043311781E4AD15468
:103150007B6A01337B62BB6A0133BB62BB6AB3F536
:10316000007FEDD3FFF77CFD4FF6FF734FF4017244
:10317000154916480BF050F8034687F83730FFF72B
:1031800065FDFFF777FD40F2622200210E4819F03D
:1031900029F8FB6A03F50073FB623B6A01333B626B
:1031A0003A6A7B699A427FF618AF97F83730002B5E
:1031B00003D04FF0FF333B6301E000233B633B6BE5
:1031C00018463837BD4680BD74030120C80B012066
:1031D00080B582B000AF0023FB7000237B60134BEF
:1031E000C7221A70FFF73CFD4FF6FF7301220F490B
:1031F0000F480BF011F80346FB70FFF727FDFFF7B0
:1032000039FD40F262220021084818F0EBFFFB78FC
:10321000002B03D04FF0FF337B6001E000237B6085
:103220007B6818460837BD4680BD00BF7403012087
:10323000C80B01200FB480B5C2B000AF07F58A7289
:1032400007F58473A3F584731A6007F58473A3F5F7
:103250008473381D1B68D7F810214FF4807118F063
:10326000B3FF3B1D1846FDF71BF80346C7F80431B2
:1032700011F014FF0346022B0FD102E0012011F0E0
:10328000EEFFD7F804319AB2391D32230B480CF007
:1032900006FB0346022BF1D008E0D7F804319AB2BE
:1032A000391D4FF47A7305480CF0F9FA00BF07F5A1
:1032B0008477BD46BDE8804004B0704760080120B7
:1032C00080B582B000AF04F010FDF1EE103A7B60E3
:1032D0007B6843F080737B607B683B603B68E1EE1A
:1032E000103A00BF00F04EF900F054FB00F0E2F994
:1032F000642004F033FD734B5B68724A43F01003A3
:1033000053604FF4FA7004F029FD6E4B5B6903F4CF
:103310008053B3F5805F17D06B48FFF78BFF03F046
:1033200099F800F037FB00F0D3FA00F08FF900F0C5
:1033300021FA00F05BFA00F0BDF900F08BFA00F022
:10334000E9F915F051FE1AE06048FFF773FF5D4B95
:103350005B685C4A23F01003536003F017F800F039
:1033600019FB00F0B5FA00F071F900F003FA00F073
:103370003DFA00F09FF900F06DFA00F0CBF911F082
:1033800069FE534812F046F80346524A1360524809
:1033900012F040F80346514A1360514A00210120BF
:1033A00012F046F903464F4A13604F4A00210120AC
:1033B00012F03EF903464D4A13604D4A00210120A8
:1033C00012F036F903464B4A13604B4A00210120A4
:1033D00012F02EF90346494A1360494A00210120A0
:1033E00012F026F90346474A1360474A002101209C
:1033F00012F01EF90346454A1360454A0021012098
:1034000012F016F90346434A1360434A0021012093
:1034100012F00EF90346414A1360414A002101208F
:1034200012F006F903463F4A13603F4A002101208B
:1034300012F0FEF803463D4A13603D4A0121012087
:1034400012F0F6F803463B4A13603B4B0022002182
:103450003A4811F035FF0346394A1360394A0121D1
:103460001E2012F005FA0346374A1360374A01213D
:10347000282012F0FDF90346354A1360354A002131
:10348000354811F053FE0346344A1360344A002194
:10349000344811F04BFE0346334A1360334A00218F
:1034A000334811F043FE0346324A1360324A00218A
:1034B000324811F03BFE0346314A136011F010FE12
:1034C00000BFFDE700700040A8290208B4290208E7
:1034D0007C9E0208D40C01208C9E0208D80C01208E
:1034E0009C9E0208DC0C0120AC9E0208E00C01202E
:1034F000BC9E0208E40C0120CC9E0208E80C0120CE
:10350000DC9E0208EC0C0120EC9E0208F00C01206D
:10351000FC9E0208F40C01200C9F0208F80C01200C
:103520001C9F0208FC0C01202C9F0208000D0120AA
:103530003C9F0208040D01206C9E0208697000087F
:10354000D00C01203C9E0208C80C0120549E0208A9
:10355000CC0C0120D09D02081D660008BC0C012087
:10356000F49D0208B1680008C00C0120189E0208F2
:10357000596F0008C40C0120B89F0208415300088D
:10358000140D012080B596B000AF07F1140344225A
:103590000021184618F026FE3B4600221A605A60A9
:1035A0009A60DA601A614FF4007007F079FA034606
:1035B000002B01D003F08EFD07F054FA224BD3F814
:1035C0009030214A23F01803C2F8903027237B6102
:1035D0004FF48033BB610123FB614FF480733B6286
:1035E0000123BB6340237B620223FB6303233B6411
:1035F00002237B641323BB641323FB6408233B6512
:1036000002237B6507F11403184607F0AFFA03465F
:10361000002B01D003F05EFD0F233B6002237B6093
:103620000023BB600023FB6000233B613B4601217C
:10363000184607F0B3FE0346002B01D003F04AFD05
:1036400000BF5837BD4680BD0010024080B500AFB6
:10365000164B174A1A60154B4FF416525A60134B0B
:1036600000229A60114B0022DA60104B00221A618E
:103670000E4B0C225A610D4B00229A610B4B00221B
:103680001A620A4B40225A62084B4FF480121A64A5
:10369000064B00225A6405480CF076F80346002BCE
:1036A00001D003F017FD00BF80BD00BFD807012087
:1036B0000080004080B500AF134B144A1A60124BD3
:1036C000134A5A60104B00229A600F4B0022DA60B6
:1036D0000D4B00221A610C4B0C225A610A4B00223E
:1036E0009A61094B0022DA61074B00221A62064BED
:1036F00000225A6204480CF047F80346002B01D020
:1037000003F0E8FC00BF80BD6008012000380140E4
:10371000801A060080B500AF144B154A1A60134B8F
:103720004FF4E1325A60114B00229A600F4B002295
:10373000DA600E4B00221A610C4B0C225A610B4BC3
:1037400000229A61094B0022DA61084B00221A62BA
:10375000064B00225A6205480CF016F80346002B6F
:1037600001D003F0B7FC00BF80BD00BFE808012016
:103770000048004080B500AF194B1A4A1A60184B38
:1037800000225A60164B7F229A60154BFF22DA60A6
:10379000134B00221A61124B00225A61104B002277
:1037A0009A610F4B0022DA610D4809F077F9034660
:1037B000002B01D003F08EFC0B4B00229A600A4BC9
:1037C00000225A60084B00221A60074B0122DA607F
:1037D000054B01221A61044B22225A6100BF80BDB1
:1037E000D80A012000280040300D012080B500AF2C
:1037F000164B174A1A60154B01225A60134B0022D0
:103800009A60124B00221A61104B00225A610F4B32
:1038100000229A610D4B4FF4FA42DA610B4B002201
:10382000DA600A4B4FF480525A62084B00229A62C7
:10383000022302220021054809F0BEFD0346002BA9
:1038400001D003F047FC00BF80BD00BFFC0A01208F
:103850000454014080B500AF1B4B1C4A1A601A4B40
:103860004FF482725A60184B00229A60164B4FF444
:10387000E062DA60144B00221A61134B00225A6195
:10388000114B4FF400729A610F4B1022DA610E4B0C
:1038900000221A620C4B00225A620B4B00229A62E1
:1038A000094B0722DA62084B00221A63064B0822F2
:1038B0005A6305480AF00DFC0346002B01D003F0C3
:1038C00009FC00BF80BD00BFC80B012000300140D3
:1038D00080B582B000AF2E4B9B6C2D4A43F00203A3
:1038E00093642B4B9B6C03F002037B607B68284B3B
:1038F0009B6C274A43F001039364254B9B6C03F0B8
:1039000001033B603B68002206210C2004F026FBEB
:103910000C2004F03FFB002206210D2004F01EFBCA
:103920000D2004F037FB002205210E2004F016FBC9
:103930000E2004F02FFB00220621382004F00EFB9D
:10394000382004F027FB002206213A2004F006FB71
:103950003A2004F01FFB002205213B2004F0FEFA70
:103960003B2004F017FB00220621442004F0F6FA65
:10397000442004F00FFB00220521452004F0EEFA5C
:10398000452004F007FB00BF0837BD4680BD00BFDF
:103990000010024080B58AB000AF07F11403002286
:1039A0001A605A609A60DA601A61414BDB6C404AD7
:1039B00043F00403D3643E4BDB6C03F004033B6130
:1039C0003B693B4BDB6C3A4A43F08003D364384B92
:1039D000DB6C03F08003FB60FB68354BDB6C344A27
:1039E00043F00103D364324BDB6C03F00103BB6093
:1039F000BB682F4BDB6C2E4A43F00203D3642C4B85
:103A0000DB6C03F002037B607B680022C121294844
:103A100005F0BAFA00224FF404714FF0904005F01F
:103A2000B3FAC1237B610123BB610023FB61002347
:103A30003B6207F1140319461E4805F051F81023A4
:103A40007B610123BB610023FB6103233B6207F120
:103A5000140319464FF0904005F042F84FF400531C
:103A60007B614FF40413BB610123FB6107F1140375
:103A70001946114805F034F84FF400737B610123B7
:103A8000BB610123FB6102233B6207F1140319466A
:103A90004FF0904005F024F800220621282004F081
:103AA0005DFA282004F076FA00BF2837BD4680BDB5
:103AB00000100240000800480004004880B582B0B1
:103AC00000AF0346FB7100224021064805F05CFA76
:103AD000FB791A468021034805F056FA00BF0837E3
:103AE000BD4680BD0008004880B582B000AF0346E7
:103AF000FB71FB791A464021054805F045FA002282
:103B00008021034805F040FA00BF0837BD4680BD5C
:103B10000008004880B483B000AF0346FB71134B2C
:103B20001B88C82B02D14FF0FF3319E0104B1B88C4
:103B30001946104AFB7953540C4B1B8801339AB237
:103B40000A4B1A800A4B1B8801339AB2084B1A8021
:103B5000074B1B88C82B02D1054B00221A8000237B
:103B600018460C37BD465DF8047B70476C0E01208B
:103B70006E0E0120A40D012080B582B000AF034677
:103B8000FB80282004F014FAFB8803F40053002B78
:103B900004D0064B1B68184611F026FE0448FFF7B8
:103BA00049FB00BF0837BD4680BD00BFE40C0120C3
:103BB000C029020880B582B000AF78600348FFF7E3
:103BC00039FB00BF0837BD4680BD00BFE0290208B1
:103BD00080B582B000AF7860054B00221A70054BAB
:103BE0001B68184611F000FE00BF0837BD4680BDB7
:103BF000980E0120DC0C012080B582B000AF786007
:103C0000054B01221A70054B1B68184611F0ECFD9C
:103C100000BF0837BD4680BD980E0120DC0C012096
:103C200080B584B000AF78600B467B807B681B68F2
:103C3000524A934240F09E800023FB81504B1B88E8
:103C40007A889A4213D94E4B1B887A88D31AFB8103
:103C50004C4B1B684C4A12881344494A128811463F
:103C60004A4A1144FA89184619F077FF2BE0444B71
:103C70001B887A889A4226D2414B1B88C3F1FF03E6
:103C8000FB81404B1B68404A128813443C4A12880F
:103C900011463E4A1144FA89184619F05EFF7B88A6
:103CA000002B10D0374B1B68374A12881146FA890F
:103CB0000A4413447A883549184619F04EFFFA89A8
:103CC0007B881344FB81FB89002B53D02E4B1A8831
:103CD000FB8913449AB22C4B1A80294A7B881380A3
:103CE000294B1B88FE2B0AD9264B1B68FF2200217B
:103CF000184618F077FA244B00221A803AE0224B3B
:103D00001B88012B36D91F4B1A681F4B1B88023B9F
:103D100013441B780D2B2DD11A4B1A681A4B1B8894
:103D2000013B13441B780A2B24D1164B1B68164AFF
:103D30001288134400221A70124B1B68144A136035
:103D4000144B1B680F4A1360114B1B68114A136018
:103D50000C4B1B68FF220021184618F043FA0A4B4F
:103D600000221A800A4B01221A710B4B1B6818465D
:103D700011F03AFD00BF1037BD4680BD0080004005
:103D8000243001201C00002026300120242F012097
:103D90002830012020000020FC0C012080B582B0DA
:103DA00000AF7860194B1B78012B0ED17B68184A45
:103DB000934227D1174B1B781846FFF7ABFE012221
:103DC000144913480BF070FE1CE07B68104A9342C4
:103DD00018D1114B1B88002B04D1104B1B681846BF
:103DE00011F002FD0C4B1B881A460D4B13440122A7
:103DF000194607480BF058FE074B1B8801339AB24F
:103E0000054B1A8000BF0837BD4680BD9F0D0120BD
:103E1000E8080120A00D01202A310120040D012015
:103E20003030012080B582B000AF7860044B1B6851
:103E3000184611F0D9FC00BF0837BD4680BD00BF51
:103E4000E80C012080B582B000AF7860044B1B689D
:103E5000184611F0C9FC00BF0837BD4680BD00BF41
:103E6000EC0C012080B58EB000AF00221649174837
:103E700008F039FF00221649144809F017F8144BCE
:103E80005B78013B7B61124B9B783B61104BDB788D
:103E9000FB86FB8E64339BB2BB610B4B1B78FB60D4
:103EA000094B5B78BB60084B9B787B603B1D1846D9
:103EB00018F0AEFBC7E90A01D7E90A2310461946F4
:103EC0003837BD4680BD00BF180D0120D80A01203B
:103ED0002C0D012080B500AF11480BF0C3FE104837
:103EE0000BF02EFE0E480BF09DFC002206210C204C
:103EF00004F034F80C2004F04DF8002206210D20C7
:103F000004F02CF80D2004F045F8FFF703FC6420C2
:103F100013F020F90348FFF78DF900BF80BD00BF03
:103F2000E8080120EC29020880B483B000AF786073
:103F3000134B1B88002B02D14FF0FF331AE0114BBB
:103F40001B881A46104B9A5C7B681A700C4B1B88B6
:103F5000013B9AB20A4B1A800A4B1B8801339AB272
:103F6000084B1A80074B1B88C82B02D1054B002237
:103F70001A80002318460C37BD465DF8047B704755
:103F80006C0E0120700E0120A40D012080B485B0BC
:103F900000AFF860B96011461A460B46FB71134634
:103FA000BB71FB68BA689A60FB68FA799A71FB6822
:103FB000BA79DA7100BF1437BD465DF8047B7047EB
:103FC0002DE9B04388B000AFF860B9601346FB71CB
:103FD000FB681B88FA68D279934205D12D48FFF718
:103FE00029F94FF0FF334FE0FB689B791A46013AFD
:103FF000FA61DBB20022984691464FF000024FF082
:1040000000034FEAC90343EA58734FEAC802FB684A
:104010009B791A46013ABA61DBB200221C4615466A
:104020004FF000024FF00003EB0043EA5473E2004C
:10403000FB689B681A46FB685B881946FB689B799E
:1040400001FB03F313447B617B69FA791A707B6986
:104050000133FA79B968184619F07FFDFB681B88AF
:1040600001339AB2FB681A80FB685B8801339AB20D
:10407000FB685A80FB685B88FA68D279934202D168
:10408000FB6800225A80002318462037BD46BDE851
:10409000B08300BF082A02082DE9B04386B000AF04
:1040A000786039607B681B88002B02D14FF0FF33AA
:1040B0005CE07B689B791A467B68DB7902FB03F343
:1040C0005A1E7A611A460023904699464FF0000224
:1040D0004FF000034FEAC90343EA58734FEAC8029E
:1040E0007B689B791A467B68DB7902FB03F35A1ED7
:1040F0003A611A46002314461D464FF000024FF065
:104100000003EB0043EA5473E2007B689B681A46A5
:104110007B689B8819467B689B7901FB03F31344FA
:10412000FB60FB68591CFB681B781A46386819F05D
:1041300014FD7B689B791A460021F86818F052F844
:104140007B681B88013B9AB27B681A807B689B88DE
:1041500001339AB27B689A807B689B887A68D279AF
:10416000934202D17B6800229A80002318461837B8
:10417000BD46BDE8B083000080B500AFFDF71CF977
:1041800003461AB2184B1A80174BB3F90030002BB4
:1041900013DDFDF74CF903461AB2144B1A80134B8A
:1041A000B3F900309AB2104BB3F900309BB213440C
:1041B0009BB21AB20E4B1A8005E00C4B00221A80FB
:1041C0000B4B00221A80084BB3F900301946074BFD
:1041D000B3F900301A46064BB3F900300548FFF733
:1041E00029F80023184680BD7C1001207E10012094
:1041F00080100120282A020880B582B000AF7860C4
:10420000294BB3F9003041F6FF72934205D127489C
:10421000FFF710F84FF0FF3341E0FEF775FD244B38
:10422000B3F900305B024FF4ED7219467868FEF77F
:104230002BFE0346002B05D01E48FEF7FBFF4FF078
:10424000FF332CE0FEF790FD174BB3F900309BB223
:1042500001339BB21AB2144B1A80154BB3F90030DC
:104260009BB201339BB21AB2114B1A80104BB3F9B7
:10427000003041F6FF72934202D10D4B00221A80AA
:104280000D4BB3F900301946094BB3F900301A460B
:10429000054BB3F900300948FEF7CCFF0023184660
:1042A0000837BD4680BD00BF7C100120682A020887
:1042B000801001207C2A02087E100120942A020826
:1042C00080B584B000AF78600B46FB70344BB3F917
:1042D0000030002B05D13348FEF7ACFF6FF002032E
:1042E00059E0314BB3F900305B024FF4ED721946DF
:1042F0007868FEF769FD0346002B05D02B48FEF7D2
:1043000099FF4FF0FF3346E0FB78012B18D1FF23D4
:10431000FB73FEF7F9FC244BB3F90030590207F1A7
:104320000F0301221846FEF7AFFD0346002B05D010
:104330001F48FEF77FFF4FF0FF332CE0FEF714FD20
:10434000174BB3F900309BB2013B9BB21AB2144B2E
:104350001A80154BB3F900309BB201339BB21AB2ED
:10436000114B1A80104BB3F9003041F6FF729342A3
:1043700002D10D4B00221A800B4BB3F900301946C5
:104380000C4BB3F900301A46054BB3F900300A481C
:10439000FEF750FF002318461037BD4680BD00BF12
:1043A0007C100120D02A02087E100120F42A020885
:1043B000182B020880100120402B020880B5FAB0AB
:1043C00000AF07F5F473A3F5F273186007F5F47303
:1043D000A3F5F2731B681B785B0887F8E33197F845
:1043E000E33119461C48FEF725FF0023C7F8E431E6
:1043F00027E0D7F8E4315B00ED2202FB03F3174A14
:10440000991807F10803ED22184619F0A6FBD7F812
:10441000E4315B000133ED2202FB03F30F4A9918EC
:1044200007F10803ED33ED22184619F096FB07F16A
:1044300008031846FFF7E0FED7F8E4310133C7F868
:10444000E43197F8E331D7F8E4219A42D1DB04480C
:10445000FEF7F0FE10F0FCFE782B0208F04301207E
:104460009C2B020880B584B000AF78600023FB73FA
:104470004FF4FA6012F06EFE01222F492F480BF024
:1044800013FB0346BB73BB7B002B05D0BB7B1946DC
:104490002B48FEF7CFFE48E02A48FEF7CBFE3CE073
:1044A000294B1B684FF0FF31184611F04BF90A20D9
:1044B00012F050FE0023FB7305E0012012F04AFECB
:1044C000FB7B0133FB73214B1B881A461A4B9B5C09
:1044D0000D2B09D01D4B1B880133174AD35C0A2BC7
:1044E00002D0FB7B092BE8D9194B1B78002B08D095
:1044F000164B1B88DBB21A460F491648FFF760FDC2
:1045000003E00D491448FEF795FEFA2200210A48FF
:1045100017F068FE0D4B00221A80104B5B79012BBF
:1045200003D00E4B5B79032BBAD10D48FEF782FE08
:10453000FFF7D0FC10F08CFE30300120E80801209D
:10454000C02B0208E02B0208040D01202A310120B3
:10455000740E01204C310120002C0208240201209D
:10456000182C02082DE9F04389B000AF78607B6811
:10457000FB740023FB60A548FEF75CFEA44B012200
:104580001A704FF49670FDF739FC0346002B40F08B
:10459000D8800A214FF4FA70FDF7DAFC0346002BAD
:1045A00040F0D1804FF49670FDF758FD0346002B84
:1045B00040F0CB804FF49670FDF720FE0346002BB1
:1045C00040F0C5800023FB6141E0FB69ED2202FB66
:1045D00003F3904A1344904AED21184600F038F94D
:1045E000F860FB7C013BFA699A4201D18B4B00E0F9
:1045F0008B4BBB60FB699BB24FF49672B96818464F
:10460000FDF7D8FE0346002B1ED1142012F0A2FDA8
:104610004FF49670FDF73EFF0346002B14D1142093
:1046200012F098FDFB68FE2B0BD8FB689BB241F2A1
:10463000883219467848FDF791FFC82012F08AFDAC
:1046400002E07848FEF7F6FDFB690133FB61FB7C75
:10465000FA699A42B9DB7448FEF7ECFD734B00220D
:104660001A7073494FF000024FF00003C1E90023B4
:104670004FF47A7012F06EFD0023FB7650E0642058
:1046800012F068FD6348FDF79BFB684B1B78DBB2BB
:10469000012B42D100233B8339E0654BD3E9002352
:1046A000398BC1F12006A1F1200022FA01F403FAAE
:1046B00006F6344323FA00F0044323FA01F504F02C
:1046C00001084FF0000958EA09031DD1594B1B6836
:1046D0006421184610F024FF0346002B0FD13B8BBA
:1046E000ED2202FB03F34B4A1344ED2219465248D4
:1046F000FFF766FC4F4B1B68184610F05CFF3B8BC6
:1047000019464E48FEF796FD3B8B01333B83FB7CFD
:104710009BB23A8B9A42C0D305E0FB7E0133FB7615
:10472000FB7E592BABD94FF49670FDF7DDFD0346A8
:10473000002B0ED141F28830FDF7E6FC0346002B3A
:1047400008E000BF06E000BF04E000BF02E000BFD9
:1047500000E000BF354B1B78DBB2002B04D1344B9B
:10476000D3E90023134302D0FB7E592B29D9002320
:10477000FB821BE02F4B1B686421184610F0D0FE13
:104780000346002B0FD1FB8AED2202FB03F3214AE3
:104790001344ED2219462848FFF712FC254B1B68ED
:1047A000184610F008FFFB8A0133FB82FB7C9BB2AA
:1047B000FA8A9A42DED32248FEF73CFD2148FEF7F2
:1047C00041F8134B00221A700023BB820DE0BB8A14
:1047D000ED2202FB03F30F4A1344ED220021184699
:1047E00017F000FDBB8A0133BB82FB7C9BB2BA8A07
:1047F0009A42ECD31448FEF71DFD144B5B79022B53
:1048000002D1124B00225A7110F022FD3C2C0208FA
:10481000740E0120F0430120C0860120582C0208AC
:104820005C2C0208602C0208842C02087003012012
:1048300068030120D40C012034310120B82C020877
:10484000E42C020834020120082D02082402012071
:1048500080B489B000AFF860B9607A600023FB6172
:104860000023BB612FE0FA68BB6913441B78FB751A
:10487000FB7D032B0BD0FB7D1A2B08D0FB7D1B2B64
:1048800005D0FB7D1C2B02D0FB7D7D2B11D1FB695C
:104890005A1CFA617A6813447D221A70FB695A1C0B
:1048A000FA617A681344FA7D82F02002D2B21A705B
:1048B00006E0FB695A1CFA617A681344FA7D1A70A3
:1048C000BB690133BB61BA69BB689A42CBD3FB6950
:1048D00018462437BD465DF8047B704780B582B02A
:1048E00000AF00237B600023FB70344B1B78002B50
:1048F00055D0334B04225A71324A0021324810F00D
:1049000015FC0346314A136001224FF400714FF049
:10491000904004F039FB40F6AC5012F01BFC2C4BDD
:1049200001221A704FF49670FDF768FA786007E07C
:104930004FF49670FDF762FA7860FB780133FB70F4
:104940007B68002B14BF01230023DAB2FB78022B13
:1049500094BF01230023DBB21340DBB2002BE7D16D
:104960001B4B00221A707B68002B18D01948FEF7E9
:1049700061FC00224FF400714FF0904004F004FB02
:10498000FFF7A8FA0E4B03225A71114B00221A703E
:104990004FF4FA7012F0DEFB4FF0FF330AE00E48DE
:1049A000FEF748FC4FF4967012F0D4FB044B002243
:1049B0005A71002318460837BD4680BD730E01208A
:1049C000240201204C9F0208654400088C1201203B
:1049D000740E0120282D0208482D020880B500AF72
:1049E0000F4B1B78002B14D000224FF400714FF0B6
:1049F000904004F0C9FA322012F0ACFB094B0322BC
:104A00005A71094B00221A70084B1B68184610F0A7
:104A1000EBFE0748FEF70EFC0023184680BD00BFE2
:104A2000730E012024020120740E0120040D0120C8
:104A3000642D020880B5ADF5007D02AF07F5FC736B
:104A4000A3F5FA7318600023A7F8F6310A2012F0D4
:104A500081FB41F233631A4694499548FEF7EAFB1D
:104A6000944B1B68184610F0BFFE934B1B684FF029
:104A7000FF31184610F066FE904B1B686421184603
:104A800010F04EFD0346002B07D18D4B1B68ED2225
:104A900019468C48FFF794FA02E08B48FEF7CAFBF0
:104AA000884B1B88A7F8F631844B1B68184610F01A
:104AB00082FD844B9B881946824B5B881846B7F968
:104AC000F631824A5279009202468148FEF7B2FBE3
:104AD000B7F9F631092B00F3E280B7F9F631032B71
:104AE0007FDD7A4B5B79032B07D1FFF7F7FE034697
:104AF000002B02D0754B03225A71744B5B79002B4B
:104B0000B3D1724B02225A716C4B1B686421184658
:104B100010F006FD0346002BA7D1B7F9F631322B72
:104B200002DD3223A7F8F6310023C7F8F0310FE099
:104B3000D7F8F031ED2202FB03F3664A134419461D
:104B40006048FFF7A9FAD7F8F0310133C7F8F03120
:104B5000B7F9F631D7F8F0219A42E9DB574B1B68D9
:104B6000184610F028FDB7F9F6315B4A19465B4844
:104B700010F0DCFA03465A4A1360594B1B68002BAD
:104B80007FF473AFFFF72AFF4C4B1B686421184674
:104B900010F0C6FC0346002B1FD10023C7F8EC31F0
:104BA00010E0D7F8EC31ED2202FB03F3494A13443D
:104BB000ED2219464348FFF703FAD7F8EC310133E9
:104BC000C7F8EC31B7F9F631D7F8EC219A42E8DBB7
:104BD0003A4B1B68184610F0EEFC4248FEF72AFBE1
:104BE00043E7414BB3F90030002B7FF73EAFB7F9F5
:104BF000F63113F1020FBFF638AF344B5B79002B5F
:104C00000CBF01230023DAB2304B5B79032B0CBFBE
:104C100001230023DBB21343DBB2002B3FF425AFAB
:104C2000314BB3F90030042BA8BF04231BB287F823
:104C3000E7310023C7F8E8312AE007F10C0301212E
:104C40001846FFF73DFB0346002B1CD11B4B1B688E
:104C50006421184610F064FC0346002B13D107F1C1
:104C60000C03ED2219461748FFF7AAF907F10C03C8
:104C7000ED33ED2219461348FFF7A2F90F4B1B68DD
:104C8000184610F098FCD7F8E8310133C7F8E8313E
:104C900097F8E731D7F8E8219A42CEDBE5E6B7F995
:104CA000F631184600F022F8DFE600BF24A0020823
:104CB000842D0208000D0120F40C0120D40C0120E9
:104CC00018000020343101209C2D0208240201200C
:104CD000002E0208F0430120DC9F02086545000811
:104CE00084120120502E02087C10012080B5FAB0F9
:104CF00000AF07F5F473A3F5F273186007F5F473CA
:104D0000A3F5F27307F5F472A2F5F272126822F0BD
:104D100001021A6007F5F473A3F5F2731B685B08D0
:104D200087F8E3311C48FEF785FA0023C7F8E43121
:104D300024E01A4B1B686421184610F0F1FB03466F
:104D4000002B16D107F1080319461548FFF7A4F9FF
:104D500007F10803ED3319461148FFF79DF90F4B92
:104D60001B68184610F027FC07F108031846FFF7E8
:104D700043FAD7F8E4310133C7F8E43197F8E33167
:104D8000D7F8E4219A42D4DB0648FEF753FA00BF75
:104D900007F5F477BD4680BD802E0208D40C0120B3
:104DA00034310120A02E020880B584B000AF7860B5
:104DB0003748FEF73FFA00237B81364B1B681846C5
:104DC00010F012FD344B1B684FF0FF31184610F005
:104DD000B9FC324B1B686421184610F0A1FB034656
:104DE000002B07D12E4B1B68ED2219462D48FFF7EB
:104DF000E7F802E02C48FEF71DFA2A4B1B881BB28D
:104E00007B81264B1B68184610F0D5FB254B9B88F1
:104E10001946244B5B881A46224B1B882348FEF711
:104E200009FAB7F90A30032BCCDD1C4B1B6864214F
:104E3000184610F075FB0346002B25D10023FB60BC
:104E40000CE0FB68ED2202FB03F3194A13441946F8
:104E50001448FFF721F9FB680133FB60B7F90A300A
:104E60001A46FB689342ECDB0C4B1B68184610F0AB
:104E7000A2FB07F10A030F4A19460F4810F056F932
:104E800003460E4A13609DE70D48FEF7D3F999E7F4
:104E9000C02E0208000D0120F40C0120D40C0120CA
:104EA0001800002034310120E02E0208482F0208AB
:104EB000F043012000A00208BD4300088812012031
:104EC000842F0208F0B5ADB006AFF860002387F874
:104ED0008D300023A7F88A306423A7F88830002398
:104EE000A7F890304FF000024FF00003C7E91E23EF
:104EF000002387F88F30AA4B1B684FF0FF3118460C
:104F000010F020FCA74B1B881946A748FEF792F922
:104F10001CE0A649A348FFF7BFF80023C7F8943068
:104F20000DE0D7F894300133A04AD35C1946A0486D
:104F3000FEF780F9D7F894300133C7F894309B4BD3
:104F40001B781A46D7F894309342EADB954B1B88BE
:104F5000002BDED1954B5B78082B19DC002B40F33E
:104F6000D981013B072B00F2D58101A252F823F031
:104F7000AB4F0008D34F000803500008E75000086B
:104F80001F51000825520008F55200080953000877
:104F9000FF2B40F0BF81854B1B781946854814F0E4
:104FA0004FF98548FEF746F9B8E1FCF705FA0346E4
:104FB000A7F88A30FFF7E0F8B7F88A3019467F483B
:104FC000FEF738F907F18A030221184614F038F980
:104FD000A4E1764B5B88A7F88A3000217848FFF778
:104FE0006FF9B7F88A301946764BB3F900301A4694
:104FF0007548FEF71FF94FF4ED71714814F020F970
:105000008CE16A4B5B88A7F88830B7F8883019467E
:105010006E48FEF70FF96E4B01221A7001226D499E
:105020006D480AF041FD034687F88F3097F88F30BE
:10503000002B05D097F88F3019466848FEF7FAF82C
:105040006748FEF7F7F8002387F893300DE097F8EC
:1050500093300333554AD35C19466248FEF7EAF8A9
:1050600097F89330013387F8933097F893204F4B9C
:105070001B78023B9A42EADB5B48FEF7DBF84B4BBE
:105080001B78023B9BB21A46584953480AF090FCE1
:10509000B7F88830184612F05DF810E007F18E037B
:1050A0001846FEF741FF07F18E030121184614F060
:1050B000C7F897F88E3019464D48FEF7BBF84D4BB0
:1050C0001B88002BEAD107F18D030121184614F04B
:1050D000B7F800BF3E4B00221A70FEF7FBFE4648B1
:1050E000FEF7A8F81AE1454BD3E90023C7E92023CE
:1050F000D7E920014FF000024FF000030A0000231F
:105100001146D7E9202313461A463D48FEF792F888
:1051100007F180030821184614F092F8FEE0234BB3
:1051200002331C685D6822462B46C7E91E23D7E977
:105130001E233448FEF77EF8D7E91E231046194691
:1051400001F02AF8642012F005F82F4B01932F4B41
:1051500000932F4B2F4A3049304801F0C7F82F4BAE
:105160001B681846FBF708FA02460B462A490978DD
:105170000846284909780E4625490978B960234927
:105180000988796020490988049179680391B96890
:105190000291019600902248FEF74CF8BEE000BF55
:1051A000F80C012040310120DC2F02086C0D012099
:1051B000FC2F02086D0D012000300208103002089B
:1051C000841001207C1001202030020834300208B5
:1051D0009F0D0120A00D0120E80801204C3002089D
:1051E0006830020874300208783002086F0D012020
:1051F0007C3002086C0E01208430020800E00708B1
:10520000A0300208BC3002080C0000207C0E0120F7
:105210000E000020730E0120720E0120780E012076
:10522000D03002083E4B9B7887F864303C4BDB78EB
:1052300087F865303A4B1B7987F86630384B5B79D5
:1052400087F84C30364B9B7987F84F30344BDB79FD
:1052500087F84D30324B1B7A87F84E3007F16403E4
:10526000012219462F4807F0A1FC07F14C03012247
:1052700019462C4807F093FD642011F06BFF07F1ED
:10528000500300221946274807F02DFD07F1480377
:1052900000221946234807F009FE97F84A309C4639
:1052A00097F849309E4697F84B30194697F850309A
:1052B0001E4697F85130BB6097F852307B607B6D8B
:1052C000BA6D07F11400059204937A680392BB68E3
:1052D00002930196009173466246134916F0B2FE9E
:1052E00007F1140319461148FDF7A4FF1048FDF714
:1052F000A1FF13E0FDF708FDFDF76AFFFDF734FDA0
:105300000C48FDF797FF09E0FDF71EFC0A48FDF782
:1053100091FF03E00948FDF78DFF00BFEBE500BFFB
:105320006C0D0120D80A012008310208343102082E
:105330003C3102085C3102086C3102087C31020801
:10534000B0B58EB004AF78605548FDF773FF554B8C
:105350001B684FF0FF31184610F0F4F9524B1B79DF
:10536000002B00F09980504B1B681846FCF7DAF8C8
:105370004D4B00221A714D4B93F82230002B00F058
:1053800084804B4B1B68B3F1FF3F7ED1474B9B6B37
:10539000002B7AD007F10C0300221A605A609A6041
:1053A000DA601A610023BB60404B9B697B627B6AB9
:1053B000404AA2FB03235B0BDBB23B737B6A3E4A92
:1053C000A2FB03235A093C4BA3FB02135B09642194
:1053D00001FB03F3D31ADBB27B737A6A364BA3FB70
:1053E00002135B09642101FB03F3D31ADBB2BB7325
:1053F0002E4B9B6B3B623B6A2E4AA2FB03235B0B4B
:10540000DBB2BB723B6A2C4AA2FB03235A092A4B2C
:10541000A3FB02135B09642101FB03F3D31ADBB284
:105420007B723A6A244BA3FB02135B09642101FBE4
:1054300003F3D31ADBB2FB7207F10803002219460B
:105440001E4807F0ACFC0346002B1ED107F10C03ED
:1054500000221946194807F0A9FB0346002B14D176
:10546000134B01221A60BB7A18467B7A1C46FB7AE2
:105470001D463B7B7A7BB97B0291019200932B46C0
:10548000224601460E48FDF7D5FE074B1B6819461C
:105490000C48FDF7CFFE5AE70B48FDF7CBFE56E769
:1054A00090310208FC0C012028300120CC2C012076
:1054B000100000205917B7D11F85EB51D80A0120E1
:1054C0009C310208D8310208EC31020880B584B062
:1054D00000AF7860594815F0EBFC0346FB60584B71
:1054E0001A687B680F3B1344564A12681A60544B83
:1054F0001A687B680B3B1344534A52691A60FB6875
:10550000190B4F4B1A687B68073B1344CAB21A70D9
:10551000FB6819094A4B1A687B68063B1344CAB2F8
:105520001A70FB68DBB21B01D9B2474B93F82330EA
:1055300003F00F03DAB2424B18687B68053B034463
:105540000A43D2B21A70404BD3ED047A3C4B1A682E
:105550007B68043B1344FCEEE77AC7ED007A3A78A7
:10556000D2B21A70384BD3ED047AF7EE000AB0EEDF
:10557000670A1CF01BFBF0EE407A9FED347A67EE71
:10558000877AFCEEE77A17EE903A190B2C4B1A68E3
:105590007B68033B1344CAB21A702B4BD3ED047AD9
:1055A000F7EE000AB0EE670A1CF000FBF0EE407A5E
:1055B0009FED267A67EE877AFCEEE77A17EE903A4F
:1055C00019091F4B1A687B68023B1344CAB21A7050
:1055D0001D4BD3ED047AF7EE000AB0EE670A1CF01B
:1055E000E5FAF0EE407A9FED197A67EE877AFCEEE5
:1055F000E77AC7ED007A3B781B01DBB203F00F03BB
:10560000DAB2114B93F822305B00DBB203F00E03E9
:10561000DBB21343D9B20E4B1B88DBB203F001039C
:10562000DAB2074B18687B68013B03440A43D2B2E5
:105630001A7000BF1037BD4680BD00BF2C3101205D
:1056400014000020900E0120CC2C0120002474496D
:105650000C00002090B5A9B004AF87ED030AB86034
:105660000F23C7F88C307E4BB3F90030002B0BDDD5
:105670007B4BB3F900305A1E13465B001344DA002B
:1056800013443033C7F88C30754BB3F90030002B1E
:1056900003D1D7F88C00FFF719FF724B1B78002B52
:1056A00000F08D836E4BB3F90030002B40F0B481D5
:1056B000BB68D3ED007AF7EE000AB0EE670A1CF083
:1056C00075FAF0EE407AB2EE047A67EE877AFCEE75
:1056D000E77AC7ED017A3B79DBB25BB21B015CB2C2
:1056E000BB680433D3ED007AF7EE000AB0EE670A28
:1056F0001CF05CFAF0EE407AB2EE047A67EE877A3C
:10570000FCEEE77AC7ED017A3B79DBB25BB203F0DE
:105710000F035BB2234359B2534B1A68D7F88C304E
:105720001344CAB21A700123C7F888304AE0D7F888
:105730008830DB00BA681344D3ED007AF7EE000A34
:10574000B0EE670A1CF032FAF0EE407AB2EE047A5C
:1057500067EE877AFCEEE77AC7ED017A3B79DBB238
:105760005BB21B015CB2D7F88830DB000433BA6847
:105770001344D3ED007AF7EE000AB0EE670A1CF08E
:1057800015FAF0EE407AB2EE047A67EE877AFCEE14
:10579000E77AC7ED017A3B79DBB25BB203F00F0326
:1057A0005BB2234358B2304B1A68D7F88810D7F849
:1057B0008C300B441344C2B21A70D7F888300133CE
:1057C000C7F88830D7F888300A2BB0DDBB6858336B
:1057D000D3ED007AF7EE000AB0EE670A1CF0E6F9A6
:1057E000F0EE407AB2EE047A67EE877AFCEEE77A62
:1057F000C7ED017A3B79DAB21B4B1968D7F88C30C8
:105800000B330B441201D2B21A70174B1A68D7F837
:105810008C300B3313441B7823F00F03D9B2BB68D1
:10582000D3ED007AFCEEE77AC7ED017A3B79DBB283
:10583000DB08DBB203F00F03DAB20B4B1868D7F8C2
:105840008C300B3303440A43D2B21A70052387F815
:105850008730002387F886300023C7F8803059E06E
:105860007A1001200E0000201400002097F88620F6
:10587000D7F8803013449B00BA681344D3ED007A04
:10588000FCEEE77AC7ED017A3B79DBB203F07F02E9
:1058900097F8873002FA03F35AB297F88610D7F8D0
:1058A00080300B4401339B00B9680B44D3ED007A80
:1058B000FCEEE77AC7ED017A3B79DBB203F07F01BA
:1058C00097F88730C3F1070341FA03F35BB2134340
:1058D00058B2A64B1A68D7F88010D7F88C300B4412
:1058E0000C331344C2B21A7097F88730013387F82B
:1058F000873097F88730072B07D9012387F887303F
:1059000097F88630013387F88630D7F88030013336
:10591000C7F8803097F88620D7F880301344152BCD
:10592000A4DDBB685833D3ED007AFCEEE77AC7ED0F
:10593000017A3B79DAB28D4B1968D7F88C301F3376
:105940000B44D200D2B21A70884B1A68D7F88C3048
:105950001F3313441978D7ED037AFCEEE77AC7EDCD
:10596000017A3B79DBB21B09DBB203F00703DAB241
:105970007E4B1868D7F88C301F3303440A43D2B2E9
:105980001A70D7ED037AFCEEE77AC7ED017A3B791E
:10599000DBB25BB21B015CB2F7EE000A97ED030AC3
:1059A0001CF004F9F0EE407AB2EE047A67EE877AE2
:1059B000FCEEE77AC7ED017A3B79DBB25BB203F02C
:1059C0000F035BB2234359B2684B1A68D7F88C3087
:1059D00020331344CAB21A700023FB6710E0FB6F38
:1059E0009B00BA681344D3ED007AFDEEE77A17EE18
:1059F000901A5F4AFB6F42F82310FB6F0133FB677D
:105A0000FB6F162BEBDDD7ED037AFDEEE77A17EE91
:105A1000902A584B1A60D2E1BB68D3ED007AF7EEBA
:105A2000000AB0EE670A1CF0C1F8F0EE407AB2EE60
:105A3000047A67EE877AFCEEE77AC7ED017A3B7964
:105A4000DBB25BB21B015CB2BB680433D3ED007AFE
:105A5000F7EE000AB0EE670A1CF0A8F8F0EE407A04
:105A6000B2EE047A67EE877AFCEEE77AC7ED017A48
:105A70003B79DBB25BB203F00F035BB2234359B255
:105A80003A4B1A68D7F88C301344CAB21A70012303
:105A9000BB6745E0BB6FDB00BA681344D3ED007A07
:105AA000F7EE000AB0EE670A1CF080F8F0EE407ADC
:105AB000B2EE047A67EE877AFCEEE77AC7ED017AF8
:105AC0003B79DBB25BB21B015CB2BB6FDB00043322
:105AD000BA681344D3ED007AF7EE000AB0EE670A15
